:020000040800F2
:10000000800A0120D9010008C3200008251E00082D
:10001000C120000849040008252A0008000000004B
:10002000000000000000000000000000DD240008C7
:10003000D504000800000000C5200008DF240008E7
:10004000F3010008F3010008F3010008F3010008C0
:10005000F3010008F3010008F3010008F3010008B0
:10006000F3010008F3010008F3010008F3010008A0
:10007000F3010008F3010008F3010008F301000890
:10008000F3010008F3010008F3010008F301000880
:10009000F3010008F3010008F3010008F301000870
:1000A000F3010008F3010008F3010008F301000860
:1000B0008D250008C9250008F3010008F301000898
:1000C000F3010008F3010008F3010008F301000840
:1000D000F301000881290008F3010008F30100087A
:1000E000F3010008F3010008F3010008F301000820
:1000F000F3010008F3010008F3010008F301000810
:1001000000000000F3010008F3010008F3010008FB
:100110000000000000000000F3010008F3010008E7
:10012000F3010008F3010008F3010008F3010008DF
:10013000F3010008F3010008F3010008F3010008CF
:10014000F3010008F3010008F3010008F3010008BF
:10015000F3010008F3010008F3010008F3010008AF
:10016000F3010008F3010008000000000000000097
:10017000000000000000000000000000000000007F
:10018000F3010008F3010008000000000000000077
:10019000F3010008F3010008000000000000000067
:1001A000000000000000000000000000000000004F
:1001B000F30100080000000000000000F301000847
:1001C000F3010008DFF80CD000F0BEF8004800474B
:1001D000152E0008800A012006488047064800477F
:1001E000FEE7FEE7FEE7FEE7FEE7FEE7FEE7FEE7E7
:1001F000FEE7FEE77D250008C50100082DE9F05F58
:100200000546002092469B46884606468146402485
:100210001BE0284641464746224600F085F85346F3
:100220005A46C01A914110D311461846224600F092
:100230006CF82D1A67EB01084F4622460120002179
:1002400000F063F817EB00094E41201EA4F10104F1
:10025000DFDC484631462A464346BDE8F09F40EA87
:1002600001039B0703D009E008C9121F08C0042A34
:10027000FAD203E011F8013B00F8013B521EF9D21B
:100280007047D2B201E000F8012B491EFBD2704743
:100290000022F6E710B513460A4604461946FFF752
:1002A000F0FF204610BD421E12F8013F002BFBD18B
:1002B00011F8013B02F8013B002BF9D17047421CB9
:1002C00010F8011B0029FBD1801A7047034611F872
:1002D000012B00F8012B002AF9D11846704730B5E0
:1002E0000B46014600202022012409E021FA02F5F4
:1002F0009D4205D303FA02F5491B04FA02F528448E
:10030000151EA2F10102F1DC30BD202A04DB203AE7
:1003100000FA02F1002070479140C2F1200320FA58
:1003200003F3194390407047202A04DB203A21FA56
:1003300002F00021704721FA02F3D040C2F12002FE
:100340009140084319467047064C074D06E0E068A7
:1003500040F0010394E8070098471034AC42F6D30C
:10036000FFF734FF302F0008502F000870B50E4BF8
:100370000D68002485B10078432801D063280AD194
:100380000A4885780DB9012585701868C82802DBF0
:100390001C60022010700C605868B0F5A07F02DB72
:1003A0005C6001F093FD70BD2C020020E80000208D
:1003B0000B490868026A41F211131A4207D1026A16
:1003C0009B101A4203D1026822F001020260054A22
:1003D000002010600868C16821F00101C160704709
:1003E0007C010020240400400749002008600748E1
:1003F00001680A6842F001020A600068C16841F0C1
:100400000101C16070470000240400407C0100200D
:100410000149086070470000D80000200149486089
:1004200070470000DC00002010B50022054B05E0FD
:100430001C682406FCD5845C5C60521C8A42F7DB95
:10044000012010BD00100140FEE700001148816846
:10045000B1F5FA7F01DB002181600F4B1878062887
:1004600011D2DFE800F00305080A0C0E0B4800E08B
:100470000B48186109E00B48FBE70B48F9E70B480C
:10048000F7E70B48F5E7012018700A491B69024A93
:10049000881D18472C020020E80000200D2E0008BF
:1004A0006D030008D9040008291E000879210008FE
:1004B000152F00086006002010B50448FFF7A8FFBC
:1004C000BDE810400248FFF7A9BF00003D27000823
:1004D00055210008704700002DE9F84380460027A9
:1004E0000120009708600E4615461DA14046FFF703
:1004F000EDFE2B4C607888B1A06900F130018DF8D9
:10050000001058B169464046FFF7CDFE25A1404690
:10051000FFF7C9FE30A14046FFF7C5FE34A14046B3
:10052000FFF7C1FE38A14046FFF7BDFE3BA14046A4
:10053000FFF7B9FE48A14046FFF7B5FE032028703B
:10054000404601F0C0FD37606078002806D0A06901
:10055000002803D10520287042486061BDE8F88377
:100560000D2A2A2A2A2A2A2A2A2A2A2A2A2A2A2A08
:100570002A2A2A2A2A2A2A2A2A2A2A2A2A2A2A2ADB
:100580002A2A2A2A2A2A2A2A2A2A2A2A2A2A2A2ACB
:100590002A2A2A2A2A2A2A2A2A2A0D0A00000000A0
:1005A000E8000020C3EBBAF3B4D3CDE2D6C3666C47
:1005B000617368B8FCD0C2D3A6D3C3C7F8B3CCD09C
:1005C000F2A3ACB0B4C8CED2E2BCFCC8A1CFFBB899
:1005D000FCD0C20D0A000000B0B431BBF232BDF84D
:1005E000C8EBC6E4CBFBD1A1CFEEA3BA0D0A000045
:1005F000312EB8FCD0C2D3A6D3C3C7F8B3CCD0F247
:10060000A3BB0D0A00000000322ED4CBD0D0415045
:1006100050B3CCD0F2A1A30D0A0000002A2A2A2A46
:100620002A2A2A2A2A2A2A2A2A2A2A2A2A2A2A2A2A
:100630002A2A2A2A2A2A2A2A2A2A2A2A2A2A2A2A1A
:100640002A2A2A2A2A2A2A2A2A2A2A2A2A2A2A2A0A
:100650002A2A2A2A2A0D0A00C7EBD1A1D4F13A0D81
:100660000A0D0A000000020872B6FEE7002229B156
:1006700001291AD002291BD04FF440720E490B6891
:1006800023F440730B600B6813430B600A6822F07D
:10069000F8020A600A68022303EBC00002430A6002
:1006A000086840F48030086070474FF48072E5E7D6
:1006B0004FF40072E2E70000103C0240134801686A
:1006C00089050FD5016821F400710160016841F4CA
:1006D00000610160016821F400610160016841F47A
:1006E00000710160016849050FD5016821F480613E
:1006F0000160016841F480510160016821F480517A
:100700000160016841F4806101607047003C024073
:1007100008490A6822F440720A600A6842F004023A
:100720000A600A684FF4803343EA002002430A60FB
:1007300070470000103C024070477047064A13683B
:1007400023F44073136013681360136843F00103CC
:100750001360017070470000103C0240094910B559
:100760000C6824F440740C600C6844F440740C6011
:100770000C6844F001040C600260BFF36F8F4360AB
:1007800010BD0000103C0240074A136823F4407378
:100790001360136843F480731360136843F001031C
:1007A0001360018070470000103C0240074A136844
:1007B00023F440731360136843F4007313601368E9
:1007C00043F001031360016070470000103C0240D9
:1007D0001C490868C2061C4805D5C26942F01002CF
:1007E000C26110220A600A68920605D5C26942F009
:1007F0000802C26120220A600A68520605D5C26951
:1008000042F00402C26140220A600A68120605D55D
:10081000C26942F00202C26180220A600A68D205FF
:1008200006D5C26942F00102C2614FF480720A60CB
:100830000A68920705D5C26942F02002C26102200F
:10084000086070470C3C02400C02002070B5114952
:1008500004460020C86100F01BFA06460E4D09E070
:10086000601C07D024B100F013FA801BA04201D90C
:10087000032070BD2868C003F2D42868C00701D0E7
:1008800001202860286810F4F970F2D0FFF7A0FF6B
:10089000012070BD0C0200200C3C02400B4610B53C
:1008A00001469208184601F0CDFD002010BD2DE94B
:1008B000F0410446876D00F0EBF9064694F83500E8
:1008C0000025022806D08020606584F8345001207D
:1008D000BDE8F0812068016821F016010160206800
:1008E000416921F080014161206C08B9A06C20B100
:1008F0002068016821F0080101602068016821F08A
:10090000010101600CE000F0C3F9801B052807D944
:1009100020206065032084F8350084F83450D7E740
:1009200020680068C007EED194F85C103F20884032
:10093000B860012084F8350084F834500020C7E7FF
:1009400090F83510022903D08021416501207047BD
:10095000052180F835100068016821F0010101606F
:100960000020704770B5044600F092F90546601CFF
:1009700002D004480078044400F08AF9401BA042E9
:10098000FAD370BDC80000202DE9F0470446224884
:100990000F46017E01290AD00121804601764CF2E2
:1009A00050394846FFF752FF020003D02FE00220E3
:1009B000BDE8F0874FF0FF3038602068174D012800
:1009C00001D0A6681CE0207C6168FFF7A1FE4846C4
:1009D000FFF73CFF0246286820F00400286014E07E
:1009E000217C3046FFF742FE4846FFF72FFF02000A
:1009F000286820F0FA00286001D03E6005E0761CEF
:100A0000D4E902100844B042EAD8FFF757FE0021AB
:100A100088F818101046CBE70C020020103C02406A
:100A20000348016841F00041016000207047000068
:100A3000103C02402DE9F0471B4E05461446307E1F
:100A40001F468946012808D0012030764CF25038E4
:100A50004046FFF7FBFE18B114E00220BDE8F08726
:100A60009DB1012D16D0022D19D022463B46484695
:100A7000FFF774FE4046FFF7E9FE0C490A6822F0D2
:100A800001020A6000213176E8E7E1B24846FFF74B
:100A900055FEEFE7A1B24846FFF776FEEAE72146AA
:100AA0004846FFF783FEE5E70C020020103C0240B9
:100AB000074900200A68002A09DA054A054B0C3A62
:100AC0001360054B13600968002900DA01207047A4
:100AD000103C024023016745AB89EFCD2DE9F84F6B
:100AE000DFF890A10022012403254FF00F090AF13D
:100AF000040BAAF1040E00BF0B6804FA02F633409F
:100B0000B3426ED10F7907F00307012F01D0022FF6
:100B100016D187684FEA420805FA08FC27EA0C0755
:100B2000D1F80CC00CFA08FC4CEA070CC0F808C05D
:100B30004768B7430E79C6F3001696403E434660B9
:100B40000E79F643B6070AD0C6684FEA420C05FA9A
:100B50000CF7BE438F6807FA0CF73743C7600E796E
:100B600006F00306022E10D1D60800EB8608D8F84E
:100B7000206057074FEAD76C09FA0CF7BE430F699C
:100B800007FA0CF73743C8F8207006684FEA420CA2
:100B900005FA0CF7BE430F7907F0030707FA0CF7C5
:100BA000374307604E6816F4403F5CD0324E3768DA
:100BB00047F480473760366822F0030706F4804622
:100BC00000962E4E07EB060CDCF8086897074FEAF4
:100BD000177809FA08F7BE43294FB84202D1002717
:100BE00010E040E0274FB84201D101270AE0264F2C
:100BF000B84201D1022705E0244FB84201D10327B2
:100C000000E0072707FA08F73743CCF80878DAF846
:100C100000605746D1F804C09E435FEACC2C00D553
:100C20001E433E60DBF800605F46D1F804C09E437F
:100C30005FEA8C2C00D51E433E60DEF800607746EC
:100C4000D1F804C09E435FEA8C3C00D51E433E6051
:100C5000084F083F3E68D1F804C09E435FEACC3C91
:100C600000D51E433E60521C102AFFF445AFBDE87C
:100C7000F88F0000083C0140443802400030014039
:100C8000000002400004024000080240000C024044
:100C90000148806870470000C80000200248816851
:100CA0000278114481607047C80000200B4810B5DD
:100CB000016841F400710160016841F480610160E4
:100CC000016841F480710160032000F06FF80F208B
:100CD00000F006F800F024F8002010BD003C0240AF
:100CE00070B50D4D04464FF47A712878B1FBF0F0E1
:100CF0000A490968B1FBF0F000F0D2FC48B9102CA9
:100D000007D200222146501E00F030F800206C600F
:100D100070BD012070BD0000C8000020D40000207C
:100D20000A4808B5016841F480410160006800F498
:100D3000804000900548001F016841F0805101602B
:100D4000006800F08050009008BD00004438024068
:100D5000002809DB00F01F020121914040098000BA
:100D600000F1E020C0F8001170470000F0B40E4B15
:100D70001B680C46C3F30223C3F10705042D00D9F9
:100D80000425191D072901D2002300E0DB1E0126DE
:100D900006FA05F1491E214099409E40761E1640F4
:100DA0003143F0BC01F02CBF0CED00E0064900F02F
:100DB000070208684FF6FF03184040EA0220034A82
:100DC00010430860704700000CED00E00000FA05D9
:100DD0002DE9F84F0446007800268D4DC00708D055
:100DE0002868616920F0C06008432860606900B924
:100DF00001262078800708D52868A16920F0C05016
:100E000008432860A06900B9012620784FF0000A45
:100E100000074FF0010B55D57D484C38016841F073
:100E2000805101600068DFF8EC8100F08050009094
:100E3000D8F8001041F48071C8F80010FFF728FFBF
:100E4000074604E0FFF724FFC01B02286FD8D8F83C
:100E50000000C005F6D56E4F1C3F386810F4407096
:100E60001FD0A18B01F4407181421AD0386820F460
:100E700040716948C0F800B0C0F800A03960386817
:100E8000C0070ED0FFF704FF804641F2883905E025
:100E9000FFF7FEFEA0EB0801494548D838688007F7
:100EA000F6D5E1695A48C1F301228438032A36D0C5
:100EB000016821F4F81101603868A18BC1F30B01BE
:100EC000084338602078DFF85491400703D594F840
:100ED0003810C9F8E0112078C106514805D50168DD
:100EE000626A21F440011143016021784FF00067EC
:100EF000890609D50168A26A21F0006111430160E9
:100F0000A16AB94200D101262178490605D50168B8
:100F1000226A21F080511143016066B908E002683D
:100F2000404B22F4F81219400A430260C4E754E02F
:100F30002068802857D15046DFF8ECA0CAF8680036
:100F4000FFF7A6FE324E80468C3E05E0FFF7A0FE7E
:100F5000A0EB0800022840D830680001F6D4616B8D
:100F6000C9F8D81020683149C20701D062697AB146
:100F7000820701D5A2695AB1820602D5A26ABA4295
:100F800006D040060FD5206A68B9A06AB8420AD1D7
:100F9000D4E9010240EA8210227B237C120642EA55
:100FA000037210430860207800060AD5D4E90102D4
:100FB00040EA8210227B237C120642EA037210432D
:100FC0000860CAF868B0FFF763FE074608E000BF94
:100FD000FFF75EFEC01B022802D90320BDE8F88F90
:100FE00030680001F4D52088C00505D52868E16A7D
:100FF00020F00040084328602088800505D5286837
:10100000216B20F40040084328600020E6E7000040
:101010008C38024000700040400E474200104742AA
:1010200094380240FFFCFF0F000047428438024022
:101030002DE9F0470E46050065D0DFF81481D8F899
:101040000000F7B200F00700B04207D288F8007045
:10105000D8F8000000F00700B04254D128683D4C99
:10106000810712D5400703D5206840F4E050206086
:101070002878000703D5206840F46040206020688D
:10108000A96820F0F000084320602878C0072DD020
:10109000304968680839012812D0022813D0032883
:1010A00011D00968890700292DDA216821F0030190
:1010B00001432160FFF7ECFD814641F2883A0EE0E2
:1010C00009688903EFE709688901ECE7FFF7E0FDAC
:1010D000A0EB0901514502D90320BDE8F087206843
:1010E000696800F00C00B0EB810FEFD1D8F8001068
:1010F000404601F00701B14207D90770006800F0CF
:101100000700B04201D00120E7E72878400705D565
:101110002068E96820F4E050084320602878000740
:1011200006D52068296920F4604040EAC1002060AB
:1011300000F038F82168084AC1F30311515CC84037
:101140000649086006480068FFF7CAFD0020C4E7AA
:10115000003C024008380240162F0008D40000204E
:10116000CC0000200448054900680968044AC1F31E
:101170008221515CC8407047D400002008380240EA
:10118000262F00080448054900680968044AC1F38D
:101190004231515CC8407047D400002008380240FA
:1011A000262F0008154810B5006810F00C021448EE
:1011B00013D04110042A0FD0082A0ED10F4C241F3F
:1011C0002268236802F03F025B0207D52068C0F363
:1011D0008810A0FB010106E0084610BD2168C1F39C
:1011E0008811A1FB00010023FFF708F82168C1F373
:1011F0000141491C4900B0FBF1F010BD0838024024
:101200000024F4002DE9F84F04006ED02078DFF8B8
:101210006093C007A9F104054AD009F104000168F0
:10122000C1F38101012908D00068C0F381000228C0
:101230000AD1D9F80000400206D52868800337D5C6
:1012400060680028E1D033E06068B0F5803F10D0DE
:10125000B0F5A02F286810D020F4803028602868CE
:1012600020F4802028606068A8B1FFF711FD0646D1
:101270000DE0286840F48030F4E740F480202860D6
:10128000F7E700BFFFF704FD801B642873D82868C8
:101290008003F7D50CE0FFF7FBFC064605E000BF36
:1012A000FFF7F6FC801B6428F0D828688003F7D489
:1012B0002078DFF8C08280074FF0000A3ED5AC48A6
:1012C000001D016811F00C0F08D00068C0F3810008
:1012D00002280BD1D9F80000400207D42868800703
:1012E00016D5E068012800D112E03CE1E068B8B111
:1012F0000120C8F80000FFF7CBFC064605E000BF60
:10130000FFF7C6FC801B0228C0D828688007F7D5E5
:101310002868216920F0F80040EAC10028600DE04B
:10132000C8F800A0FFF7B4FC064604E0FFF7B0FCE5
:10133000801B02281FD828688007F7D42078000770
:1013400022D58B4E8C486169703671B101210160E4
:10135000FFF79EFC074604E0FFF79AFCC01B02283B
:1013600009D830688007F7D50EE0C0F800A0FFF775
:101370008FFC074605E082E0FFF78AFCC01B0228CD
:101380007DD830688007F7D42078400768D5DFF82B
:10139000E0B100270BF13C0BDBF80000C0000BD4E0
:1013A000DBF8001041F08051CBF80010DBF80000B2
:1013B000012700F080500090704E3068C00510D4B6
:1013C000306840F480703060FFF762FC009005E008
:1013D000FFF75EFC0099401A022850D83068C0051B
:1013E000F6D5634EA0686C3601280FD0052830680A
:1013F00010D020F001003060306820F00400306030
:10140000A068B8B1FFF744FC00900FE0306840F0EE
:101410000100F4E740F004003060F7E7FFF738FC24
:101420000099411A41F28830814268D830688007BB
:10143000F4D50EE0FFF72CFC009007E0FFF728FC46
:101440000099411A41F28830814258D830688007AB
:10145000F4D42FB1DBF8001021F08051CBF800104C
:10146000A069D8B34249091D0968C1F38101022965
:101470004CD00228504607D0C8F8600000E03EE09B
:10148000FFF706FC04463DE04746C8F86000FFF75A
:10149000FFFB064605E000BFFFF7FAFB801B0228B2
:1014A0002DD828688001F7D4F4E907010843E168E2
:1014B000334A490802EB0141A26841EA821108431C
:1014C000217C40EA0160217D40EA0171C9F80010E9
:1014D00001203866FFF7DCFB044606E045E000BF6C
:1014E000FFF7D6FB001B022809D828688001F7D532
:1014F0003BE000BFFFF7CCFB001B022802D9032012
:10150000BDE8F88F28688001F4D42EE00128F7D0D8
:10151000D9F80000E26900F48001914223D1226AE7
:1015200000F03F0191421ED147F6C071626A01404E
:10153000B1EB821F17D1A26A4FF0FF3300F44031A4
:1015400003EB5202B1EB024F0DD194F82C2000F0C6
:101550007061B1EB026F06D194F8301000F0E040FA
:10156000B0EB017F01D00120CAE70020C8E70000EE
:101570000438024000004742800E4742007000409D
:101580000000FFFF0068503040F821207047000045
:1015900010B5040002D0607F10B106E0012010BD3C
:1015A00000202077204600F041F802206077206874
:1015B000C168C943C90632D5CA2141622168532096
:1015C0004862204600F08CFD20BB20688168164AE6
:1015D000114081602168886862681043D4E904235F
:1015E0001A43104388602168E06808612068016937
:1015F000228941EA02410161204600F095FD48B987
:1016000021680A6C22F480220A6421680A6CA369AA
:101610001A430A642268FF21516208B110BD0020FC
:101620000121617710BD0000BFFF8FFF10B590B0A2
:1016300004463C216846FEF72BFE09492068884293
:101640000CD108200090800107906846FFF7C0FB8E
:1016500008B1FFF709F803490120086010B010BD78
:10166000002800403C0E474270B504460B482168F4
:10167000C860FFF70DFB05464FF47A7607E000BF20
:10168000FFF706FB401BB04201D9032070BD206864
:10169000C0688006F4D5002070BD00005F3F0100E7
:1016A00010B5401EB0F1807F01D3012010BD4FF076
:1016B000E02460610F21601701F0A2FA0020A06110
:1016C00007202061002010BD7047704770B590F86A
:1016D0003C20012A32D0012480F83C40022280F8CC
:1016E0003D2003685A689D6822F070060A683243FC
:1016F0005A60134B02689A4214D0B2F1804F11D055
:10170000104B9A420ED0104B9A420BD00F4B9A427C
:1017100008D00F4B9A4205D00E4B9A4202D00E4B86
:101720009A4204D1496825F080031943916080F8FA
:101730003D40002180F83C10084670BD022070BD7D
:10174000000001400004004000080040000C004080
:1017500000040140004001400018004010B50400A2
:1017600003D094F83D0010B107E0012010BD002027
:1017700084F83C00204600F01FF8022084F83D0069
:10178000211D206800F038FF012084F8460084F80D
:101790003E0084F83F0084F8400084F8410084F85B
:1017A000420084F8430084F8440084F8450084F83B
:1017B0003D00002010BD000008B501681448B1F1DB
:1017C000804F14D0134A914220D1016841F00201A8
:1017D00001600068002200F00200009011461D2008
:1017E000FFF7C4FA1D20BDE80840FFF7B1BA016851
:1017F00041F0010101600068002200F0010000904A
:1018000011461C20FFF7B2FA1C20ECE708BD0000CF
:10181000403802400004004090F83D10012901D0FA
:1018200001207047022180F83D100168CA6842F02B
:101830000102CA6000681149884214D0B0F1804F9B
:1018400011D00F4988420ED00E4988420BD00E4964
:10185000884208D00D49884205D00D49884202D0FF
:101860000C49884204D1816801F00701062903D0A0
:10187000016841F001010160002070470000014053
:101880000004004000080040000C0040000401403B
:10189000004001400018004070B5044690F83C003C
:1018A0000025012817D0012684F83C60022084F826
:1018B0003D002068826822F0770222F47F42826035
:1018C0000868502838D00DDC20284FD005DC90B3B4
:1018D000102811D14AE0022070BD302846D040289F
:1018E0000AD13BE060282FD070280DD0B0F5805F82
:1018F00003D0B0F5005F12D0012584F83D600020D0
:1019000084F83C00284670BDCB68D1E901212068ED
:1019100000F0DEFE2068816841F0770109E0CB68C5
:10192000D1E90121206800F0D3FE2068816841F4EC
:1019300080418160E1E719E0CA684968206800F0E9
:10194000D9FE5021206806E0CA684968206800F086
:10195000E2FE6021206800F0C5FECEE7CA68496853
:10196000206800F0C7FE40212068F4E722680146A5
:101970001046F0E770472DE9F04104460068C6685C
:1019800005694FF00007A90713D5B10711D5F91E56
:10199000016101202077206880698007204602D0FD
:1019A000FFF7E8FF04E000F07EF8204600F07CF846
:1019B0002777680716D5700714D521686FF00400E3
:1019C0000861022020772068806910F4407F20465B
:1019D00002D0FFF7CFFF04E000F065F8204600F0EA
:1019E00063F82777280715D5300713D521686FF0DE
:1019F00008000861042020772068C069800720461D
:101A000002D0FFF7B7FF04E000F04DF8204600F0E9
:101A10004BF82777E80616D5F00614D521686FF045
:101A200010000861082020772068C06910F4407F0A
:101A3000204602D0FFF79EFF04E000F034F8204675
:101A400000F032F82777E80708D0F00706D02168C1
:101A50006FF001000861204600F028F8280608D53C
:101A6000300606D521686FF0800008612046FFF738
:101A70002BFE680608D5700606D521686FF0400079
:101A80000861204600F020F8A8060AD5B00608D55F
:101A900021686FF0200008612046BDE8F041FFF7A3
:101AA00014BEBDE8F0817047704700000068B0F1D7
:101AB000804F04D00349884203D100F095BD00F067
:101AC00075BD7047000400407047704770470000C4
:101AD000F8B5016804460868CA684B6910F00F0F32
:101AE0004FF0000559D003F0010602F49077374318
:101AF00065D0C10705D0D10503D5616C41F0010166
:101B00006164410705D5D90703D0616C41F002013A
:101B10006164810705D5D90703D0616C41F00401E8
:101B20006164010707D502F02001314303D0616CE5
:101B300041F008016164616C00293AD0800604D547
:101B4000900602D5204600F034FE20684069616CA2
:101B5000C0F38010090700D460B3204600F002FEF5
:101B600020684069400621D52068143050E8001FE5
:101B700021F0400140E80012002AF5D1E06BA8B145
:101B80006E490165E06BFEF7DBFE002811D0E06BCB
:101B9000016D01B0BDE8F040084783060FD59306FC
:101BA0000DD52046BDE8F84000F003BE2046FFF703
:101BB0008DFFF8BD2046FFF789FF6564F8BD266BF1
:101BC0002023012E7DD1C6067BD5D60679D508689F
:101BD0004868009048694FF00206400641D5E16B25
:101BE000086840680004000CE8D0A28D8242E5D964
:101BF000E085C869B0F5807F2DD020680C3050E8B2
:101C0000001F21F4807140E80012002AF5D12068FD
:101C1000143050E8001F21F0010140E80012002AB2
:101C2000F5D12068143050E8001F21F0400140E851
:101C30000012002AF5D184F84230256320680C3068
:101C400050E8001F21F0100140E80012002AF5D1F1
:101C5000E06BFEF72CFE6663A08DE18D401A81B229
:101C60002AE0A08DE18D401A81B2E08D0028A5D038
:101C70000029A3D022680C3252E8000F20F49070A3
:101C800042E80007002FF5D12068143050E8002FFB
:101C900022F0010240E80027002FF5D184F84230FD
:101CA000256320680C3050E8002F22F0100240E835
:101CB0000023002BF5D166632046FFF706FFF8BD31
:101CC000FFE705062BD5150629D594F841002128F4
:101CD000F5D1A068B0F5805F01D12069B0B1206A6C
:101CE000411C2162216800784860E08C401E00049D
:101CF000000CE084E3D12068C16821F08001C1605C
:101D00002068C16841F04001C160D8E7206A0088BE
:101D1000C0F308004860206A801C2062E5E74006A6
:101D2000CDD55006CBD5CA68204622F04002CA6005
:101D300084F8413000F075F8C1E70000552700082D
:101D400070B5040004D094F84100002510B106E0FD
:101D5000012070BD84F84050204600F023F8242074
:101D600084F841002068C16821F40051C160204618
:101D700000F080FD2068016921F490410161206834
:101D8000416921F02A0141612068C16841F4005194
:101D9000C1606564202084F8410084F842006563D6
:101DA000002070BD10B586B0044614216846FEF7C9
:101DB0006FFA18492068884229D117480021026823
:101DC00042F010020260006800F010000590124816
:101DD0001438026842F001020260006800F001005D
:101DE00005904FF4C06000900220CDE9010103206E
:101DF00003900720049069460848FEF76FFE002212
:101E000011462520FEF7B2FF2520FEF7A1FF06B000
:101E100010BD0000001001404438024000000240A4
:101E200070477047FEE700002DE9F041184B0C4663
:101E30000025597861B1174E7768B7F57A7F07DBCF
:101E40007560F02904D09969491E996102211170C9
:101E50002168002907D00078312806D0322810D018
:101E6000F02058702560BDE8F0810B4858610B48A0
:101E700058600B48D8600B489860042010700AA086
:101E800002E0012010700DA000F01DF9EAE700004B
:101E9000E80000202C020020000002083B07000898
:101EA0009D08000839070008310D0AC7EBD1A1D4FD
:101EB000F1D2AAB7A2CBCDCEC4BCFE00320D0AD45B
:101EC000CBD0D0B3CCD0F22E2E2E00000BA000F041
:101ED000FAF80120FEF746FD0C4A00210C48FFF7F6
:101EE00051FBBFF34F8F0B4801680B4A01F4E061CF
:101EF00011430160BFF34F8F00BFFDE7676F746F41
:101F000020417070202121210D0A000078563412E2
:101F1000140100200CED00E00400FA05074910B59B
:101F20000868074A1040B0F1005F00D0FEE748683B
:101F3000096881F308888047012010BD000002086D
:101F40000000FC2F094808B5016841F080010160DC
:101F5000016801F080010091016841F00101016018
:101F6000006800F00100009008BD00003038024019
:101F70000B4810B50949016000217F22C0E9011218
:101F8000FF22C0E9032141618161FFF701FB0028C5
:101F900003D0BDE81040FEF767BB10BD002800402D
:101FA0001401002010B586B0002417480094019455
:101FB0000294039404944FF080410594016041F22F
:101FC0008831C0E901140A21C0E903148461FFF7D4
:101FD000C5FB08B1FEF748FB4FF4805000906946FE
:101FE0000948FFF759FC08B1FEF73EFB049404A929
:101FF00005480594FFF76AFB08B1FEF735FB024878
:10200000FFF70AFC06B010BD3401002010B586B001
:1020100000241848009401940294039404941449F1
:102020000594016041F28831C0E901140A21C0E938
:1020300003148461FFF792FB08B1FEF715FB4FF420
:102040008050009069460B48FFF726FC08B1FEF768
:102050000BFB049404A907480594FFF737FB08B16C
:10206000FEF702FB0348FFF7D7FB06B010BD0000E8
:10207000000400407C01002010B5104C0E480C21DB
:1020800020604FF4E13060600020A060E060C4E9AF
:102090000401A061E0612046FFF752FE08B1FEF79F
:1020A000E3FA2068C16841F02001C1602068C1687E
:1020B00041F40051C16010BD00100140C401002076
:1020C000FEE7FEE7704770B50546FEF7F8F884B204
:1020D00021462846FEF7A8F90128F9D170BD000075
:1020E0002DE9F041044600680025C168490618D46E
:1020F000C16841F08001C160FEF7CAFD06464FF499
:102100007A78042707E000BFFEF7C2FD801B404538
:1021100001D9677701252068C068400601D4002DE9
:10212000F2D02846BDE8F08170B50446006800256D
:10213000C16821F08001C16020688068800606D4F3
:102140002046FFF791FA10B1042060770125284658
:1021500070BD0000074A9188B1F5836F09D21168FC
:10216000002906D191885318491C91809871FEF777
:102170003BB9704760060020F0B5ADF20C4D0F463C
:102180000446164640F204416846FEF781F80025F1
:10219000CDF804543968642902D920A000F020FD4C
:1021A0000DF204436A4639462046CDF8045400F047
:1021B0003BFC224CB0F1FF3F20D001280CD002287C
:1021C00007D11FA0396800F00BFD6068002800D01F
:1021D00080470DF20C4DF0BD25A0396800F000FDE0
:1021E000E3682BB1DDF80404616982B26846984760
:1021F0006069DDF8041408446061EAE728A03968E2
:1022000000F0EEFCA06800B180476560E560012049
:10221000A56030702DA0FFF756FFDAE752656365C1
:1022200069766544617461203D3D3E20704C656E69
:10223000203A202564202121210D0A00E8000020F9
:102240005265636569766544617461203D3D3E2059
:10225000594D5F46494C455F494E464F2020704CD2
:10226000656E203A202564202121210D0A000000FE
:102270005265636569766544617461203D3D3E2029
:10228000594D5F46494C455F444154412020704CB4
:10229000656E203A202564202121210D0A000000CE
:1022A0005265636569766544617461203D3D3E20F9
:1022B000594D5F455849542020704C656E203A2096
:1022C0002564202121210D0A000000000D0AD4CB35
:1022D000D0D0B3CCD0F22E2E2E0000002DE9F04746
:1022E0000E4692460178089A994601290BD0022998
:1022F0000BD0042917D0032915D018290DD04FF081
:10230000FF30BDE8F087802401E04FF4806441781D
:1023100091420AD06FF00100F3E74078182802D00C
:102320006FF00500EDE70020EBE78178D243D2B2F1
:10233000914202D06FF00200E3E7611D8E4202D0AD
:102340006FF00300DDE7C31C2246002141F22107A4
:102350004FF6FF7C13E000BF13F8015B81EA052113
:102360005FF008055FEA014803D587EA410189B2B9
:1023700001E00CEA41016D1E2D042D0CF2D1521E1C
:1023800092B2E9D2821932F8022C52BA8A4202D0B1
:102390006FF00400B5E7C11C22465046FDF75FFF11
:1023A0000120C9F80040ACE71B49884231D31B49E2
:1023B000884201D2012070471949884201D2022087
:1023C00070471849884201D2032070471649884255
:1023D00001D2042070471549884201D20520704778
:1023E0001349884201D2062070471249884201D21F
:1023F000072070471049884201D2082070470F49D2
:10240000884201D2092070470D49884201D20A2032
:10241000704700207047000000400008008000085E
:1024200000C00008000001080000020800000408C5
:10243000000006080000080800000A0800000C0858
:1024400000000E082DE9F04F87B04FF00008174646
:102450000E460446CDF81480B0F1006F38D3A007C3
:1024600036D1FEF725FB1C48254604EB87074CF2C6
:102470005039844215D24FF0010A4FF0020BBD4291
:102480000FD22868401C11D02846CDF80080FFF7F5
:102490008BFF02AA05A982E8010C6846FEF774FAD0
:1024A00028B14846FEF7D2F970B10FE02D1D48461D
:1024B000FEF7CCF9E3E70023214602203268FEF75D
:1024C000B9FA18B9241D361DBC42F4D3FEF7A8FA98
:1024D00007B0BDE8F08F00000000FF1F7047FEF757
:1024E000DDBB000030B593B034216846FDF7D0FE67
:1024F00014210DA8FDF7CCFE1E480025016841F00F
:1025000080510160006800F0805012901A48016804
:1025100041F4404101600068022400F44040129000
:10252000092000904FF48030CDE901050120CDE96C
:10253000050480050790082008906420CDE909046F
:102540000B9468460C94FEF75DFE08B172B6FEE788
:102550000DA90F2081E831004FF48050CDE910051E
:1025600001210DA8FEF764FD002801D072B6FEE738
:1025700013B030BD4038024000700040024801688E
:1025800041F470010160704788ED00E00648006882
:10259000C168C943C90702D00348FFF7ECB96FF01F
:1025A0000101016100F002B834010020054900205A
:1025B00051F82020521C41F82020401C80B20528F0
:1025C000F6D370472C02002006480068C168C94352
:1025D000C90702D00348FFF7CEB96FF001010161CE
:1025E00000F002B87C01002002480068002800D0FA
:1025F00000477047D8000020F0B50268294C2A4DEA
:102600002A4E2B4F2B4B4FF0804CA04209D06045F7
:1026100007D0A84205D0B04203D0B84201D09842BA
:1026200004D122F0700E4A6842EA0E02A0421BD08A
:10263000604519D0A84217D0B04215D0B84213D087
:10264000984211D01C4DA8420ED01C4DA8420BD070
:102650001B4DA84208D01B4DA84205D01A4DA842D8
:1026600002D01A4DA84203D122F44075CA682A4309
:102670004D6922F080022A4302608A68C2620A68B9
:102680008262A04201D0984201D10969016301210F
:1026900041610169C90703D0016921F001010161AC
:1026A000F0BD0000000001400004004000080040B0
:1026B000000C004000040140004001400044014083
:1026C0000048014000180040001C0040002000406D
:1026D00010B5846842EA032224F47F440A4322436B
:1026E000826010BD826822F070020A4342F0070146
:1026F0008160704710B5036A046A24F00104046223
:10270000846924F0F00444EA021423F00A020A4324
:102710008461026210BD10B5036A046A24F01004DB
:102720000462846923F0A00324F4704444EA023272
:1027300043EA01118261016210BD000010B5FDF78E
:1027400037FE0348818801600021818010BD0000B0
:102750006006002010B5806B0021C185C184FFF7A1
:10276000B5F910BD01680C3151E8002F22F49072C8
:1027700041E80023002BF5D10168143151E8002F06
:1027800022F0010241E80023002BF5D1016B012961
:1027900009D101680C3151E8002F22F0100241E804
:1027A0000023002BF5D1202180F842100021016385
:1027B000704708B590F84210222901D0022008BDC8
:1027C00082684FF480539A4201D1016921B1816A34
:1027D0009A421BD04AB10AE00268816A5268C2F389
:1027E00008020A80816A891C08E0026972B10268E5
:1027F000526802F07F020A70816A491C8162C18DB1
:10280000491E0904090CC18503D01BE00268526807
:10281000F1E70168CA6822F02002CA600168CA684C
:1028200022F48072CA6001684A6922F001024A619A
:10283000202180F8421000214163026B012A03D05D
:10284000FFF7EEFA002008BD016301680C3151E882
:10285000002F22F0100241E80023002BF5D101687F
:102860000A68D20602D50A6849680091818DFFF78F
:102870002CF9E7E770B5044600680169E26821F4C5
:102880004051114301612169A068E269084361690F
:10289000114308432168CA6849F20C639A43024312
:1028A000CA6020684169A26921F440711143416105
:1028B00031492068884202D03049884202D1FEF76F
:1028C00061FC01E0FEF74EFCE2690023192164255A
:1028D0003226B2F5004F626828D0A0FB0101930FA9
:1028E0009200FDF78BFC0146B0FBF5F06FF018028B
:1028F000504301EB800006EB0010B0FBF5F000F058
:10290000F002B1FBF5F002EB0012B1FBF5F06FF055
:102910001803584301EB800006EB0010B0FBF5F004
:1029200000F00F0021681044886070BDA0FB010119
:1029300092185B41FDF762FC0146B0FBF5F0020125
:10294000B1FBF5F06FF01803584301EB800006EB84
:10295000C000B0FBF5F000F0F80002EB4002B1FB64
:10296000F5F0584301EB800006EBC000B0FBF5F03A
:1029700000F00700D6E700000010014000140140FD
:1029800010B500F007F8BDE810400148FFF7A0B807
:10299000C4010020204930B40B6818681F4AC043A6
:1029A0000406906815D4046854B18388851D5C1CA6
:1029B00084801B4C5B5D236003685B1E036008E042
:1029C0005C6924F080045C610B685C6924F040045D
:1029D0005C610B681C68E44364060BD46FF0400430
:1029E0001C600B685C6924F040045C610023036098
:1029F0000120107009680868C04380060AD448683E
:102A00004B69C0B223F020034B615168002901D00B
:102A100030BC084730BC7047C4010020DC000020F7
:102A200004480040FEE700002DE9F84F604C0F46D7
:102A3000002694F800C093465E494FF0040A4FF018
:102A4000010941F270723546BCF1050F0DD2DFE885
:102A50000CF0030D495899006560A560657084F815
:102A600000900869002873DB0D6171E088460969F0
:102A7000914209DBC8F810504D4A4D4908324320B5
:102A800000F09AF8257063E03968002960D0227957
:102A900000925A46FFF722FC10F0FF003D600FD075
:102AA000012819D19BF8030038B102202070064696
:102AB0006068401C6060657044E084F800A041E0FC
:102AC000607828B13A4A3A4908320620656056E0F3
:102AD0006078401C607035E0354A657008323449D2
:102AE00015202DE00320324A20700832304906209C
:102AF00000F062F82E4A2E490832432000F05CF8BC
:102B000026E088460969914204DBC8F8105084F831
:102B100000A01DE03968D9B1227900925A46FFF72A
:102B2000DDFB10F0FF003D6015D00128D4D16068B6
:102B30001F4A401C60600126657008321C4906204F
:102B400000F03AF8D8F810104046002900DB056183
:102B50003046BDE8F88F607868B1154A656084F842
:102B6000009008321249062000F026F8104A104959
:102B70000832432003E00E4A0D490832152000F0C8
:102B80001BF8A5E70A4A0A490832062000F014F8A3
:102B9000074A07490832182000F00EF8044A044991
:102BA0000832182000F008F84FF0FF366AE70000FE
:102BB000040100202C02002037B51446012168468C
:102BC000FDF732FC0128F9D19DF80000062805D058
:102BD000152802D12068401C20603EBD0020FBE784
:102BE0000FB4054B10B503A9044A029800F028F869
:102BF00010BC5DF814FB0000F92D00081001002046
:102C00000907090E002804DB00F1E02080F8001419
:102C1000704700F00F0000F1E02080F8141D7047AD
:102C200002E008C8121F08C1002AFAD17047704795
:102C3000002001E001C1121F002AFBD170470000F3
:102C40002DE9FF4F8BB09A460F460546002606E059
:102C500025280BD052460D9990476D1C761C28787C
:102C60000028F5D10FB03046BDE8F08F0024A04613
:102C70000122604900E0044315F8013F203B02FABD
:102C800003F00842F7D128782E2817D115F8010F44
:102C900044F004042A280ED06FF02F022878A0F107
:102CA000300109290AD808EB880102EB410100EB49
:102CB00001086D1CF2E757F8048B6D1C2878692811
:102CC0003ED006DC0028CDD063280BD0642804D188
:102CD00036E0732810D075284BD052460D99904796
:102CE000761C85E017F8040B8DF8000000208DF8A5
:102CF0000100E946012003E057F8049B4FF0FF3044
:102D000061074FF0000401D40AE0641C44450DDA69
:102D10008442FADB19F804100029F6D106E0641C9D
:102D20008442FCDB19F804100029F8D1264404E0A1
:102D300019F8010B52460D999047641EF8D257E0DE
:102D400001CF4FF00A0B002802DA40422D2102E0A9
:102D5000210504D52B218DF82410012103E0E10782
:102D600005D02021F7E70DF1200908910CE00021A2
:102D7000F9E701CF4FF00A0BF9E75946FDF7AFFA33
:102D800001F1300209F8012D0028F6D1ADEB090060
:102D900000F1200B600701D44FF00108D84502DD97
:102DA000A8EB0B0000E000208046002406E009A804
:102DB0005246005D0D999047641C761C0898844229
:102DC000F5DB04E0302052460D999047761CB8F1AF
:102DD0000001A8F10108F5DC05E019F8010B5246E5
:102DE0000D999047761CBBF10001ABF1010BF4DCAF
:102DF0006D1C34E70928010003490A681206FCD556
:102E0000C2B24A60704700000010014001201070FB
:102E10007047000008B5224908680024A8B121487D
:102E2000026842F080520260006800F0805000901A
:102E30001D48026842F4807202600268D205FCD527
:102E40000C601A480460FFF769F8FDF72FFFFFF7E1
:102E500049FBFFF777F8FFF7A5F8FFF7D7F8FFF77B
:102E60000BF9FFF785F8FDF727FB1149002000BF9C
:102E700041F82040401C0528FADB0EA0FFF7B0FE09
:102E8000174918A0FFF7ACFE154916A06431FFF7EB
:102E9000A7FE15A0FFF7A4FEFDF7D8FAFCE7000097
:102EA0005028004040380240007000403C0E47422D
:102EB0002C0200200D0A626F6F74207665727369B0
:102EC0006F6E2A2A2A2A2A2A2A2A2A2A2A2A2A2AD9
:102ED0002A2A2A2A2A2A2A2A2A2020200D0A000001
:102EE00000000020257300000D0A2A2A2A2A2A2A17
:102EF0002A2A2A2A2A2A2A2A2A2A2A2A2A2A2A2A32
:102F00002A2A2A2A2A2A2A2A2A2A2A2A2A2020203F
:102F10000D0A0000704700000000000000000102E0
:102F20000304060708090000000001020304000072
:102F3000502F00080000002014010000202C000881
:102F400064300008140100206C090100302C0008D6
:102F50004E6F7620203120323032340000000000E5
:102F60000000000000000000000000000000000061
:102F70000000000000000000000000000000000051
:102F80000000000000000000000000000000000041
:102F90000000000000000000000000000000000031
:102FA0000000000000000000000000000000000021
:102FB0000000000031353A33393A3030000000006B
:102FC0000000000000000000000000000000000001
:102FD00000000000000000000000000000000000F1
:102FE00000000000000000000000000000000000E1
:102FF00000000000000000000000000000000000D1
:1030000000000000000000000000000000000000C0
:10301000000000000000000001000000100000009F
:10302000000000000024F400000000000100000087
:10303000000000004002002000000000000000002E
:103040000000000000000000000000000000020876
:103050000000000000000000000000000000000070
:04306000000000006C
:04000005080001C529
:00000001FF
