:020000040800F2
:10000000200400209D0100084D0B0008E7090008AE
:10001000710A0008870200083B1600080000000073
:100020000000000000000000000000003711000880
:100030008B02000800000000590F00088D12000814
:10004000B7010008B7010008B7010008B7010008B0
:10005000B7010008B70100088D020008B7010008C9
:10006000B7010008FD020008B7010008B701000849
:10007000B7010008B7010008B7010008B701000880
:10008000B7010008B7010008B7010008B701000870
:10009000B7010008B7010008B7010008B701000860
:1000A000B7010008B7010008B7010008B701000850
:1000B000B7010008B7010008B7010008B701000840
:1000C000B7010008B7010008B7010008B701000830
:1000D000B701000881130008B7010008B701000844
:1000E000B7010008B7010008B7010008B701000810
:1000F000B7010008B7010008B7010008B701000800
:10010000B7010008B7010008B7010008B7010008EF
:10011000B7010008B7010008B7010008B7010008DF
:10012000B7010008B7010008B7010008B7010008CF
:10013000B7010008B7010008B7010008B7010008BF
:10014000B7010008B7010008B7010008B7010008AF
:10015000B7010008B7010008B7010008B70100089F
:10016000B7010008B7010008B7010008B70100088F
:10017000B7010008B7010008B7010008B70100087F
:10018000B7010008B7010008DFF80CD000F04AF80A
:1001900000480047C51B000820040020064880478F
:1001A00006480047FEE7FEE7FEE7FEE7FEE7FEE75C
:1001B000FEE7FEE7FEE7FEE7CD1200088901000832
:1001C0002DE9F05F0546002092469B46884606468C
:1001D000814640241BE0284641464746224600F01F
:1001E00042F853465A46C01A914110D31146184658
:1001F000224600F029F82D1A67EB01084F462246E7
:100200000120002100F020F817EB00094E41201ECC
:10021000A4F10104DFDC484631462A464346BDE8E6
:10022000F09F0000064C074D06E0E06840F0010337
:1002300094E8070098471034AC42F6D3FFF7A8FFC4
:10024000D8210008F8210008202A04DB203A00FA0F
:1002500002F1002070479140C2F1200320FA03F31D
:10026000194390407047202A04DB203A21FA02F01B
:100270000021704721FA02F3D040C2F120029140E0
:1002800008431946704700BFFEE7704710B50120CC
:1002900000F072F8012823D10A2001F02BFC12484B
:1002A000006801281CD1002010490860642001F07A
:1002B00021FC01200E49C1F8A8020E4800680E4931
:1002C000096888420CD000F089FC0A480068403870
:1002D00008490860084601210268084600F0FCFD54
:1002E000012000F043F810BD00024042A8824242C3
:1002F00000804242040000200000002010B50820C9
:1003000000F03AF8012822D10A2001F0F3FB12484C
:100310000068E0B9002011490860642001F0EAFBA0
:1003200001200F49C1F8A8020E4800680E4909686B
:1003300088420CD000F052FC0A480068403009495D
:100340000860084601210268084600F0C5FD082043
:1003500000F00CF810BD00000C024242A88242429C
:10036000008042420400002008000020014908608B
:1003700070470000143C014001460020034A126807
:100380000A400AB1012000E000207047143C0140FF
:10039000002123498279002A3AD00A46126803686C
:1003A0009A430B461A600A1D126803689A430B1D94
:1003B0001A60027911440A6803681A430A60184AED
:1003C0000832126803689A43154B08331A601A1DE5
:1003D000126803689A43124B0C331A604279102A50
:1003E0000ED11A1F126803681A430D4B08331A60A6
:1003F0001A1D126803681A43094B0C331A600DE08A
:100400000749427911440A6803681A430A6005E003
:10041000027911440A6803689A430A607047000031
:10042000003C014070B58EB0F02600244FF480658A
:100430001BA20121032000F03BFD2CE0012205F16D
:1004400008010DA800F052FA9DF834609DF83400C0
:10045000B0421FD1601C84B205F5806500200D906C
:10046000E11704EB5161C911A4EBC11149B922464E
:100470000FA1684601F0E4F86A460121032000F06C
:1004800017FDB5F5801F06D90DA20721042000F045
:100490000FFD01E000E0D1E700BF0EB070BD00002D
:1004A00045785352414D4361703A20304B42000031
:1004B00045785352414D4361703A25644B420000E8
:1004C0006F6B210051B18200A2F1C042126842F06C
:1004D00001038200A2F1C042136009E08200A2F190
:1004E000C0421268034B1A408300A3F1C0431A6054
:1004F00070470000FEFF0F0030B5002100220023EE
:100500000468A400A4F1C0442168444C2140D0E90F
:1005100001452C43C5682C4305692C4345692C4390
:1005200085692C43C5692C43056A2C43456A2C43D5
:10053000856A2C43C56A2C43056B2C432143046810
:10054000A400A4F1C04421608468082C0BD1046885
:10055000A400A4F1C044246844F040050468A40049
:10056000A4F1C04425600468641CA400A4F1C04444
:10057000226802F04042446B2468456B6D6844EA8F
:100580000514456BAD6844EA0524456BAD8944EA22
:100590000544456B2D8A44EA0554456B2D7D44EA9C
:1005A0000564456BAD692C4322430468641CA400B8
:1005B000A4F1C0442260C46AB4F5804F24D1046819
:1005C000A400A4F1C044D4F8043103F04043846B88
:1005D0002468856B6D6844EA0514856BAD6844EA50
:1005E0000524856B2D8A44EA0554856B2D7D44EAEC
:1005F0000564856BAD692C4323430468A400A4F112
:10060000C044C4F8043107E06FF070450468A400EA
:10061000A4F1C044C4F8045130BD00008000F7FFCD
:1006200000B599B001217A2000F098FC012108461C
:1006300000F0B4FC0C220021A74800F0AAF90C221B
:100640000121A54800F0A5F90C220421A24800F0E0
:10065000A0F90C220521A04800F09BF90C220821EA
:100660009D4800F096F90C2209219B4800F091F971
:100670000C220A21984800F08CF90C220B21964894
:1006800000F087F90C221146934800F082F90C2201
:100690000D21914800F07DF90C220E218E4800F0CA
:1006A00078F90C220F218C4800F073F90C220021FC
:1006B0008A4800F06EF90C220121884800F069F99F
:1006C0000C220721854800F064F90C220821834898
:1006D00000F05FF90C220921804800F05AF90C2241
:1006E0000A217E4800F055F90C220B217B4800F0CE
:1006F00050F90C221146794800F04BF90C220D21DB
:10070000764800F046F90C220E21744800F041F9B9
:100710000C220F21714800F03CF90C220021704896
:1007200000F037F90C2201216D4800F032F90C225B
:1007300002216B4800F02DF90C220321684800F0DB
:1007400028F90C220421664800F023F90C22052127
:10075000634800F01EF90C221146614800F019F9B7
:100760000C220D215E4800F014F90C220E215C4889
:1007700000F00FF90C220F21594800F00AF90C2261
:100780000021584800F005F90C220121554800F0DD
:1007900000F90C220221534800F0FBF80C2203213F
:1007A000504800F0F6F80C2204214E4800F0F1F811
:1007B0000C2205214B4800F0ECF80C220A21494894
:1007C00000F0E7F84FF40040179001208DF860002A
:1007D00000208DF8620002208DF8610001208DF864
:1007E000630017A9404800F08CF84FF6337017905B
:1007F00002208DF8600000208DF8620003208DF843
:10080000610001208DF8630017A9334800F079F8E2
:100810004FF68370179002208DF8600000208DF84D
:10082000620003208DF8610001208DF8630017A994
:100830002A4800F066F84FF23F00179002208DF82A
:10084000600000208DF8620003208DF86100012017
:100850008DF8630017A9224800F053F840F23F409A
:10086000179002208DF8600000208DF862000320B0
:100870008DF8610001208DF8630017A9194800F078
:1008800040F800200190029018200390002004906E
:1008900005900690079004200890002009900A9087
:1008A00010200B9000200C900E900D900F90109047
:1008B0004FF480501190002012901390149001A8D2
:1008C0001590169008A8FFF717FE01210420FFF7E6
:1008D000F9FD19B000BD0000000C024000100240FC
:1008E00000140240001802400004024006E04FF0ED
:1008F000D0435B5C00F8013B491C521E002AF6D134
:100900007047F0B50A4600210023002400BF3DE0F7
:10091000012505FA01F3156805EA03049C4234D168
:1009200005684F000326BE40B543056015794E00AB
:10093000B5400668354305601579012D02D015795B
:10094000022D16D185684F000326BE40B543856051
:1009500055794E00B5408668354385604568012667
:100960008E40B5434560456896798E40B6B23543B2
:100970004560C5684F000326BE40B543C560D579C4
:100980004E00B540C6683543C560491C1029BFD329
:10099000F0BDF0B5002300244D07ED0E02FA05F37B
:1009A000CE1000F1200555F826504E07F70E0F2601
:1009B000BE40B543CF1000F1200646F82750CE10B8
:1009C00000F1200555F8265045EA0304CE1000F149
:1009D000200545F82640F0BD018370470AB1018328
:1009E00000E04183704700BFFEE700001CB5012115
:1009F000112000F0B3FA00208DF804001C200090B4
:100A000001208DF8070069460748FFF77AFF0020AC
:100A10008DF804000120009002208DF8070069463F
:100A20000248FFF76EFF1CBD0010024000000240AC
:100A30001CB50121202000F091FA01208DF804005E
:100A40004FF4C060009003208DF8050000208DF861
:100A5000060001208DF8070069460448FFF751FFA2
:100A60004FF4C0610148FFF7B7FF1CBD00140240FE
:100A700000BFFEE70EB50121880300F09FFA0021B8
:100A8000084600F059FB0221042000F055FB032129
:100A9000042000F051FB0421084600F04DFB062025
:100AA0008DF8080002208DF8090003208DF80A0057
:100AB00001208DF80B0002A800F04AF808208DF8FC
:100AC000080002208DF809008DF80A0001208DF839
:100AD0000B0002A800F03CF809208DF80800022065
:100AE0008DF8090001208DF80A008DF80B0002A88E
:100AF00000F02EF80A208DF8080002208DF8090079
:100B000000208DF80A0001208DF80B0002A800F0EB
:100B10001FF80120009000208DF8040008208DF8B7
:100B2000050001208DF806006846FFF731FC1C2007
:100B3000009000208DF804000C208DF805000120A5
:100B40008DF806006846FFF723FC0EBD70470000D5
:100B500070B5002100230F22C4781CB3174C246801
:100B600004F4E064C4F5E064C4F30721C1F10404B3
:100B7000E3B20A4144789C40E1B2847814402143B6
:100B80000C07210E0E4C05786155047804F01F0502
:100B90000124AC4005786D11AD0005F1E025C5F8E4
:100BA000004109E0047804F01F050124AC40054D24
:100BB0000678761145F8264070BD00000CED00E087
:100BC00000E400E080E100E002490143024A1160D4
:100BD000704700000000FA050CED00E070B500243D
:100BE0000EE00021204600F018F9002504E0002066
:100BF00000F0A2F9681CC5B2802DF8DB601CC4B2FD
:100C0000082CEEDB70BD00007CB5002406E000255A
:100C100000E06D1CB5F57A7FFBD3641CB4F57A7FD8
:100C2000F5D30121022000F099F901208DF804008C
:100C300000208DF8060002208DF80500C00100900C
:100C400069460A48FFF75DFE4FF400700090694660
:100C50000648FFF756FE012211020448FFF7BEFEC8
:100C6000012251020148FFF7B9FE7CBD0004024099
:100C700070B5054600241EE08020204100EA0502F0
:100C80004FF400711648FFF7A9FE012000F074FF31
:100C9000012211021248FFF7A1FE012000F06CFFB3
:100CA00000224FF480710E48FFF798FE012000F0FB
:100CB00063FF601CC4B2082CDEDB0122110208486D
:100CC000FFF78CFE012000F057FF00224FF48071E7
:100CD0000348FFF783FE012000F04EFF70BD0000C7
:100CE0000004024010B5012251021048FFF776FEC1
:100CF000012000F041FF012211020C48FFF76EFEB7
:100D0000012000F039FF00224FF400710748FFF77F
:100D100065FE012000F030FF00224FF4807103488F
:100D2000FFF75CFE012000F027FF10BD0004024029
:100D300010B500224FF400710B48FFF74FFE012061
:100D400000F01AFF012211020748FFF747FE0120B9
:100D500000F012FF012251020348FFF73FFE01207D
:100D600000F00AFF10BD00000004024070B500242E
:100D700006E0002500E06D1CB5F57A7FFBD3641C0E
:100D8000B4F57A7FF5D3FFF73FFFAE2000F0C4F84B
:100D9000D52000F0C1F8802000F0BEF8A82000F0B7
:100DA000BBF83F2000F0B8F8D32000F0B5F80020E1
:100DB00000F0B2F8402000F0AFF8A12000F0ACF84D
:100DC000C82000F0A9F8DA2000F0A6F8122000F000
:100DD000A3F8812000F0A0F8CF2000F09DF8D920E2
:100DE00000F09AF8F12000F097F8DB2000F094F87A
:100DF000302000F091F8A42000F08EF8A62000F03A
:100E00008BF88D2000F088F8142000F085F8AF20D2
:100E100000F082F8FFF7E2FE70BD70B505460C46A3
:100E200045F0B00000F078F8102141EA141000F00D
:100E300073F804F00F0000F06FF870BD2DE9F04179
:100E400005460E461746721ED206110E6A1E52063F
:100E5000100EFFF7E2FF002409E0A7F12001134A7A
:100E600002EB0111085D00F067F8601CC4B2082CA9
:100E7000F3DB721ED206110E6A1E012303EB42023F
:100E8000D0B2FFF7CAFF00240BE0A7F12001074A08
:100E900002EB011204F10801505C00F04DF8601CF7
:100EA000C4B2082CF1DBBDE8F0810000E81B0008AB
:100EB0002DE9F04107460E461546002407E02A5D5D
:100EC0003019C1B23846FFF7B9FF601CC4B2285DC3
:100ED0000028F4D1BDE8F0812DE9F04104468846B0
:100EE0001546002613E00F2F06DD601CC4B2002754
:100EF000042C01DDBDE8F081AA5D08EB0700C1B25A
:100F00002046FFF79BFF781CC7B2701CC6B2A85DD5
:100F10000028E8D100BFEDE710B50446FFF7E2FE78
:100F20007820FFF7A5FE0020FFF7A2FE2046FFF77E
:100F30009FFEFFF7FDFE10BD10B50446FFF7D2FE81
:100F40007820FFF795FE4020FFF792FE2046FFF73E
:100F50008FFEFFF7EDFE10BD7047000029B1064A75
:100F600012680243044B1A6004E0034A1268824389
:100F7000014B1A60704700003038024029B1064A20
:100F800012680243044B1A6004E0034A1268824369
:100F9000014B1A60704700003438024029B1064AFC
:100FA00012680243044B1A6004E0034A1268824349
:100FB000014B1A60704700003838024029B1064AD8
:100FC00012680243044B1A6004E0034A1268824329
:100FD000014B1A607047000044380240F0B5002110
:100FE00000220024022500260223324F3F6807F02A
:100FF0000C0121B1042905D0082937D105E02E4F75
:10100000076036E02D4F076033E02A4F3F1F3F68EF
:10101000C7F38056274F3F1F3F6807F03F036EB16D
:10102000264FB7FBF3F7DFF88CC0ACF1040CDCF80B
:1010300000C0CCF3881C07FB0CF40CE01E4FB7FB80
:10104000F3F7DFF870C0ACF1040CDCF800C0CCF3AF
:10105000881C07FB0CF4174F3F1F3F68C7F301477D
:101060007F1C7D00B4FBF5F7076002E0124F0760BC
:1010700000BF00BF0F4F3F6807F0F0010909104F94
:101080007A5C0768D74047600A4F3F6807F4E05131
:10109000890A0B4F7A5C4768D7408760054F3F68E5
:1010A00007F46041490B064F7A5C4768D740C76038
:1010B000F0BD0000083802400024F40000127A005D
:1010C0000C00002030B10749096841F00401054ACD
:1010D000116005E00349096821F00401014A11602B
:1010E000704700000008065001460020034A1268BD
:1010F0000A400AB1012000E00020704704080650B1
:1011000010B501214020FFF739FF0120FFF7DAFF7A
:101110000AE0601C84B2642000F02EFD42F21070E0
:10112000844201DB012010BD0120FFF7DDFF002814
:10113000EFD00020F7E7704730B500228B071C0F77
:101140000F2303FA04F20B4B8C1053F82430934313
:10115000084C8D1044F8253023468C1053F8243069
:101160008C07240F00FA04F42343024C8D1044F83A
:10117000253030BD083801400CB5002001900090AA
:101180003448006840F480303249086000BF31487C
:10119000006800F4003000900198401C0190009815
:1011A00018B90198B0F5A04FF1D12A48006800F4B1
:1011B000003010B10120009001E000200090009864
:1011C000012846D123484030006840F08050214932
:1011D000403108602048006840F440401E490860E3
:1011E0001C48083000681B49083108600846006840
:1011F00040F4004008600846006840F4A0500860D1
:101200001648091F0860081F006840F08070091F19
:10121000086000BF0F48006800F000700028F9D097
:1012200040F205700E4908600A480830006820F056
:1012300003000849083108600846006840F00200D1
:10124000086000BF03480830006800F00C00082860
:10125000F8D10CBD0038024000700040085440072F
:10126000003C0240042808D14FF0E021096941F018
:1012700004014FF0E022116107E04FF0E02109691D
:1012800021F004014FF0E022116170477047000027
:1012900010B504466FF00400FFF7E4FFE11704EB1C
:1012A0005171C1F3C701074A11701046007800EB75
:1012B0004001C1EBC0104FF6FF7101EAC0000249C6
:1012C000088010BD1C0000201E00002010B515482D
:1012D000006840F47000134908601348006840F04B
:1012E00001001149086000200F49083108600E48CC
:1012F00000680E4908400C4908600D48091D086047
:10130000081F006820F48020091F0860002006499B
:101310000C310860FFF730FF4FF000600149803961
:10132000086010BD88ED00E000380240FFFFF6FEC7
:101330001030002410B5A820FFF7AAFF4FF4A060DA
:10134000FFF742FCFFF774FB4FF4612000F036F822
:10135000FFF74CFBFFF70AFDFFF78CFBFFF7D0FE12
:1013600004A205210120FFF7A3FDFFF759F9FFF7BC
:1013700059F810BD5352414D205055460000000011
:1013800010B540F225510C4800F094F870B10A48AD
:1013900000F04AF9C4B22146074800F04AF900BFFC
:1013A0004021054800F079F80128F9D14021024890
:1013B00000F05EF810BD00000010014010B588B0CC
:1013C000044601210846FFF7C9FD01211020FFF75F
:1013D000F5FD072209212448FFF7DBFA07220A213D
:1013E0002148FFF7D6FA4FF4C060069002208DF82E
:1013F0001C008DF81D0000208DF81E0001208DF8C6
:101400001F0006A91848FFF77CFA02940020ADF8E7
:101410000C00ADF80E00ADF81000ADF814000C2073
:10142000ADF8120002A9114800F094F801210F480C
:1014300000F027F840210D4800F01AF8012240F290
:1014400025510A4800F060F825208DF8040003209B
:101450008DF805008DF8060001208DF8070001A821
:10146000FFF776FB08B010BD0000024000100140FD
:1014700001F40072B2F5007F00D100BFCA430280C0
:10148000704721B1828942F40052828104E082894E
:101490004DF6FF731A408281704702460020B1F575
:1014A000007F00D100BF13880B400BB1012000E08A
:1014B0000020704770B5024600240023002500205C
:1014C00040F66A16B14200D100BFC1F3421501F0E7
:1014D0001F03012606FA03F3012D02D1968933403A
:1014E00006E0022D02D1168A334001E0968A33408D
:1014F0000C12012606FA04F41688344013B10CB11C
:10150000012000E0002070BDF0B503460024002655
:101510000025002040F66A17B94200D100BF1846E6
:10152000C1F3421401F01F06012707FA06F5012C4A
:1015300001D10C3004E0022C01D1103000E0143055
:101540001AB107682F43076002E00768AF430760DE
:10155000F0BD00002DE9FF4705460E460024A146D8
:1015600000BFA046B08900B100BF2C8A24F44054CB
:10157000F08804432C82AC8941F20C608443B0882B
:1015800031890843718908430443AC81AC8A24F44F
:101590004074B0890443AC826846FFF71FFD2048C1
:1015A000854202D01F48854202D1DDF80C9001E04F
:1015B000DDF80890A88900F4004040B109EBC900AB
:1015C00000EB091031684900B0FBF1F707E009EBC7
:1015D000C90000EB091031688900B0FBF1F7642005
:1015E000B7FBF0F004012009642101FB1078A88901
:1015F00000F4004040B1322000EBC800B0FBF1F035
:1016000000F00700044308E0322000EB08106421DA
:10161000B0FBF1F000F00F0004432C81BDE8FF8720
:10162000001001400014014001468888C0F3080002
:101630007047C1F308028280704700BFFEE70000D8
:101640000FB4084B10B504A902AA039800F01CF8C7
:10165000044602A9002000F048FA204610BC5DF8BC
:1016600014FB0000EB1A000802E008C8121F08C1B2
:10167000002AFAD170477047002001E001C1121F13
:10168000002AFBD1704700002DE9FF4F8DB00F46B7
:101690000546002606E025280BD0DDE90F1290470D
:1016A0006D1C761C28780028F5D111B03046BDE8B5
:1016B000F08F0024A246A1460122EC4900E0044339
:1016C00015F8013F203B02FA03F00842F7D12878D1
:1016D0002A2810D06FF02F022878A0F130010929B4
:1016E00014D80AEB8A0102EB410144F0020400EB3A
:1016F000010A6D1CF0E701CF5FEA000A03D544F44C
:101700000054CAF1000A44F002046D1C28782E2807
:1017100017D115F8010F44F004042A280ED06FF0F9
:101720002F022878A0F1300109290AD809EB890194
:1017300002EB410100EB01096D1CF2E757F8049B35
:101740006D1C28786C280FD006DC4C2817D0682830
:101750000DD06A2814D104E0742810D07A280FD153
:101760000DE044F400140AE044F4801401E044F471
:1017700040146978814202D104F580146D1C6D1CFF
:101780002A786E2A1FD00CDC632A31D004DC002AB0
:101790008BD0582A11D1A3E0642A68D0692A0CD1D1
:1017A00065E0732A2ED004DC6F2A73D0702A04D12E
:1017B0009BE0752A6FD0782A6ED01046DDE90F12B3
:1017C0009047761C50E1C4F30250022806D003284B
:1017D00009D0042801CF09D0066045E101CFF117F7
:1017E000C0E9006140E101CF06803DE106703BE1C8
:1017F00017F8040B8DF8000000208DF80100EB466F
:10180000012003E057F804BB4FF0FF3061074FF0B1
:10181000000102D40DE008F10101884649450FDAC4
:101820008045F8DB1BF808100029F4D108E008F126
:10183000010188468142FADB1BF808100029F6D125
:10184000DDE90F23AAEB08008146214600F036F9B6
:10185000304400EB080604E0DDE90F121BF8010B31
:101860009047B8F10108F7D221464846F7E00A212F
:10187000C4F302534FF0000B0891022B04D001CFA8
:10188000C117032B09D00AE0FF1D27F00707F7E86F
:10189000020108E032E01FE020E000B2C117042B93
:1018A00001D140B2C117031E71F1000307DA4FF0F6
:1018B000000CD0EB0C006CEB01012D2302E02305A2
:1018C00004D52B238DF82430012303E0E30701D056
:1018D0002023F7E7984658E00A2110E010210EE097
:1018E00010204FF0000B08900CE010214FF0000B7F
:1018F00044F004044FF00809089103E008214FF078
:10190000000B0891C4F30253022B04D001CF002135
:10191000032B06D006E0FF1D27F00707F7E80201BA
:1019200003E080B2042B00D1C0B24FF000082307BF
:101930002BD5702A07D0DDF820C08CF0100C5CEAA3
:101940000B0C05D00EE040238DF82430012308E075
:1019500050EA010306D030238DF824308DF825207D
:1019600002239846DDF820C08CF0080C5CEA0B0CD2
:101970000BD150EA010301D1630706D530238DF85E
:1019800024304FF00108A9F10109582A04D038A2E7
:101990000B9208AA0A920BE03AA2F9E75B46089A72
:1019A000FEF70EFC0B9B9B5C0A9A521E0A92137068
:1019B00050EA0102F2D10A98ADEB000000F1200BD1
:1019C000600702D524F4803401E04FF00109D945C5
:1019D00002DDA9EB0B0000E0002000EB0B0141440D
:1019E0000890AAEB010AE00306D4DDE90F232146A3
:1019F000504600F063F806444FF0000908E009A9DA
:101A000011F80900DDE90F12904709F10109761C70
:101A1000C145F4DBE0030CD5DDE90F232146504638
:101A200000F04CF8064404E0DDE90F123020904746
:101A3000761C0899481E08900029F5DC08E00A98F1
:101A40000A990078491C0A91DDE90F129047761C2B
:101A5000BBF10001ABF1010BF1DC21465046DDE9A1
:101A60000F2300F019F806446D1C1BE6092801003D
:101A70003031323334353637383961626364656604
:101A800000000000303132333435363738394142C6
:101A900043444546000000002DE9F041044600257E
:101AA0001E461746880404D405E039462020B04776
:101AB0006D1C641EF9D52846BDE8F0812DE9F04182
:101AC000044600251E469046C80301D5302700E095
:101AD0002027880404D505E041463846B0476D1CF0
:101AE000641EF9D52846BDE8F0810A68531C0B60D6
:101AF0001070704770B504464FF4077094FBF0F017
:101B0000C6B24FF4077094FBF0F100FB114085B2B0
:101B100005E04FF4077000F009F8701EC6B2002E01
:101B2000F7D115B1284600F001F870BD0146114A01
:101B300012884A434FF0E0235A6100229A611A4604
:101B4000126942F001021A6100BF4FF0E0221069F1
:101B500000F001021AB100F48032002AF5D04FF0F3
:101B6000E022126922F001024FF0E0231A61002204
:101B70009A6170471E0000200146114A12784A43BC
:101B80004FF0E0235A6100229A611A46126942F02E
:101B900001021A6100BF4FF0E022106900F001025B
:101BA0001AB100F48032002AF5D04FF0E022126919
:101BB00022F001024FF0E0231A6100229A6170477F
:101BC0001C000020FFF7B6FB0AE00648006808B9D1
:101BD000012000E00020034908606420FFF78AFF2D
:101BE000F3E70000A4824242000000000000000071
:101BF0000000000000000000000000F800000000ED
:101C0000000000333000000000100C06100C06002D
:101C1000000000000000000040C07840C078400094
:101C2000043F04043F040400007088FC08300000F6
:101C3000001820FF211E0000F008F000E01800004E
:101C400000211C031E211E0000F008887000000007
:101C50001E2123241927211010160E000000000059
:101C60000000000000000000000000E01804020076
:101C7000000000071820400000020418E0000000E7
:101C80000040201807000000404080F080404000E5
:101C90000202010F01020200000000F0000000003B
:101CA0000101011F0101010000000000000000000F
:101CB00080B0700000000000000000000000000084
:101CC000000101010101010100000000000000000D
:101CD00000303000000000000000000080601804A8
:101CE000006018060100000000E010080810E00085
:101CF000000F102020100F00001010F8000000004E
:101D00000020203F20200000007008080888700094
:101D10000030282422213000003008888848300014
:101D20000018202020110E000000C02010F8000034
:101D300000070424243F240000F8088888080800CD
:101D40000019212020110E0000E0108888180000E2
:101D5000000F112020110E0000380808C8380800B4
:101D60000000003F00000000007088080888700034
:101D7000001C222121221C0000E010080810E000B5
:101D80000000312222110F00000000C0C00000003E
:101D90000000003030000000000000800000000063
:101DA000000080600000000000008040201008005B
:101DB0000001020408102000404040404040400024
:101DC00004040404040404000008102040800000FF
:101DD0000020100804020100007048080808F00004
:101DE0000000003036010000C030C828E810E000D4
:101DF0000718272423140B000000C038E00000005F
:101E0000203C23020227382008F8888888700000C8
:101E1000203F202020110E00C0300808080838009C
:101E2000071820202010080008F808080810E00013
:101E3000203F202020100F0008F88888E8081000B4
:101E4000203F20202320180008F88888E808100088
:101E5000203F200003000000C030080808380000C0
:101E600007182020221E020008F808000008F808C1
:101E7000203F210101213F20000808F80808000048
:101E80000020203F2020000000000808F80808007B
:101E9000C08080807F00000008F888C028180800F3
:101EA000203F20012638200008F80800000000002C
:101EB000203F20202020300008F8F800F8F8080023
:101EC000203F003F003F200008F830C00008F8081D
:101ED000203F200007183F00E01008080810E0002D
:101EE0000F10202020100F0008F808080808F00044
:101EF000203F210101010000E01008080810E00067
:101F00000F18242438504F0008F8888888887000FB
:101F1000203F2000030C302000708808080838009B
:101F20000038202121221C00180808F80808180091
:101F30000000203F2000000008F808000008F80812
:101F4000001F202020201F000878880000C83808C3
:101F5000000007380E010000F80800F80008F8003B
:101F6000033C0700073C03000818688080681808D5
:101F700020302C03032C30200838C800C838080053
:101F80000000203F2000000010080808C8380800A2
:101F90002038262120201800000000FE0202020046
:101FA0000000007F40404000000C30C000000000F6
:101FB000000000010638C00000020202FE0000001E
:101FC000004040407F0000000000040202020400C4
:101FD0000000000000000000000000000000000001
:101FE00080808080808080800002020400000000E9
:101FF00000000000000000000000808080800000E1
:102000000019242222223F2008F8008080000000CE
:10201000003F112020110E00000000808080000091
:10202000000E112020201100000000808088F800A0
:10203000000E112020103F200000808080800000D2
:10204000001F222222221300008080F08888881836
:102050000020203F20200000000080808080800041
:10206000006B94949493600008F8008080800000D6
:10207000203F210000203F200080989800000000B1
:102080000020203F202000000000008098980000E1
:1020900000C08080807F000008F800008080800001
:1020A000203F24022D302000000808F80000000026
:1020B0000020203F202000008080808080808000E1
:1020C000203F20003F20003F808000808080000073
:1020D000203F210000203F20000080808080000001
:1020E000001F202020201F00808000808000000032
:1020F00080FFA12020110E00000000808080800061
:10210000000E112020A0FF80808080008080800051
:1021100020203F212000010000008080808080007E
:102120000033242424241900008080E080800000F3
:102130000000001F20200000808000000080800040
:10214000001F202020103F208080800000808080A1
:1021500000010E3008060100808000800080808031
:102160000F300C030C300F00008080008080800056
:102170000020312E0E312000808080000080808081
:1021800080818E7018060100008080808080800031
:102190000021302C2221300000000000807C02024F
:1021A00000000000003F404000000000FF00000071
:1021B00000000000FF0000000002027C8000000020
:1021C0000040403F0000000000060101020204043C
:1021D0000000000000000000F821000800000020BE
:1021E00020000000681600081822000820000020C7
:1021F0000004000078160008000000000000000045
:1022000000000000000000000102030401020304BA
:082210000607080900000000A8
:040000050800018965
:00000001FF
