:020000040800F2
:10000000300600209D010008E90E0008850D00085B
:100010000D0E0008AB020008FF1D000800000000E4
:10002000000000000000000000000000551600085D
:10003000AF02000800000000F5120008AD1700082C
:10004000B7010008B7010008B7010008B7010008B0
:10005000B7010008B7010008B1020008B7010008A5
:10006000B701000821030008B7010008B701000824
:10007000B7010008B7010008B7010008B701000880
:10008000B7010008B7010008B7010008B701000870
:10009000B7010008B7010008B7010008B701000860
:1000A000B7010008B7010008B7010008B701000850
:1000B000B7010008B7010008B7010008B701000840
:1000C000B7010008B7010008B7010008B701000830
:1000D000B7010008A1180008B7010008B70100081F
:1000E000B7010008B7010008B7010008B701000810
:1000F000B7010008B7010008B7010008B701000800
:10010000B7010008B7010008B7010008B7010008EF
:10011000B7010008B7010008B7010008B7010008DF
:10012000B7010008B7010008B7010008B7010008CF
:10013000B7010008B7010008B7010008B7010008BF
:10014000B7010008B7010008B7010008B7010008AF
:10015000B7010008B7010008B7010008B70100089F
:10016000B7010008B7010008B7010008B70100088F
:10017000B7010008B7010008B7010008B70100087F
:10018000B7010008B7010008DFF80CD000F05CF8F8
:1001900000480047952600083006002006488047A2
:1001A00006480047FEE7FEE7FEE7FEE7FEE7FEE75C
:1001B000FEE7FEE7FEE7FEE7ED170008890100080D
:1001C000D2B201E000F8012B491EFBD27047002299
:1001D000F6E710B513460A4604461946FFF7F0FF46
:1001E000204610BD2DE9F05F0546002092469B4653
:1001F00088460646814640241BE02846414647463D
:10020000224600F042F853465A46C01A914110D394
:1002100011461846224600F029F82D1A67EB01080E
:100220004F4622460120002100F020F817EB00097C
:100230004E41201EA4F10104DFDC484631462A4627
:100240004346BDE8F09F0000064C074D06E0E0681D
:1002500040F0010394E8070098471034AC42F6D30D
:10026000FFF796FFB0370008D0370008202A04DBDC
:10027000203A00FA02F1002070479140C2F12003B9
:1002800020FA03F3194390407047202A04DB203AF8
:1002900021FA02F00021704721FA02F3D040C2F1A6
:1002A0002002914008431946704700BFFEE770479F
:1002B00010B5012000F072F8012823D10A2002F0C5
:1002C0006EF91248006801281CD10020104908600E
:1002D000642002F064F901200E49C1F8A8020E481A
:1002E00000680E49096888420CD000F045FE0A48B3
:1002F000006840380849086008460121026808463D
:1003000000F0B8FF012000F043F810BD00024042A9
:10031000A8824242008042420400002000000020E7
:1003200010B5082000F03AF8012822D10A2002F086
:1003300036F912480068E0B90020114908606420CD
:1003400002F02DF901200F49C1F8A8020E480068FB
:100350000E49096888420CD000F00EFE0A48006879
:10036000403009490860084601210268084600F04B
:1003700081FF082000F00CF810BD00000C02424282
:10038000A88242420080424204000020080000206F
:100390000149086070470000143C014001460020FC
:1003A000034A12680A400AB1012000E000207047A9
:1003B000143C0140002123498279002A3AD00A46A0
:1003C000126803689A430B461A600A1D1268036894
:1003D0009A430B1D1A60027911440A6803681A4394
:1003E0000A60184A0832126803689A43154B0833AA
:1003F0001A601A1D126803689A43124B0C331A6074
:100400004279102A0ED11A1F126803681A430D4B45
:1004100008331A601A1D126803681A43094B0C331B
:100420001A600DE00749427911440A6803681A43CB
:100430000A6005E0027911440A6803689A430A6079
:1004400070470000003C014070B58EB0F0260024DB
:100450004FF480651BA20121032000F0F7FE2CE081
:10046000012205F108010DA800F00FFC9DF8346091
:100470009DF83400B0421FD1601C84B205F5806540
:1004800000200D90E11704EB5161C911A4EBC111DB
:1004900049B922460FA1684601F0C4FC6A46012111
:1004A000032000F0D3FEB5F5801F06D90DA2072169
:1004B000042000F0CBFE01E000E0D1E700BF0EB069
:1004C00070BD000045785352414D4361703A203071
:1004D0004B42000045785352414D4361703A2564C8
:1004E0004B4200006F6B210030B10749096841F4AD
:1004F0008061054A116005E00349096821F48061C3
:10050000014A116070470000003C024070B504468B
:100510000A460026092502B909E0012A01D116027E
:1005200005E0022A01D1160201E04FF4407600F006
:100530009FF80546092D28D11548006820F4407021
:1005400013490860084600683043086008460068A0
:1005500020F0F80008600846006844F002010843F3
:100560000B4908600846006840F48030086000F0DD
:100570007FF805460648006820F00200044908603C
:100580000846006820F0F8000860284670BD0000AA
:10059000103C024009201349096801F48031B1F58B
:1005A000803F01D101201CE00E49096801F01001D3
:1005B00009B1062015E00B49096801F4807109B101
:1005C00002200EE00749096801F0E00109B10720A7
:1005D00007E00449096801F0020109B1082000E0C0
:1005E000092070470C3C02400348006840F000407E
:1005F0000149086070470000103C024030B50246D7
:100600000C46092500F034F80546092D19D10E488D
:10061000006820F440700C4908600846006840F407
:10062000007008600846006840F00100086014602F
:1006300000F01EF805460448006820F00100024959
:100640000860284630BD0000103C024005480068A4
:1006500000F0004028B1044802490C390860034802
:1006600008607047103C024023016745AB89EFCD1D
:1006700008B509200090FFF78DFF009002E0FFF71A
:1006800089FF00909DF800000128F8D09DF8000037
:1006900008BD000051B18200A2F1C042126842F0D0
:1006A00001038200A2F1C042136009E08200A2F1BE
:1006B000C0421268034B1A408300A3F1C0431A6082
:1006C00070470000FEFF0F0030B50021002200231C
:1006D0000468A400A4F1C0442168444C2140D0E93E
:1006E00001452C43C5682C4305692C4345692C43BF
:1006F00085692C43C5692C43056A2C43456A2C4304
:10070000856A2C43C56A2C43056B2C43214304683E
:10071000A400A4F1C04421608468082C0BD10468B3
:10072000A400A4F1C044246844F040050468A40077
:10073000A4F1C04425600468641CA400A4F1C04472
:10074000226802F04042446B2468456B6D6844EABD
:100750000514456BAD6844EA0524456BAD8944EA50
:100760000544456B2D8A44EA0554456B2D7D44EACA
:100770000564456BAD692C4322430468641CA400E6
:10078000A4F1C0442260C46AB4F5804F24D1046847
:10079000A400A4F1C044D4F8043103F04043846BB6
:1007A0002468856B6D6844EA0514856BAD6844EA7E
:1007B0000524856B2D8A44EA0554856B2D7D44EA1A
:1007C0000564856BAD692C4323430468A400A4F140
:1007D000C044C4F8043107E06FF070450468A40019
:1007E000A4F1C044C4F8045130BD00008000F7FFFC
:1007F00000B599B001217A2000F07EFD0121084664
:1008000000F09AFD0C220021A74800F091FA0C227A
:100810000121A54800F08CFA0C220421A24800F026
:1008200087FA0C220521A04800F082FA0C22082148
:100830009D4800F07DFA0C2209219B4800F078FACF
:100840000C220A21984800F073FA0C220B219648DA
:1008500000F06EFA0C221146934800F069FA0C225F
:100860000D21914800F064FA0C220E218E4800F010
:100870005FFA0C220F218C4800F05AFA0C2200215A
:100880008A4800F055FA0C220121884800F050FAFD
:100890000C220721854800F04BFA0C2208218348DE
:1008A00000F046FA0C220921804800F041FA0C229F
:1008B0000A217E4800F03CFA0C220B217B4800F014
:1008C00037FA0C221146794800F032FA0C220D2139
:1008D000764800F02DFA0C220E21744800F028FA18
:1008E0000C220F21714800F023FA0C2200217048DD
:1008F00000F01EFA0C2201216D4800F019FA0C22BA
:1009000002216B4800F014FA0C220321684800F021
:100910000FFA0C220421664800F00AFA0C22052185
:10092000634800F005FA0C221146614800F000FA15
:100930000C220D215E4800F0FBF90C220E215C48D0
:1009400000F0F6F90C220F21594800F0F1F90C22C1
:100950000021584800F0ECF90C220121554800F024
:10096000E7F90C220221534800F0E2F90C2203219E
:10097000504800F0DDF90C2204214E4800F0D8F96F
:100980000C2205214B4800F0D3F90C220A214948DA
:1009900000F0CEF94FF40040179001208DF8600070
:1009A00000208DF8620002208DF8610001208DF892
:1009B000630017A9404800F073F94FF633701790A1
:1009C00002208DF8600000208DF8620003208DF871
:1009D000610001208DF8630017A9334800F060F929
:1009E0004FF68370179002208DF8600000208DF87C
:1009F000620003208DF8610001208DF8630017A9C3
:100A00002A4800F04DF94FF23F00179002208DF870
:100A1000600000208DF8620003208DF86100012045
:100A20008DF8630017A9224800F03AF940F23F40E0
:100A3000179002208DF8600000208DF862000320DE
:100A40008DF8610001208DF8630017A9194800F0A6
:100A500027F90020019002901820039000200490B4
:100A600005900690079004200890002009900A90B5
:100A700010200B9000200C900E900D900F90109075
:100A80004FF480501190002012901390149001A800
:100A90001590169008A8FFF717FE01210420FFF714
:100AA000F9FD19B000BD0000000C0240001002402A
:100AB00000140240001802400004024070B5D6B095
:100AC00021A800F0BBF81FA001F09CF924A001F0C0
:100AD00099F900240BE000F0E7FC41A941F824005B
:100AE00041A850F8241024A001F08CF9641C152CA6
:100AF000F1DB15266A46314641A801F065FC054642
:100B00001FA001F07FF900240FE055F8240021A96F
:100B100051F82410484001A941F8240001A850F8D8
:100B2000241015A001F06EF9641C202CEDDB19A037
:100B300001F068F901A91F48009A00F03FFD56B086
:100B400070BD00005374617274696E6720496E69EC
:100B50007469616C697A652073746570730A00004A
:100B60004765742072616E646F6D206E756D62658D
:100B700072733A0A00000000253038780000000047
:100B80000A4765742068656C7020646174613A0A74
:100B9000000000000A496E697469616C697A652019
:100BA00070726F6772616D20737563636573732113
:100BB0000000000000000E0830B5ADF5017D0546CF
:100BC0004FF0FF3000902FE061A800F037F82022AE
:100BD00041A9194800F0DEFC00200AE041A951F8C3
:100BE000201061AA52F82020514001AA42F820109A
:100BF000401C2028F2DB21AB6A46202101A801F02D
:100C00006BFB6A4621A8009901F0DEFB0446002038
:100C100008E054F8201041AA52F82020514045F82D
:100C20002010401C2028F4DB0098401C0028CBD06A
:100C30000DF5017D30BD000000000E08F8B5054639
:100C40004FF4806700241DE0002045F824000026B2
:100C500015E001223946684600F017F855F82400DF
:100C60009DF80010484045F82400032E04D055F8A4
:100C70002400400045F8240007F58067761C202EEC
:100C8000E7DB641C202CDFDBF8BD06E04FF0D0432F
:100C90005B5C00F8013B491C521E002AF6D17047EC
:100CA000F0B50A4600210023002400BF3DE00125E5
:100CB00005FA01F3156805EA03049C4234D105687E
:100CC0004F000326BE40B543056015794E00B54080
:100CD0000668354305601579012D02D01579022D7E
:100CE00016D185684F000326BE40B543856055790F
:100CF0004E00B540866835438560456801268E40C4
:100D0000B5434560456896798E40B6B23543456037
:100D1000C5684F000326BE40B543C560D5794E0077
:100D2000B540C6683543C560491C1029BFD3F0BD26
:100D3000F0B5002300244D07ED0E02FA05F3CE10A6
:100D400000F1200555F826504E07F70E0F26BE403D
:100D5000B543CF1000F1200646F82750CE1000F121
:100D6000200555F8265045EA0304CE1000F1200571
:100D700045F82640F0BD018370470AB1018300E0C9
:100D80004183704700BFFEE71CB50121112000F030
:100D9000B3FA00208DF804001C20009001208DF88B
:100DA000070069460748FFF77BFF00208DF8040025
:100DB0000120009002208DF8070069460248FFF7E5
:100DC0006FFF1CBD00100240000002401CB5012155
:100DD000202000F091FA01208DF804004FF4C0604B
:100DE000009003208DF8050000208DF806000120FA
:100DF0008DF8070069460448FFF752FF4FF4C061C1
:100E00000148FFF7B8FF1CBD0014024000BFFEE719
:100E10000EB50121880300F09FFA0021084600F07A
:100E20001BFC0221042000F017FC0321042000F029
:100E300013FC0421084600F00FFC06208DF8080082
:100E400002208DF8090003208DF80A0001208DF89A
:100E50000B0002A800F04AF808208DF808000220D4
:100E60008DF809008DF80A0001208DF80B0002A80A
:100E700000F03CF809208DF8080002208DF80900E8
:100E800001208DF80A008DF80B0002A800F02EF862
:100E90000A208DF8080002208DF8090000208DF846
:100EA0000A0001208DF80B0002A800F01FF80120B5
:100EB000009000208DF8040008208DF80500012026
:100EC0008DF806006846FFF775FA1C200090002098
:100ED0008DF804000C208DF8050001208DF8060027
:100EE0006846FFF767FA0EBD7047000070B5002135
:100EF00000230F22C4781CB3174C246804F4E06468
:100F0000C4F5E064C4F30721C1F10404E3B20A416B
:100F100044789C40E1B28478144021430C07210EB0
:100F20000E4C05786155047804F01F050124AC408F
:100F300005786D11AD0005F1E025C5F8004109E027
:100F4000047804F01F050124AC40054D06787611A5
:100F500045F8264070BD00000CED00E000E400E024
:100F600080E100E002490143024A1160704700003D
:100F70000000FA050CED00E070B500240EE0002141
:100F8000204600F018F9002504E0002000F0A2F946
:100F9000681CC5B2802DF8DB601CC4B2082CEEDBE7
:100FA00070BD00007CB5002406E0002500E06D1C4B
:100FB000B5F57A7FFBD3641CB4F57A7FF5D30121B4
:100FC000022000F099F901208DF8040000208DF82E
:100FD000060002208DF80500C001009069460A480D
:100FE000FFF75EFE4FF40070009069460648FFF779
:100FF00057FE012211020448FFF7BFFE01225102F1
:101000000148FFF7BAFE7CBD0004024070B50546FA
:1010100000241EE08020204100EA05024FF4007108
:101020001648FFF7AAFE012001F0FCFA0122110286
:101030001248FFF7A2FE012001F0F4FA00224FF45B
:1010400080710E48FFF799FE012001F0EBFA601C59
:10105000C4B2082CDEDB012211020848FFF78DFE26
:10106000012001F0DFFA00224FF480710348FFF7FE
:1010700084FE012001F0D6FA70BD00000004024099
:1010800010B5012251021048FFF777FE012001F050
:10109000C9FA012211020C48FFF76FFE012001F08E
:1010A000C1FA00224FF400710748FFF766FE0120E5
:1010B00001F0B8FA00224FF480710348FFF75DFE9B
:1010C000012001F0AFFA10BD0004024010B500226B
:1010D0004FF400710B48FFF750FE012001F0A2FA17
:1010E000012211020748FFF748FE012001F09AFA99
:1010F000012251020348FFF740FE012001F092FA5D
:1011000010BD00000004024070B5002406E0002578
:1011100000E06D1CB5F57A7FFBD3641CB4F57A7FD3
:10112000F5D3FFF73FFFAE2000F0C4F8D52000F064
:10113000C1F8802000F0BEF8A82000F0BBF83F20E6
:1011400000F0B8F8D32000F0B5F8002000F0B2F8B5
:10115000402000F0AFF8A12000F0ACF8C82000F06B
:10116000A9F8DA2000F0A6F8122000F0A3F88120F8
:1011700000F0A0F8CF2000F09DF8D92000F09AF8F8
:10118000F12000F097F8DB2000F094F8302000F018
:1011900091F8A42000F08EF8A62000F08BF88D20A6
:1011A00000F088F8142000F085F8AF2000F082F8F5
:1011B000FFF7E2FE70BD70B505460C4645F0B00085
:1011C00000F078F8102141EA141000F073F804F0F0
:1011D0000F0000F06FF870BD2DE9F04105460E4696
:1011E0001746721ED206110E6A1E5206100EFFF727
:1011F000E2FF002409E0A7F12001134A02EB0111EC
:10120000085D00F067F8601CC4B2082CF3DB721EA6
:10121000D206110E6A1E012303EB4202D0B2FFF781
:10122000CAFF00240BE0A7F12001074A02EB0112DC
:1012300004F10801505C00F04DF8601CC4B2082CA9
:10124000F1DBBDE8F0810000402F00082DE9F041FE
:1012500007460E461546002407E02A5D3019C1B244
:101260003846FFF7B9FF601CC4B2285D0028F4D1EE
:10127000BDE8F0812DE9F041044688461546002678
:1012800013E00F2F06DD601CC4B20027042C01DD23
:10129000BDE8F081AA5D08EB0700C1B22046FFF768
:1012A0009BFF781CC7B2701CC6B2A85D0028E8D1AD
:1012B00000BFEDE710B50446FFF7E2FE7820FFF728
:1012C000A5FE0020FFF7A2FE2046FFF79FFEFFF7D6
:1012D000FDFE10BD10B50446FFF7D2FE7820FFF7E3
:1012E00095FE4020FFF792FE2046FFF78FFEFFF7A6
:1012F000EDFE10BD7047000029B1064A1268024396
:10130000044B1A6004E0034A12688243014B1A60DE
:10131000704700003038024029B1064A1268024383
:10132000044B1A6004E0034A12688243014B1A60BE
:10133000704700003438024029B1064A126802435F
:10134000044B1A6004E0034A12688243014B1A609E
:10135000704700003838024029B1064A126802433B
:10136000044B1A6004E0034A12688243014B1A607E
:101370007047000044380240F0B5002100220024EC
:10138000022500260223324F3F6807F00C0121B1ED
:10139000042905D0082937D105E02E4F076036E033
:1013A0002D4F076033E02A4F3F1F3F68C7F3805639
:1013B000274F3F1F3F6807F03F036EB1264FB7FB33
:1013C000F3F7DFF88CC0ACF1040CDCF800C0CCF310
:1013D000881C07FB0CF40CE01E4FB7FBF3F7DFF89B
:1013E00070C0ACF1040CDCF800C0CCF3881C07FB27
:1013F0000CF4174F3F1F3F68C7F301477F1C7D0068
:10140000B4FBF5F7076002E0124F076000BF00BFB2
:101410000F4F3F6807F0F0010909104F7A5C076829
:10142000D74047600A4F3F6807F4E051890A0B4FE5
:101430007A5C4768D7408760054F3F6807F4604192
:10144000490B064F7A5C4768D740C760F0BD000083
:10145000083802400024F40000127A001400002032
:1014600030B10749096841F00401054A116005E0FF
:101470000349096821F00401014A11607047000026
:101480000008065001460020034A12680A400AB1CB
:10149000012000E000207047040806500148006861
:1014A000704700000808065010B500BF0120FFF784
:1014B000E9FF0028FAD0FFF7F1FF10BD10B50121B8
:1014C0004020FFF729FF0120FFF7CAFF0AE0601C58
:1014D00084B2642001F0A6F842F21070844201DB6D
:1014E000012010BD0120FFF7CDFF0028EFD0002024
:1014F000F7E7000001461C48814201D200207047F6
:101500001A48814201D20820F9E71948814201D2E4
:101510001020F4E71748814201D21820EFE716485F
:10152000814201D22020EAE71448814201D22820DA
:10153000E5E71348814201D23020E0E711488142BB
:1015400001D23820DBE71048814201D24020D6E7A3
:101550000E48814201D24820D1E70D48814201D294
:101560005020CCE75820CAE700400008008000085F
:1015700000C0000800000108000002080000040884
:10158000000006080000080800000A0800000C0817
:1015900000000E0830B503460C461546002206E052
:1015A000184600F007F844F822001B1D521CAA42FE
:1015B000F6D330BD01460868704700002DE9F047BA
:1015C00004460E4617464FF009080025A946B4F117
:1015D000006F02D304F0030008B1BDE8F087FFF705
:1015E00035F80020FEF780FF254604EB87091848F0
:1015F000854215D211E02846FFF7DCFF401C58B1A8
:101600002846FFF777FF82460221FEF77FFF8046DC
:10161000B8F1090F01D002E02D1D4D45EBD300BFFD
:10162000B8F1090F0CD108E020463168FEF7E6FF5B
:10163000092800D003E0241D361D4C45F4D300BF1B
:101640000120FEF751FFFEF7CFFF00BFC5E7000006
:101650000000FF1F7047000030B500228B071C0FF1
:101660000F2303FA04F20B4B8C1053F824309343EE
:10167000084C8D1044F8253023468C1053F8243044
:101680008C07240F00FA04F42343024C8D1044F815
:10169000253030BD083801400CB500200190009085
:1016A0003448006840F480303249086000BF314857
:1016B000006800F4003000900198401C01900098F0
:1016C00018B90198B0F5A04FF1D12A48006800F48C
:1016D000003010B10120009001E00020009000983F
:1016E000012846D123484030006840F0805021490D
:1016F000403108602048006840F440401E490860BE
:101700001C48083000681B4908310860084600681A
:1017100040F4004008600846006840F4A0500860AB
:101720001648091F0860081F006840F08070091FF4
:10173000086000BF0F48006800F000700028F9D072
:1017400040F205700E4908600A480830006820F031
:1017500003000849083108600846006840F00200AC
:10176000086000BF03480830006800F00C0008283B
:10177000F8D10CBD0038024000700040085440070A
:10178000003C0240042808D14FF0E021096941F0F3
:1017900004014FF0E022116107E04FF0E0210969F8
:1017A00021F004014FF0E022116170477047000002
:1017B00010B504466FF00400FFF7E4FFE11704EBF7
:1017C0005171C1F3C701074A11701046007800EB50
:1017D0004001C1EBC0104FF6FF7101EAC0000249A1
:1017E000088010BD240000202600002010B51548F8
:1017F000006840F47000134908601348006840F026
:1018000001001149086000200F49083108600E48A6
:1018100000680E4908400C4908600D48091D086021
:10182000081F006820F48020091F08600020064976
:101830000C310860FFF730FF4FF00060014980393C
:10184000086010BD88ED00E000380240FFFFF6FEA2
:101850001030002410B5A820FFF7AAFF4FF4A060B5
:10186000FFF780FBFFF7B2FA4FF4612000F088F930
:10187000FFF78AFAFFF748FCFFF7CAFAFFF71EFEE8
:1018800004A205210120FFF7E1FCFEF7B1FFFEF7FE
:10189000DBFD10BD5352414D205055460000000065
:1018A00070B5ADF5167D40F22551894800F0E4F998
:1018B000002878D0864800F099FAC5B2854800889B
:1018C000B0F5007F6FDA0D2D02D10DF5167D70BDDC
:1018D000804801880088401C7E4A10807E4845541C
:1018E0000A2D04D010460088B0F5007F5BD100219E
:1018F00078480088401E784A115478A1104601F0BB
:1019000008FB90B178A000F07DFA002003E00021F0
:10191000714A1154401C6F4909888842F7DB002046
:101920006C49088077490860CFE777A16A4801F0E1
:10193000F0FA18B101207349086029E074A16648E3
:1019400001F0E7FA18B102206E49086020E073A1A7
:10195000614801F0DEFA98B174A000F053FA032058
:1019600068490860002003E000215B4A1154401CD4
:10197000584909888842F7DB002056490880A4E7C7
:1019800071A1554801F0C5FA10B104205D49086005
:101990005C480068052877D2DFE800F00312182DB4
:1019A0007700002406E090E04B48015D6AA000F05B
:1019B00029FA641C47480088401EA042F4DC76E007
:1019C000FFF77CF803204F49086070E076A8FFF726
:1019D000F3F862A000F016FA002406E076A850F8AA
:1019E000241062A000F00EFA641C202CF6DB032009
:1019F000444908605BE040A800F058FF364800F01A
:101A0000C6FD04462246344940A801F045FA30A9F3
:101A100040A800F051FE76A8FFF7CEF855A000F0E0
:101A2000F1F9002016E030AA12F820100A06810011
:101A3000491C30AB595C42EA01428100891C595C67
:101A400042EA01218200D21C9A5C114320AA42F88A
:101A50002010401C1028E6DB002412E02646E01788
:101A600004EB10700011A4EB001020AA52F8200023
:101A700076AA52F8242080EA02013CA000F0C2F9C4
:101A8000641C202CEADB12E010E06846FFF7D6F871
:101A9000002405E05DF8241034A000F0B3F9641CC4
:101AA000202CF7DB03201749086000E000BF00BFCF
:101AB000002003E00021084A1154401C0549098810
:101AC0008842F7DB00200349088000BFFDE60000E4
:101AD00000100140120000202C00002041545F64DF
:101AE000656661756C7400004368616E676520739C
:101AF0007461747520746F2064656661756C740A16
:101B0000000000000C00002041545F696E69740001
:101B100041545F736F7572636500000041545F73D9
:101B200074726F6E675372616D0000004368616E7E
:101B3000676520737461747520746F207374726F9D
:101B40006E675372616D0A0041545F736F75726303
:101B5000655372616D00000025630000536F75636B
:101B60006520456E74726F70793A0A0025303878B6
:101B700000000000526573706F6E73653A0A0000D2
:101B800010B588B0044601210846FFF7B5FB0121D6
:101B90001020FFF7E1FB072209212448FFF7C8F8CE
:101BA00007220A212148FFF7C3F84FF4C0600690CE
:101BB00002208DF81C008DF81D0000208DF81E00FD
:101BC00001208DF81F0006A91848FFF769F8029454
:101BD0000020ADF80C00ADF80E00ADF81000ADF827
:101BE00014000C20ADF8120002A9114800F094F87E
:101BF00001210F4800F027F840210D4800F01AF8A5
:101C0000012240F225510A4800F060F825208DF8A5
:101C1000040003208DF805008DF8060001208DF8E2
:101C2000070001A8FFF762F908B010BD00000240EC
:101C30000010014001F40072B2F5007F00D100BF36
:101C4000CA430280704721B1828942F400528281E6
:101C500004E082894DF6FF731A4082817047024684
:101C60000020B1F5007F00D100BF13880B400BB1FD
:101C7000012000E00020704770B5024600240023D8
:101C80000025002040F66A16B14200D100BFC1F322
:101C9000421501F01F03012606FA03F3012D02D1BC
:101CA0009689334006E0022D02D1168A334001E0C6
:101CB000968A33400C12012606FA04F41688344042
:101CC00013B10CB1012000E0002070BDF0B5034657
:101CD000002400260025002040F66A17B94200D1F2
:101CE00000BF1846C1F3421401F01F06012707FA8E
:101CF00006F5012C01D10C3004E0022C01D110308A
:101D000000E014301AB107682F43076002E007684B
:101D1000AF430760F0BD00002DE9FF4705460E46C2
:101D20000024A14600BFA046B08900B100BF2C8AA4
:101D300024F44054F08804432C82AC8941F20C60B6
:101D40008443B08831890843718908430443AC81D6
:101D5000AC8A24F44074B0890443AC826846FFF72F
:101D60000BFB2048854202D01F48854202D1DDF896
:101D70000C9001E0DDF80890A88900F4004040B123
:101D800009EBC90000EB091031684900B0FBF1F71D
:101D900007E009EBC90000EB091031688900B0FBCE
:101DA000F1F76420B7FBF0F004012009642101FB86
:101DB0001078A88900F4004040B1322000EBC80040
:101DC000B0FBF1F000F00700044308E0322000EB24
:101DD00008106421B0FBF1F000F00F0004432C81E7
:101DE000BDE8FF87001001400014014001468888CB
:101DF000C0F308007047C1F308028280704700BF3B
:101E0000FEE700000FB4054B10B503A9044A029881
:101E100000F02CF810BC5DF814FB000071260008DF
:101E2000280000200FB4084B10B504A902AA03989B
:101E300000F01CF8044602A9002000F048FA2046F1
:101E400010BC5DF814FB0000CF22000802E008C8B7
:101E5000121F08C1002AFAD170477047002001E024
:101E600001C1121F002AFBD1704700002DE9FF4F6E
:101E70008DB00F460546002606E025280BD0DDE98B
:101E80000F1290476D1C761C28780028F5D111B0F0
:101E90003046BDE8F08F0024A246A1460122EC495D
:101EA00000E0044315F8013F203B02FA03F008422A
:101EB000F7D128782A2810D06FF02F022878A0F1C7
:101EC0003001092914D80AEB8A0102EB410144F0E0
:101ED000020400EB010A6D1CF0E701CF5FEA000A83
:101EE00003D544F40054CAF1000A44F002046D1C06
:101EF00028782E2817D115F8010F44F004042A2859
:101F00000ED06FF02F022878A0F1300109290AD8ED
:101F100009EB890102EB410100EB01096D1CF2E7BD
:101F200057F8049B6D1C28786C280FD006DC4C28D1
:101F300017D068280DD06A2814D104E0742810D076
:101F40007A280FD10DE044F400140AE044F4801420
:101F500001E044F440146978814202D104F5801410
:101F60006D1C6D1C2A786E2A1FD00CDC632A31D0C0
:101F700004DC002A8BD0582A11D1A3E0642A68D04F
:101F8000692A0CD165E0732A2ED004DC6F2A73D045
:101F9000702A04D19BE0752A6FD0782A6ED0104643
:101FA000DDE90F129047761C50E1C4F3025002287D
:101FB00006D0032809D0042801CF09D0066045E1E6
:101FC00001CFF117C0E9006140E101CF06803DE19A
:101FD00006703BE117F8040B8DF8000000208DF827
:101FE0000100EB46012003E057F804BB4FF0FF303F
:101FF00061074FF0000102D40DE008F101018846AD
:1020000049450FDA8045F8DB1BF808100029F4D1A8
:1020100008E008F1010188468142FADB1BF808104C
:102020000029F6D1DDE90F23AAEB080081462146FD
:1020300000F036F9304400EB080604E0DDE90F1249
:102040001BF8010B9047B8F10108F7D2214648462A
:10205000F7E00A21C4F302534FF0000B0891022B62
:1020600004D001CFC117032B09D00AE0FF1D27F0D0
:102070000707F7E8020108E032E01FE020E000B2C5
:10208000C117042B01D140B2C117031E71F1000327
:1020900007DA4FF0000CD0EB0C006CEB01012D23A4
:1020A00002E0230504D52B238DF82430012303E01F
:1020B000E30701D02023F7E7984658E00A2110E013
:1020C00010210EE010204FF0000B08900CE01021C2
:1020D0004FF0000B44F004044FF00809089103E0AE
:1020E00008214FF0000B0891C4F30253022B04D0D7
:1020F00001CF0021032B06D006E0FF1D27F00707C4
:10210000F7E8020103E080B2042B00D1C0B24FF027
:10211000000823072BD5702A07D0DDF820C08CF0EB
:10212000100C5CEA0B0C05D00EE040238DF8243037
:10213000012308E050EA010306D030238DF8243053
:102140008DF8252002239846DDF820C08CF0080C7D
:102150005CEA0B0C0BD150EA010301D1630706D5F1
:1021600030238DF824304FF00108A9F10109582AD5
:1021700004D038A20B9208AA0A920BE03AA2F9E71F
:102180005B46089AFEF72EF80B9B9B5C0A9A521E40
:102190000A92137050EA0102F2D10A98ADEB0000E6
:1021A00000F1200B600702D524F4803401E04FF0E9
:1021B0000109D94502DDA9EB0B0000E0002000EB8E
:1021C0000B0141440890AAEB010AE00306D4DDE9C3
:1021D0000F232146504600F063F806444FF00009F3
:1021E00008E009A911F80900DDE90F12904709F18B
:1021F0000109761CC145F4DBE0030CD5DDE90F23B2
:102200002146504600F04CF8064404E0DDE90F1288
:1022100030209047761C0899481E08900029F5DC6C
:1022200008E00A980A990078491C0A91DDE90F1222
:102230009047761CBBF10001ABF1010BF1DC2146AC
:102240005046DDE90F2300F019F806446D1C1BE62B
:10225000092801003031323334353637383961627C
:102260006364656600000000303132333435363740
:102270003839414243444546000000002DE9F04111
:10228000044600251E461746880404D405E0394656
:102290002020B0476D1C641EF9D52846BDE8F081AA
:1022A0002DE9F041044600251E469046C80301D59D
:1022B000302700E02027880404D505E04146384651
:1022C000B0476D1C641EF9D52846BDE8F0810A6848
:1022D000531C0B60107070472DE9FF4FA0B00D46E6
:1022E00016469A464FF0000910E06A4602EB890153
:1022F000209A52F8290000F0ADF830603068401C98
:1023000010B924B0BDE8F08F09F10109A945ECDB53
:10231000C5EBC50000EB400B0BF11F00C11700EB34
:10232000D161491131600027B8460024002019E02E
:10233000002114E05DF82020C1F11F03DA4002F013
:102340000102C4F11F039A401743641C1F2C05DDD2
:102350004AF82870002408F101080027491C1529B3
:10236000E8DB401CA842E3DB002C01DD4AF82870C2
:1023700000BFC6E730B5044600220025E30ADB02B1
:102380001946012206E001F0004008B10D48414025
:102390004900521C152AF6D943EA51531946202206
:1023A00005E001F0010000B16D1C4908521E09B1A1
:1023B000002AF6D105F0010010B143F0010030BD54
:1023C0001846FCE7000020ED2DE9F04FB1B00646BD
:1023D0000F4690464FEA471909F11400152190FB6A
:1023E000F1FAC8F800A0002400252DE04FF0000B02
:1023F000002020E021464FEAE47C04EBDC6C4FEA4D
:102400006C124FEAE47C04EBDC6C4FEA6C1CA4EB2E
:102410004C134C450DDA56F82210C3F11F0C21FA6B
:102420000CF101F00101C0F1140C01FA0CF141EAC8
:102430000B0B641C401C1528DCDB4FEACB20FFF79C
:1024400099FF4DF825006D1C5545CFDB684631B02E
:10245000BDE8F08F2DE9F04105460F462846FFF70D
:1024600089FF6840C0F349041CB93D600020BDE805
:10247000F0810026A84600207EE07600B4F56D7F4E
:102480005FD040F26E218C425BD040F259318C42D9
:1024900057D0762C55D040F255218C4251D0F02C9B
:1024A0004FD040F216218C424BD040F265318C4225
:1024B00047D0682C45D040F25A218C4241D040F29E
:1024C00043318C423DD07B2C3BD040F2E7118C4213
:1024D00037D040F229118C4233D0B4F5A77F30D0E9
:1024E00040F2C9218C422CD0BE2C2AD040F231219E
:1024F0008C4226D0C22C24D040F20F218C4220D016
:10250000DD2C1ED0B4F5DA7F1BD0B4F52D7F18D0AA
:10251000B4F54D7F15D0B4F57D7F12D0B4F5657F4D
:102520000FD0B4F5697F0CD0B4F56F7F09D0B4F546
:102530006C7F06D040F2B6318C4202D0491E8C42EC
:1025400008D184F46D744FF0004121EA080146EA95
:10255000917603E008F0004146EA91764FEA480898
:1025600004F4007121B1640040F269714C4000E054
:102570006400C4F30904401C1F28FFF47EAF1CB1A3
:102580003D604FF0FF3072E73E6000206FE701468C
:10259000002000E0401C0A5C002AFBD1704770B5A7
:1025A00004464FF4077094FBF0F0C6B24FF4077086
:1025B00094FBF0F100FB114085B205E04FF4077089
:1025C00000F00AF8701EC6B2002EF7D115B12846E9
:1025D00000F002F870BD00000146114A12884A431B
:1025E0004FF0E0235A6100229A611A46126942F0C4
:1025F00001021A6100BF4FF0E022106900F00102F1
:102600001AB100F48032002AF5D04FF0E0221269AE
:1026100022F001024FF0E0231A6100229A61704714
:10262000260000200146114A12784A434FF0E02369
:102630005A6100229A611A46126942F001021A6137
:1026400000BF4FF0E022106900F001021AB100F45F
:102650008032002AF5D04FF0E022126922F0010208
:102660004FF0E0231A6100229A6170472400002095
:1026700070B504460D46E1B20548FFF7BCFB00BF4C
:1026800080210348FFF7EBFA0028F9D0204670BDFF
:1026900000100140FFF7DEF80AE00648006808B9BC
:1026A000012000E00020034908606420FFF777FF65
:1026B000F3E70000A482424270B504460E46D4F807
:1026C0008050D4F8800070280BD2802228466D1CE0
:1026D000225403E0002228466D1C2254702DF9D3A9
:1026E00012E0802228466D1C225403E00022284676
:1026F0006D1C2254802DF9D32146204600F024F988
:1027000070212046FDF763FD80342068C000D4E9C5
:102710000231181841F10001C4E90201D4E9023084
:1027200054F88019C900591A70F100000AD204F156
:102730008800D0E90210491C40F1000004F1880231
:10274000C2E902107834207CE071208A217D000AE1
:1027500040EA0160A071207D0204216942EA114033
:102760006071217D2069000E40EA01202071207DEA
:10277000E070A08A000AA0706069000C6070606957
:10278000000E04F878099020005D84F8770004F1C9
:1027900088000189007B020642EA112084F8760055
:1027A00004F188018868097B000C40EA014084F844
:1027B000750004F188008168007B020242EA116022
:1027C00084F874009420005D84F873009420005B0A
:1027D000000A84F8720094200059000C84F87100FB
:1027E00094200059000E84F870002146204600F025
:1027F000ABF8002556E004F1980000EBC5004068F6
:10280000000E06F8350004F1980000EBC5004068A2
:10281000C0F30740012101EBC501705404F1980099
:1028200000EBC5008088C0F30720022101EBC50141
:10283000705404F1980000EBC5000079032101EB0E
:10284000C501705404F1980000EBC50108680979CE
:10285000000E40EA0120042101EBC501705404F18F
:10286000980000EBC50001680079020442EA1140BB
:10287000052101EBC501705404F1980000EBC5007F
:1028800001880079020642EA1120062101EBC50108
:10289000705404F1980010F83500072101EBC501D0
:1028A00070546D1C082DA6D370BD0000002140F8A7
:1028B000801F8160C1608038002200F188039A6027
:1028C000DA601149114AC0E92612114A1149103340
:1028D000C3E90221104A1149C3E90421104A1149F0
:1028E000C3E90621104A1149C3E90821104A1149D8
:1028F000C3E90A21104A1149C3E90C21104A1149C0
:10290000C3E90E217047000008C9BCF367E6096AF5
:102910003BA7CA8485AE67BB2BF894FE72F36E3C6E
:10292000F1361D5F3AF54FA5D182E6AD7F520E51CB
:102930001F6C3E2B8C68059B6BBD41FBABD9831F85
:1029400079217E1319CDE05B2DE9F04FADF5357D92
:1029500002460D46002630463146A4966FE0A49EFE
:10296000AE5D4FEA066C00274FF00108A49E16EBFF
:10297000080815F8086047EA07074CEA06464FF0D2
:102980000208DDF890C21CEB080815F808C04FEAF1
:102990000C29BC4646EA09074FF00308A49E16EB33
:1029A000080815F8086047EA06064FF00408A49FD7
:1029B00017EB080815F808804FF000074FEA076783
:1029C00047EA18274CEA086C46EA0707A49E761DDA
:1029D00015F806804FF000064FEA064646EA18460C
:1029E0004FEA0849B8464CEA090748EA06064FF09C
:1029F0000608DDF890C21CEB080815F808C04FF077
:102A000000084FEA082848EA1C6847EA0C2746EA0B
:102A1000080C4FF00708A49E16EB080815F808608C
:102A2000B84648EA06086746EC460CEBC006C6E91D
:102A30000087401C41F10001A49E0836A4964FF087
:102A40001007C71B71F1000689D3A8E0861E6F46E8
:102A500007EBC607C0CF4FEAD64646EA47364FEAED
:102A6000D74C871E5DF837704FEA473837464CEA37
:102A700008064FF0020CB0EB0C0CE84608EBCC0C4F
:102A8000DCF804C04FEA5C794FF00208B0EB0808AC
:102A9000EA460AEBC808D8E900A84FEAC80848EA9D
:102AA0005A7849EACA0987EA090786EA08064FF010
:102AB000020CB0EB0C0CE84608EBCC08D8E900C8D7
:102AC0004FEA9C1C4CEA886C87EA0C0786EA981649
:102AD0004FF0070CB0EB0C0CE84608EBCC0CDCE933
:102AE000008C17EB080B46EB0C080F26861B6F4675
:102AF00007EBC607D7E9006C37465FEA5C064FEA8A
:102B000037074FF00F0CB0EB0C0C1DF83CC046EA39
:102B1000CC764FF00F0CB0EB0C0CE94609EBCC096E
:102B2000D9E900C94FEA1C2C4CEA096C4FEA192973
:102B30004FF00F0AB0EB0A0A1DF83AA049EA0A69F9
:102B400087EA0C0786EA09064FF00F0CB0EB0C0C75
:102B5000E94609EBCC09D9E900C94FEADC1C4CEA8B
:102B6000496C87EA0C0786EAD91C1BEB070648EB81
:102B70000C081027C71BEC460CEBC707D7E90097DA
:102B8000B4464646B8461CEB090746EB0806EC4639
:102B90000CEBC00CCCE90076401C41F10001502741
:102BA000C71B71F10006FFF451AFD2E92667B39756
:102BB000B29602F19807D7E90267B197B09602F191
:102BC000980677693669AF97AE9602F19807D7E90C
:102BD0000667AD97AC9602F19806D6E90834F76A15
:102BE000B66AAB97AA9602F19806776B366BA997EF
:102BF000A89602F19807D7E90E67A797A696002036
:102C00000146E2E09E0B46EA84464FEA943CB04619
:102C10004CEA83499E0C46EA8436A70C47EA833780
:102C200088EA060C89EA07064FEA5428E70547EACE
:102C3000532748EAC358B94637468CEA080687EA5C
:102C40000908B146DDF89CC2A69F19EB070948EBBD
:102C50000C06AA9F1F40DDF8ACC204EA0C0CDDF89C
:102C6000A08228EA030BDDF8A4E22EEA040A87EA30
:102C70000B078CEA0A0C19EB070746EB0C06DFF88A
:102C800014C20CEBC00CDCE9008C17EB080746EB18
:102C90000C06E84608EBC008D8E900C817EB0C079B
:102CA00046EB0806A297A396B29E360FB39F46EA5C
:102CB00007164FEA1778B29F48EA0718B39F4FEA02
:102CC0009709DDF8CCC24FEA8C7CB29F4CEA970C96
:102CD00049EA8777E246C44686EA07088CEA0A0C86
:102CE000B39E4FEAD6197606B29F46EAD71649EA4E
:102CF000476988EA09078CEA0606DDF8C0A2DDF814
:102D0000C88208EA0A08DDF8CCC2DDF8C4920CEAF1
:102D1000090CDDF8B8B2DDF8C89209EA0B09DDF854
:102D2000BCE2DDF8CCA20AEA0E0A88EA09088CEABD
:102D30000A0CDDF8C09209EA0B09DDF8C4A20AEA20
:102D40000E0A88EA09088CEA0A0917EB080C46EB18
:102D50000906CDF880C2A196DDF8A4C2A89ECDF8E0
:102D60009CC2A696DDF8ACC2AA9ECDF8A4C2A896D5
:102D7000AB94AA93DDF8B4C2DDF8B092A29FA39EF3
:102D800019EB07034CEB0604DDF8BCC2AE9ECDF890
:102D9000B4C2AC96DDF8C4C2B09FCDF8BCC2AE9749
:102DA000DDF8CCC2B29FCDF8C4C2B097DDF880C2C6
:102DB000DDF88482A29FA39E17EB0C0746EB080662
:102DC000B297B396401C41F100015027C71B71F127
:102DD0000006FFF417AFD2E92697DDF8C8C2B39E0C
:102DE00019EB0C0C7741C2E926C702F19806D2E92B
:102DF0002897DDF8C0C2B19E19EB0C0C7741A426D0
:102E0000C2F8A0C0B750D2E92A86DDF8BCC2AE9F96
:102E100018EB070746EB0C06C2E92A76D2E92C86A6
:102E2000DDF8B4C2AC9F18EB070746EB0C06C2E90D
:102E30002C7602F19806D6E90876FF186641C2E9B9
:102E40002E76D2E93097DDF8ACC2AA9E19EB0606C1
:102E500047EB0C07C2E93067D2E93286DDF8A4C23D
:102E6000A89F18EB070746EB0C06C2E93276D4267A
:102E7000B758D2F8D080DDF898C2A79E18EB0C0C9A
:102E80007741D426C2F8D0C0B7500DF5357DBDE8E6
:102E9000F08F0000303500082DE9F04104460E4661
:102EA0001746002531E0705DD4F88010605454F866
:102EB000800F401C206054F88009802824D12146CE
:102EC0002046FFF741FD54F8883F4FF48062606868
:102ED0009A1840F10000C4E90020D4E90010883CB1
:102EE0004FF48063C91A70F100000AD204F188001F
:102EF000D0E902305A1C40F1000004F18801C1E918
:102F000002200020C4F880006D1CBD42CBD3BDE878
:102F1000F081024607E010780B78984201D000203B
:102F20007047521C491C107810B108780028F2D163
:102F3000107818B9087808B90120F1E70020EFE708
:102F40000000000000000000000000000000000081
:102F5000000000F800000000000000333000000016
:102F600000100C06100C060000000000000000001D
:102F700040C07840C0784000043F04043F0404008F
:102F8000007088FC08300000001820FF211E00009F
:102F9000F008F000E018000000211C031E211E00B4
:102FA00000F00888700000001E212324192721103A
:102FB00010160E00000000000000000000000000DD
:102FC000000000E018040200000000071820400084
:102FD00000020418E0000000004020180700000074
:102FE000404080F0804040000202010F01020200D8
:102FF000000000F0000000000101011F01010100BC
:10300000000000000000000080B070000000000020
:1030100000000000000000000001010101010101A9
:103020000000000000000000003030000000000040
:103030000000000080601804006018060100000015
:1030400000E010080810E000000F102020100F0012
:10305000001010F8000000000020203F2020000099
:1030600000700808088870000030282422213000F1
:1030700000300888884830000018202020110E00F9
:103080000000C02010F8000000070424243F2400A2
:1030900000F80888880808000019212020110E0077
:1030A00000E0108888180000000F112020110E0089
:1030B00000380808C83808000000003F0000000081
:1030C0000070880808887000001C222121221C0042
:1030D00000E010080810E0000000312222110F006B
:1030E000000000C0C0000000000000303000000000
:1030F0000000008000000000000080600000000070
:103100000000804020100800000102040810200088
:1031100040404040404040000404040404040400D3
:103120000008102040800000002010080402010068
:10313000007048080808F000000000303601000068
:10314000C030C828E810E0000718272423140B001B
:103150000000C038E0000000203C23020227382095
:1031600008F8888888700000203F202020110E0079
:10317000C030080808083800071820202010080070
:1031800008F808080810E000203F202020100F0059
:1031900008F88888E8081000203F20202320180025
:1031A00008F88888E8081000203F2000030000008D
:1031B000C03008080838000007182020221E02002E
:1031C00008F808000008F808203F210101213F20ED
:1031D000000808F8080800000020203F2020000018
:1031E00000000808F8080800C08080807F00000008
:1031F00008F888C028180800203F20012638200041
:1032000008F8080000000000203F202020203000A7
:1032100008F8F800F8F80800203F003F003F2000C1
:1032200008F830C00008F808203F200007183F00C9
:10323000E01008080810E0000F10202020100F00F8
:1032400008F808080808F000203F210101010000EB
:10325000E01008080810E0000F18242438504F0030
:1032600008F8888888887000203F2000030C3020F0
:1032700000708808080838000038202121221C002E
:10328000180808F8080818000000203F2000000077
:1032900008F808000008F808001F202020201F0060
:1032A0000878880000C83808000007380E010000C0
:1032B000F80800F80008F800033C0700073C03008A
:1032C000081868808068180820302C03032C3020F0
:1032D0000838C800C83808000000203F200000005F
:1032E00010080808C83808002038262120201800B7
:1032F000000000FE020202000000007F404040008B
:10330000000C30C000000000000000010638C000C2
:1033100000020202FE000000004040407F0000006A
:10332000000004020202040000000000000000008F
:10333000000000000000000080808080808080808D
:103340000002020400000000000000000000000075
:1033500000008080808000000019242222223F206B
:1033600008F8008080000000003F112020110E00AE
:103370000000008080800000000E1120202011003D
:10338000000000808088F800000E112020103F20EF
:103390000000808080800000001F22222222130073
:1033A000008080F0888888180020203F20200000BE
:1033B0000000808080808000006B94949493600073
:1033C00008F8008080800000203F210000203F207E
:1033D00000809898000000000020203F202000007E
:1033E000000000809898000000C08080807F00006E
:1033F00008F8000080808000203F24022D3020004B
:10340000000808F8000000000020203F20200000F5
:103410008080808080808000203F20003F20003F0F
:103420008080008080800000203F210000203F201D
:103430000000808080800000001F202020201F00CE
:10344000808000808000000080FFA12020110E00FD
:103450000000008080808000000E112020A0FF80EE
:10346000808080008080800020203F21200001009B
:1034700000008080808080000033242424241900F0
:10348000008080E0808000000000001F20200000FD
:103490008080000000808000001F202020103F203E
:1034A000808080000080808000010E3008060100CE
:1034B00080800080008080800F300C030C300F0073
:1034C00000808000808080000020312E0E3120009E
:1034D000808080000080808080818E7018060100CE
:1034E00000808080808080000021302C22213000EC
:1034F00000000000807C020200000000003F40400D
:1035000000000000FF00000000000000FF000000BD
:103510000002027C800000000040403F00000000EC
:103520000006010102020404000000000000000087
:1035300022AE28D7982F8A42CD65EF239144377168
:103540002F3B4DECCFFBC0B5BCDB8981A5DBB5E9DA
:1035500038B548F35BC2563919D005B6F111F159A7
:103560009B4F19AFA4823F9218816DDAD55E1CABD8
:10357000420203A398AA07D8BE6F7045015B83126D
:103580008CB2E44EBE853124E2B4FFD5C37D0C5528
:103590006F897BF2745DBE72B196163BFEB1DE8020
:1035A0003512C725A706DC9B942669CF74F19BC111
:1035B000D24AF19EC1699BE4E3254F388647BEEFAE
:1035C000B5D58C8BC69DC10F659CAC77CCA10C2466
:1035D00075022B596F2CE92D83E4A66EAA84744AD8
:1035E000D4FB41BDDCA9B05CB5531183DA88F97610
:1035F000ABDF66EE52513E981032B42D6DC631A845
:103600003F21FB98C82703B0E40EEFBEC77F59BF28
:10361000C28FA83DF30BE0C625A70A934791A7D513
:103620006F8203E05163CA06706E0E0A672929147F
:10363000FC2FD246850AB72726C9265C38211B2EC7
:10364000ED2AC45AFC6D2C4DDFB3959D130D3853F4
:10365000DE63AF8B54730A65A8B2773CBB0A6A7607
:10366000E6AEED472EC9C2813B358214852C72929D
:103670006403F14CA1E8BFA2013042BC4B661AA81A
:103680009197F8D0708B4BC230BE5406A3516CC7D3
:103690001852EFD619E892D110A96555240699D68B
:1036A0002A20715785350EF4B8D1BB3270A06A104C
:1036B000C8D0D2B816C1A41953AB4151086C371EFB
:1036C00099EB8EDF4C774827A8489BE1B5BCB03416
:1036D000635AC9C5B30C1C39CB8A41E34AAAD84EF8
:1036E00073E363774FCA9C5BA3B8B2D6F36F2E68BF
:1036F000FCB2EF5DEE828F74602F17436F63A57885
:1037000072ABF0A11478C884EC39641A0802C78C33
:10371000281E6323FAFFBE90E9BD82DEEB6C50A445
:103720001579C6B2F7A3F9BE2B5372E3F27871C6CE
:103730009C6126EACE3E27CA07C2C021C7B886D1FF
:103740001EEBE0CDD67DDAEA78D16EEE7F4F7DF5C7
:10375000BA6F1772AA67F006A698C8A2C57D630A59
:10376000AE0DF9BE04983F111B471C13350B711B9E
:10377000847D0423F577DB289324C7407BABCA32D2
:10378000BCBEC9150ABE9E3C4C0D109CC4671D43AF
:10379000B6423ECBBED4C54C2A7E65FC9C297F59DF
:1037A000ECFAD63AAB6FCB5F1758474A8C19446C8A
:1037B000D0370008000000202C0000004C1E00083C
:1037C000FC3700082C000020040600005C1E0008E6
:1037D00000000000000000000000000003000000E6
:1037E00000000000000000000102030401020304C5
:0C37F000060708090000000000000000AF
:040000050800018965
:00000001FF
