:020000040802F0
:10000000C832012099020208233402087131020823
:10001000213402087F080208F95D02080000000090
:10002000000000000000000000000000D9010208EC
:10003000E50902080000000035020208893F0208B5
:10004000B3020208B3020208B3020208B3020208B4
:10005000B3020208B3020208B3020208B3020208A4
:10006000B3020208B3020208B3020208B302020894
:10007000B3020208B3020208B3020208B302020884
:10008000B3020208B3020208B3020208B302020874
:10009000B3020208B3020208B3020208B302020864
:1000A000B302020865400208B3020208B302020864
:1000B000B3020208B3020208B3020208B302020844
:1000C000B3020208B3020208B3020208A135020813
:1000D000AD35020855420208B3020208B302020815
:1000E000B3020208B3020208B3020208B302020814
:1000F000B3020208B3020208B3020208B302020804
:1001000000000000B3020208B3020208B3020208B2
:100110000000000000000000B3020208B302020861
:1001200011090208B30202081D0902082909020880
:10013000B3020208B3020208B3020208B3020208C3
:10014000B3020208B3020208B3020208253402080F
:10015000B3020208B302020835090208B30202081A
:10016000B3020208B3020208000000000000000011
:10017000000000000000000000000000000000007F
:10018000B3020208B30202080000000000000000F1
:10019000B3020208B30202080000000000000000E1
:1001A000000000000000000000000000000000004F
:1001B000B30202080000000000000000B3020208C1
:1001C000B3020208DFF80CD000F01CFB0048004727
:1001D000A16C0208C83201202C4B19680868B0E8ED
:1001E000F04F80F30988BFF36F8F4FF0000080F36A
:1001F000118870470000000008480068006880F31C
:1002000008884FF0000080F3148862B661B6BFF32F
:100210004F8FBFF36F8F00DF00BF00BF08ED00E01E
:10022000DFF80C00016841F470010160704700BF05
:1002300088ED00E0EFF30980BFF36F8F134B1A686E
:100240001EF0100F08BF20ED108A20E9F04F10605B
:1002500009B44FF0500080F31188BFF34F8FBFF304
:100260006F8F07F091FD4FF0000080F3118809BCFB
:1002700019680868B0E8F04F1EF0100F08BFB0EC26
:10028000108A80F30988BFF36F8F70472C0000201D
:10029000EFF3058070470000064880470648004796
:1002A000FEE7FEE7FEE7FEE7FEE7FEE7FEE7FEE726
:1002B000FEE7FEE749400208C50102082DE9F05FAC
:1002C0000546002092469B468846064681464024C5
:1002D0001BE0284641464746224600F014FA5346A2
:1002E0005A46C01A914110D311461846224600F0D2
:1002F000FBF92D1A67EB01084F4622460120002129
:1003000000F0F2F917EB00094E41201EA4F10104A0
:10031000DFDC484631462A464346BDE8F09F0000F0
:1003200000487047FC88020840EA01039B0703D09D
:1003300009E008C9121F08C0042AFAD203E011F824
:10034000013B00F8013B521EF9D27047D2B201E0E6
:1003500000F8012B491EFBD270470022F6E710B5CA
:1003600013460A4604461946FFF7F0FF204610BD23
:10037000421C10F8011B0029FBD1801A704730B5D0
:1003800005460020034600E05B1C934205D2EC5C6E
:10039000C85C201A01D1002CF6D130BD2DE9FE4FEA
:1003A000804681EA0300C00F0C46009021F0004116
:1003B00023F00045B8EB0200A94105D24046214692
:1003C00090461C460B46024623F00040104347D09F
:1003D000270DC7F30A00C3F30A510290401A019097
:1003E00040286BDAC3F3130040F4801B0098924658
:1003F00020B10023D2EB030A63EB0B0B01985946A3
:10040000C0F14002504600F06FF906460D465046D6
:100410005946019A00F087F910EB08006141002469
:1004200087EA115284EAE7731A4340D0009A62B314
:10043000019A012A4FEA075215DC001B61EB020109
:100440004FF0004202EA0752CDE90042001C41F59C
:10045000801132462B4600F087F903B0BDE8F08FDB
:1004600040462146F9E7001B61EB0201001C41F503
:10047000801300185B412018A2F5001747EB030119
:1004800040EAD570B6196D4111E06D084FEA3606A5
:1004900045EAC0754FEA0752001B61EB0201001CE0
:1004A00041F5801149084FEA3000001951413246A8
:1004B0002B4603B0BDE8F04F00F047B90098012289
:1004C00040000023D0EB020263EBE073009821466A
:1004D0004FEAE074B8EB000061EB0401E9E783F058
:1004E00000435BE781F0004158E72DE9FE4F81EAC8
:1004F000030404F0004421F0004100944FF0000B8D
:1005000023F0004350EA01045ED052EA03045BD0BA
:10051000C3F30A54C1F30A552C44A4F2F3340194F2
:10052000A0FB0254C1F3130141F48011C3F3130380
:1005300043F4801301FB024400FB034E840A970A34
:1005400044EA815447EA8357A4FB076802958D0A61
:1005500005FB07854FEA932C04FB0C542705029DED
:100560004FEA065847EA1637B5EB08056EEB070C5D
:10057000870E920E47EA811742EA8312A7FB020117
:10058000B6EB0B0164EB00042B0D43EA0C335E1851
:1005900044EB1C50DA465146E7FB0201C5F3130455
:1005A0004FEA0B3343EA14534FEA0432019C43EA07
:1005B0000603A4F10C040294009CCDE900B400F001
:1005C000D3F803B0BDE8F08F00200146F9E72DE92C
:1005D000F04D81EA030404F0004B21F0004514467D
:1005E0004FF0000A23F0004150EA050220D054EAFF
:1005F00001021DD0C5F30A570246C5F31303C1F328
:100600001300C1F30A5640F4801543F48013A7EB9E
:100610000608101BD64608F2FD3873EB050002D31E
:1006200008F1010801E092185B41B8F1000F03DA0C
:1006300000200146BDE8F08D00204FF480110646F1
:1006400084460EE0171B73EB050705D3121B63EB03
:10065000050306434CEA010C49084FEA30009218A2
:100660005B4150EA0107EDD152EA030012D082EA61
:10067000040083EA0501084305D0101BAB4106D2F4
:100680000122002306E000224FF0004302E06FF059
:10069000010253101AEB06004CEB085110EB0A0054
:1006A00041EB0B01BDE8F04D00F04FB80EB5C10FA6
:1006B00080EAE0700844CA07002140F233438DE825
:1006C0000E000A460B4600F04FF803B000BD0EB511
:1006D00040F2334102910021CDE900110A460B4658
:1006E00000F042F803B000BD202A04DB203A00FAF3
:1006F00002F1002070479140C2F1200320FA03F379
:10070000194390407047202A04DB203A21FA02F076
:100710000021704721FA02F3D040C2F1200291403B
:10072000084319467047202A06DBCB17203A41FAC6
:1007300002F043EAE07306E041FA02F3D040C2F16E
:100740002002914008431946704710B5141E73F1FA
:10075000000408DA401C41F1000192185B411A4381
:1007600001D120F0010010BD2DE9F04D92469B46CD
:1007700011B1B1FA81F202E0B0FA80F22032904673
:10078000FFF7B2FF04460F4640EA0A0041EA0B01B8
:1007900053465A46084313D0114653EA010019D074
:1007A000C8F140025046FFF7AEFF05460E465046E0
:1007B00059464246FFF798FF084305D0012004E060
:1007C00020463946BDE8F08D0020054346EAE07634
:1007D0002C4337430A986305E40AA0EB0800002283
:1007E000FD0A44EA47540A3002D500200146E9E7F1
:1007F000010510196941DDE9084500196941BDE8A5
:10080000F04DA2E7064C074D06E0E06840F001031A
:1008100094E8070098471034AC42F6D3FFF7D6FCB3
:10082000EC8902080C8A020870B58C1810F8015B7C
:1008300015F0070301D110F8013B2A1106D110F879
:10084000012B03E010F8016B01F8016B5B1EF9D17D
:100850002B0705D40023521E0DD401F8013BFAE703
:1008600010F8013BCB1A921C03E013F8015B01F86E
:10087000015B521EF9D5A142D8D3002070BDFEE71E
:10088000002070470020704710B500220449054839
:1008900003F00AFF0249034803F0F9FE002010BDEF
:1008A000FC00012020FC002010B504460868C4F8B4
:1008B000000809480023074A2146006807F072FB38
:1008C0002146064803F0E3FE044803F0B9FE002089
:1008D00010BD0000080100200400002020FC0020C2
:1008E00000207047094A10B5D2F8BC22D2F8142271
:1008F0000AB1012010BD0A460146044803F0D4FEA7
:10090000BDE81040014803F049BF000020FC002072
:10091000014800F0F7B8000018050020014800F079
:10092000F1B80000280A0020014800F0EBB80000F0
:1009300078050020014800F0E5B80000880A002092
:1009400001681823CAB2103AB2FBF3F2054B6FF3F9
:100950000901032A9B5CC36500D9091D816508460E
:1009600070470000CC85020810B5014600208B6955
:100970008A6A4FF0C07453B1B3F5005F15D072B1FD
:10098000012A0CD0022A0AD0032A09D104E01AB1A4
:10099000012A06D0022A03D1C96AC90100D5012063
:1009A00010BDC96AA142FAD010BD002AF7D0012AB1
:1009B000F2D0022AF3D0032AF3D010BD30B5046878
:1009C000256825F480252560046863608368402BD2
:1009D000036803D099600068C26030BD9A60006807
:1009E000C16030BD704772B6FEE72DE9F0410446A4
:1009F000876D00F079FB064694F835000025022843
:100A000006D08020606584F834500120BDE8F08174
:100A10002068016821F0160101602068416921F019
:100A200080014161206C08B9A06C20B12068016888
:100A300021F0080101602068016821F001010160D6
:100A40000CE000F051FB801B052807D920206065D1
:100A5000032084F8350084F83450D7E72068006814
:100A6000C007EED194F85C103F208840B8600120A8
:100A700084F8350084F834500020C7E790F835102A
:100A8000022903D08021416501207047052180F8AB
:100A900035100068016821F00101016000207047F5
:100AA00070B504002BD094F83500022826D02068B9
:100AB000016821F0010101602068002505602068BF
:100AC0004560206885602068C560206805612168F0
:100AD000212048612046FFF733FFE5632564656404
:100AE000A564E564256594F85C203F219140816010
:100AF000656584F8355084F83450002070BD0120BD
:100B000070BD00002DE9F84304464FF00009CDF810
:100B1000009063484FF41651A56D0068B0FBF1F7E3
:100B20002E6894F85C10082000FA01F131420FD0D1
:100B300021680A6852070BD50A6822F004020A608D
:100B400094F85C108840A860606D40F0010060651A
:100B500094F85C104FF0010808FA01F0304208D018
:100B600021684969090604D5A860606D40F002005B
:100B7000606594F85C1004208840304208D02168F9
:100B80000968890704D5A860606D40F004006065BD
:100B900094F85C1010208840304218D02168096811
:100BA000090714D5A86020680168490304D50068C6
:100BB000000308D5A16C07E00168C90503D40168EA
:100BC00021F008010160216C09B12046884794F8A2
:100BD0005C1020208840304231D021680968C90665
:100BE0002DD5A86094F8350005282068016806D046
:100BF000490347D5006800031DD4616C1CE021F057
:100C0000160101602068416921F080014161206C7A
:100C100008B9A06C20B12068016821F008010160CA
:100C200094F85C103F208840A86084F8358084F8F0
:100C30003490216D1FE0E16B09B120468847606D5B
:100C400000282BD0606DC00714D0052084F8350033
:100C50002068016821F0010101600098401C0090AB
:100C6000B84203D820680068C007F6D184F8358000
:100C700084F83490E16C002910D001B02046BDE822
:100C8000F04308470168C905D5D4016821F0100177
:100C9000016084F8358084F83490CCE7BDE8F883AF
:100CA000280000202DE9F041044600F01DFA064618
:100CB0005CB1022084F83500002584F834502068A7
:100CC000016821F0010101600DE00120BDE8F08123
:100CD00000F00AFA801B052805D920206065032052
:100CE00084F83500F2E720680068C007F0D1226878
:100CF000116820480140D4E901031843D4E90336C0
:100D00003343184363691843A3691843E3691843DD
:100D1000236A18430843616A042903D1D4E90B13F9
:100D200019430843106020684069666A20F0070193
:100D300030460E43012704280CD1A06A0643E06A1E
:100D400040B12046FFF710FE20B14020606584F8D6
:100D50003570BAE7206846612046FFF7F1FD94F848
:100D60005C203F2191408160656584F835700020EA
:100D7000ACE700003F8010F02DE9F0410446866D9D
:100D800090F83400002501280DD0012084F83400AB
:100D900094F835700020012F07D084F83400022524
:100DA0002846BDE8F0810220FBE7022784F8357071
:100DB00060652046FFF702FE94F85C103F208840F3
:100DC000B0602068016841F016010160206C20B11C
:100DD0002068016841F0080101602068016841F065
:100DE00001010160DCE7000070B5044600F07CF909
:100DF0000546601C02D004480078044400F074F9F1
:100E0000401BA042FAD370BD1C0000202DE9F04F1A
:100E10000022DFF8FCB001264FF00F0906FA02F4B9
:100E200001EA0403A3426DD122F003075F44D7F81F
:100E3000088895074FEA157C09FA0CFA0AEA0805B2
:100E4000DFF8D080404502D14FF0000816E0DFF80F
:100E5000C880404502D14FF001080FE0DFF8BC80A8
:100E6000404502D14FF0020808E0DFF8B480404569
:100E700002D14FF0030801E04FF0070808FA0CF820
:100E8000A84522D1274DD5F800C02CEA030CC5F89F
:100E900000C02D1DD5F800C02CEA030CC5F800C019
:100EA000204D0C35D5F800C02CEA030CC5F800C065
:100EB0002D1FD5F800C02CEA030CC5F800C0D7F8E8
:100EC000085825EA0A05C7F808580568570003239B
:100ED000BB409D430560D50800EB8507D7F820C0CF
:100EE00055074FEAD56809FA08F52CEA050CC7F84A
:100EF00020C0C5689D43C5604568A54345608468BA
:100F00009C438460521C102A88D3BDE8F08F0000F7
:100F1000003001400000024000040240000802408E
:100F2000000C0240003C01402DE9F84FDFF890A191
:100F30000022012403254FF00F090AF1040BAAF146
:100F4000040E00BF0B6804FA02F63340B3426ED1C0
:100F50000F7907F00307012F01D0022F16D1876800
:100F60004FEA420805FA08FC27EA0C07D1F80CC042
:100F70000CFA08FC4CEA070CC0F808C04768B743F5
:100F80000E79C6F3001696403E4346600E79F6434E
:100F9000B6070AD0C6684FEA420C05FA0CF7BE4302
:100FA0008F6807FA0CF73743C7600E7906F003061F
:100FB000022E10D1D60800EB8608D8F8206057071B
:100FC0004FEAD76C09FA0CF7BE430F6907FA0CF722
:100FD0003743C8F8207006684FEA420C05FA0CF750
:100FE000BE430F7907F0030707FA0CF73743076092
:100FF0004E6816F4403F5CD0324E376847F4804765
:101000003760366822F0030706F4804600962E4EBD
:1010100007EB060CDCF8086897074FEA177809FA1F
:1010200008F7BE43294FB84202D1002710E040E044
:10103000274FB84201D101270AE0264FB84201D11B
:10104000022705E0244FB84201D1032700E007271B
:1010500007FA08F73743CCF80878DAF80060574603
:10106000D1F804C09E435FEACC2C00D51E433E60FD
:10107000DBF800605F46D1F804C09E435FEA8C2C29
:1010800000D51E433E60DEF800607746D1F804C00C
:101090009E435FEA8C3C00D51E433E60084F083FEC
:1010A0003E68D1F804C09E435FEACC3C00D51E43A5
:1010B0003E60521C102AFFF445AFBDE8F88F0000D7
:1010C000083C01404438024000300140000002402A
:1010D0000004024000080240000C02400AB1816195
:1010E00070470904FBE70000014880687047000072
:1010F0001C0000200248816802781144816070471A
:101100001C0000200B4810B5016841F4007101601B
:10111000016841F480610160016841F480710160FF
:10112000032000F0A9F80F2000F006F800F04AF8BC
:10113000002010BD003C024030B505461C4887B079
:101140000024016841F001010160006806A900F077
:101150000100009001A800F0F3FF01F027F8154905
:10116000154AB0FBF1F11548491E026040F2E73222
:10117000C0E90324C0E90114846101F03CFE0400CD
:1011800012D10E4801F066FE04000DD1192000F0C6
:1011900046F8102D07D200222946192000F04CF8FD
:1011A0000748056000E0012407B0204630BD00007C
:1011B0004438024040420F0000000140E80A00208D
:1011C000200000200C4882B0016841F48041016099
:1011D000006800F4804000900748001F016841F05B
:1011E000805101600068002200F0805000900F21C3
:1011F000901E02B000F020B84438024000280DDBF9
:1012000000F01F02012191404009800000F1E02020
:10121000C0F88011BFF34F8FBFF36F8F7047002866
:1012200009DB00F01F02012191404009800000F11C
:10123000E020C0F800117047F0B40E4B1B680C465C
:10124000C3F30223C3F10705042D00D90425191D9A
:10125000072901D2002300E0DB1E012606FA05F172
:10126000491E214099409E40761E16403143F0BCF5
:1012700004F090BF0CED00E0064900F0070208689A
:101280004FF6FF03184040EA0220034A104308606B
:10129000704700000CED00E00000FA050122016833
:1012A000C0F8D824002280F8CC24886940F000607F
:1012B0008861486D024A104348650020704700006D
:1012C0000300001070B5164D0446A1B1012911D1DB
:1012D0002068D0F8001E41F00101C0F8001ED4F8CB
:1012E000E00403F016FEE07A002803D0286840F0FE
:1012F0000600286070BDE07A28B102F05BFE286825
:1013000020F0060028602068D0F8001E21F00101BE
:10131000C0F8001ED4F8E004BDE8704003F094BDAE
:1013200010ED00E00068416200207047F0B50368EE
:10133000586A39B19C6A4FF4827600EB144400205D
:101340004D1E0AE040EA024098620FE006EB80077B
:10135000DF59401C04EB1744C0B2A842F6D344EA5C
:1013600002404FF4807202EB810158500020F0BD22
:10137000D0F8E00403F0A8BC01EBC10200EB82024C
:10138000D0F8E004126A03F0FDBB01EBC10200EBF0
:101390008202D0F8E004D2F8602203F04EBCD0F80C
:1013A000E00403F093BC0A0601F00F0101EBC10158
:1013B00000EB810101D5143101E001F515710068E0
:1013C00004F068BB70B504460B0601F00F0000EB9B
:1013D000C00104EB81014FF001024FF0000502D57E
:1013E0004A75143103E081F8555201F51571087002
:1013F00094F89404012808D084F89424206804F018
:101400006BF884F89454002070BD022070BD70B554
:10141000044601F00F002279904201D9012070BDED
:101420000B0601F00F0101EBC10104EB81014FF04C
:1014300001024FF0000502D54A75143103E081F82E
:10144000555201F515718D70087094F894040128B7
:1014500008D084F89424206804F0ACF984F89454FB
:10146000002070BD022070BD01F00F0101EBC10131
:1014700000EB8100D0F8680270472DE9F041044686
:101480000F0601F00F0000EBC00104EB81014FF0EB
:1014900001064FF0000502D54E75143103E081F8C6
:1014A000555201F5157108708A600B714A7802B1C6
:1014B0004883022B00D14D7194F89404012809D07F
:1014C00084F89464206803F059FF284684F8945403
:1014D000BDE8F0810220FBE710B501F00F0404EB3A
:1014E000C40100EB8101C1E998230023C1F86832EF
:1014F00081F8553281F85442837901F51571012B39
:1015000000D1CA618279006804F0ACF9002010BDF6
:1015100070B504460D4601F00F002179884201D9CB
:10152000012070BD29064FF000064FF0010206D5DC
:1015300000EBC00104EB81014A75143107E005EBB3
:10154000C50104EB810181F8556201F515718A70BE
:10155000087094F89404012807D084F89424206833
:1015600004F054F9280702D007E0022070BDA179E9
:1015700004F29C42206804F0F1F884F8946400209E
:1015800070BD10B501F00F0404EBC40100EB810144
:10159000C1E9082300238B6201234B7501F8144F26
:1015A0008379012B00D1CA618279006804F05AF96D
:1015B000002010BD2DE9FC5F05680446284604F0B4
:1015C00005FB00287DD1206804F02CFB002878D092
:1015D000D5F80808C0F30D20C4F8D404206804F03E
:1015E00021FB800704D52068416901F002014161B7
:1015F000206804F017FBC10604F29C40009034D52B
:101600002068816921F0100181612F6A07F00F00C5
:1016100000EBC00004EB8006C7F3434006F51576E7
:10162000022802D0062811D01AE047F6F0700742CF
:1016300016D0C7F30A1217462846F16804F0F6FAE6
:10164000F0683844F0607069384408E008222846A1
:10165000009904F0EBFA7169C7F30A10084470614D
:101660002068816941F010018161206804F0DAFA94
:1016700000034FF0080B4FF0000A4FF001097CD532
:101680000026206804F0ADFA074674E0F80770D031
:10169000F1B2206804F0BEFA8046C00707D005EB1F
:1016A0004611C1F8089B3146204601F0C1FE5FEAB1
:1016B000087024D505EB4611C1F808BB2068016C01
:1016C00000E041E200EB46100191D0F8083BFE4AF1
:1016D000914205D9190403D54FF40041C0F8081B05
:1016E000204600F023FBF8490198884207D9A079E9
:1016F000012804D120680121009A04F02FF85FEA44
:10170000C86004D505EB46111020C1F8080B5FEA4C
:1017100088701DD56869000605D5D5F8040840F421
:101720008061C5F8041806EBC60004EB800090F851
:10173000571200F51570012905D180F803A0F1B208
:10174000204600F007FA05EB46110220C1F8080B0D
:101750005FEA886004D505EB46102021C0F8081B1D
:101760005FEA884005D505EB46104FF40051C0F8FC
:10177000081B7F08761C002F88D1206804F052FADD
:1017800040036ED5206804F025FA0746002666E07F
:10179000F80762D0F1B2206804F02AFA8046C00748
:1017A00023D006F00F0209FA02F0D5F8342882435C
:1017B000C5F8342805EB4610C0F80899A07901282F
:1017C0000FD106EBC60004EB8000D0E907211144DD
:1017D000016236B9606A20B920680121009A03F0DD
:1017E000BDFFF1B22046FFF7C7FD5FEA087003D5E1
:1017F00005EB4611C1F808B95FEAC86004D505EBEE
:1018000046111020C1F808095FEA486004D505EBCD
:1018100046104021C0F808195FEA887016D5314695
:10182000284604F0A8F906EBC60004EB8000C17D51
:101830001430012905D180F803A0F1B2204600F050
:1018400085F905EB46110220C1F808095FEA086036
:1018500003D53146204601F051FE7F08761C002F4B
:1018600096D1206804F0DEF9002811DAD5F80408D2
:1018700020F00101C5F8041894F8CC0401283BD0ED
:10188000204600F038FA2068416901F000414161CA
:10189000206804F0C7F900050BD5D5F80808C00783
:1018A00002D0204600F06AFA2068416901F4006124
:1018B0004161206804F0B6F900010AD52068416949
:1018C00001F00061416194F8CC04E0B1204600F0E1
:1018D00055FA206804F0A6F9C00473D5D5F80408B9
:1018E00020F00100C5F804081021206804F043F935
:1018F00000214FF67F322CE084F8CCA40021204652
:10190000FFF7E0FCBFE784F8CC942068406D01212C
:10191000C0F38300C4F8D0042046FFF7D3FCD8E717
:1019200005EB4110C0F80829D0F8003923F4001362
:10193000C0F80039C0F8082BD0F8003B23F400139E
:10194000C0F8003BD0F8003B43F00063C0F8003B18
:10195000491C20798842E3D8D5F81C0840F00111D1
:10196000C5F81C18E07B002828460DD0D0F8840864
:1019700040F00B01C5F88418D5F8440840F00B017D
:101980002846C5F844180DE0D0F8140842F22B019F
:101990000843C5F81408D5F8100840F00B01284694
:1019A000C5F81018D0F8000820F4FE61C5F800183A
:1019B000A1792068009A03F0D1FE2068416901F402
:1019C00080514161206804F02DF9800415D520680C
:1019D00003F014FD206804F0ECF8E07100F0D0FB97
:1019E0000146E279206804F07FF9204600F070F9A2
:1019F0002068416901F400514161206804F012F946
:101A0000000707D5204600F07AF92068416901F007
:101A100008014161206804F005F9000616D5A8699F
:101A200020F08001A96101260DE000BF06EBC60091
:101A300004EB800090F85702012803D1F1B2204650
:101A4000FFF7B1FC761C2079B042EFD8206804F093
:101A5000E9F8C0021FD501264F4614E005EB4610F9
:101A6000D0F8000906EBC60104EB81010A7E012AC9
:101A700008D1002806DACF75F0B240F08001204688
:101A8000FFF791FC761C2079B042E7D820684169C5
:101A900001F480114161206804F0C4F8800236D559
:101AA00001204B462BE000BF05EB4011D1F8001B95
:101AB00000EBC00204EB820292F85862012E1DD1A5
:101AC00000291BDA02E000000A30544F94F8D46475
:101AD00001F4803106F00106B1420FD182F857328D
:101AE000A96941F08002AA616969090606D4D5F89E
:101AF000040840F40070C5F8040803E0401C217994
:101B00008142D1D82068416901F400114161206807
:101B100004F088F8400007D52046FFF729FC20682C
:101B2000416901F080414161206804F07BF8400781
:101B30000AD520684568680702D52046FFF72FFCC4
:101B40002068416829434160BDE8FC9FD0F8E0046B
:101B500003F00FB9D0F8E00403F01FB9F8B50400A2
:101B600005D094F895042668002510B106E0012000
:101B7000F8BD84F89454204600F05CF8032084F803
:101B80009504B6F1A04F00D1A571206803F0E0FDE7
:101B9000207C8DF8000094E80F0003F03DFC022645
:101BA000B8BB0021206804F060F890BB002001273A
:101BB0000DE000BF00EBC00104EB81014F7508751B
:101BC000C8850D76CD610D62401CC0B24D62217991
:101BD0008142EFD8002011E000EBC00104EB81014D
:101BE00081F8555281F8540281F85852C1F85C527C
:101BF000C1F86052401CC0B2C1F8645221798142E0
:101C0000EAD8207C8DF8000094E80F0003F0E6FC91
:101C100010B184F89564AAE7657484F89574207B04
:101C2000012802D12046FFF739FB206803F0C8FCE9
:101C30000020F8BD10B596B0044614210FA8FEF799
:101C40008CFB3C216846FEF788FB2068B0F1A04F72
:101C500038D1002420200A940090684600F0A6F8AD
:101C600008B1FEF7C0FE1848016841F001010160AB
:101C700000680FA900F0010014904FF4C0500F90BD
:101C80000220CDE91004032012900A2013900F487F
:101C9000FFF74AF90C48001D016841F0800101601E
:101CA00009481430016841F4804101600068002255
:101CB00000F48040149005214320FFF7BDFA432033
:101CC000FFF7ADFA16B010BD3038024000000240F8
:101CD00070B50446C0790125022801D0FEF783FEC5
:101CE0002946D4F8E00403F0C6F8D4F8E004BDE8CF
:101CF000704003F07BB8D0F8E00403F0A5B8D0F84A
:101D0000E00403F0ABB810B5044690F89404012841
:101D10000AD0012084F894046174206803F0D3FF92
:101D2000002084F8940410BD022010BDD0F8E024F7
:101D300000F29C41104603F0AAB810B504460068B2
:101D400094F89414012909D0012184F89414C168ED
:101D5000490609D5617B012902D005E0022010BDAA
:101D6000816B41F480318163206803F0E2FE2068DA
:101D700003F018FC002084F8940410BD10B504464C
:101D8000D0F8E00403F0C5F82068D0F8001E41F058
:101D90000101C0F8001EE07A002804D00248016862
:101DA00041F00601016010BD10ED00E02DE9F84F93
:101DB0000446007800268D4DC00708D02868616968
:101DC00020F0C06008432860606900B901262078CF
:101DD000800708D52868A16920F0C0500843286012
:101DE000A06900B9012620784FF0000A00074FF0E3
:101DF000010B55D57D484C38016841F08051016098
:101E00000068DFF8EC8100F080500090D8F80010F6
:101E100041F48071C8F80010FFF766F9074604E046
:101E2000FFF762F9C01B02286FD8D8F80000C00580
:101E3000F6D56E4F1C3F386810F440701FD0A18B50
:101E400001F4407181421AD0386820F44071694829
:101E5000C0F800B0C0F800A039603868C0070ED0E4
:101E6000FFF742F9804641F2883905E0FFF73CF977
:101E7000A0EB0801494548D838688007F6D5E169E4
:101E80005A48C1F301228438032A36D0016821F46C
:101E9000F81101603868A18BC1F30B010843386069
:101EA0002078DFF85491400703D594F83810C9F82A
:101EB000E0112078C106514805D50168626A21F415
:101EC00040011143016021784FF00067890609D570
:101ED0000168A26A21F0006111430160A16AB94260
:101EE00000D101262178490605D50168226A21F032
:101EF00080511143016066B908E00268404B22F44A
:101F0000F81219400A430260C4E754E020688028B0
:101F100057D15046DFF8ECA0CAF86800FFF7E4F8A4
:101F2000324E80468C3E05E0FFF7DEF8A0EB08005D
:101F3000022840D830680001F6D4616BC9F8D81087
:101F400020683149C20701D062697AB1820701D5A0
:101F5000A2695AB1820602D5A26ABA4206D04006E8
:101F60000FD5206A68B9A06AB8420AD1D4E9010243
:101F700040EA8210227B237C120642EA037210435D
:101F80000860207800060AD5D4E9010240EA8210F0
:101F9000227B237C120642EA037210430860CAF8CF
:101FA00068B0FFF7A1F8074608E000BFFFF79CF80C
:101FB000C01B022802D90320BDE8F88F3068000159
:101FC000F4D52088C00505D52868E16A20F00040D6
:101FD000084328602088800505D52868216B20F4F7
:101FE0000040084328600020E6E700008C380240EB
:101FF00000700040400E47420010474294380240B3
:10200000FFFCFF0F00004742843802402DE9F047F3
:102010000E46050065D0DFF81481D8F80000F7B24D
:1020200000F00700B04207D288F80070D8F800002E
:1020300000F00700B04254D128683D4C810712D50A
:10204000400703D5206840F4E0502060287800075E
:1020500003D5206840F4604020602068A96820F023
:10206000F000084320602878C0072DD03049686808
:102070000839012812D0022813D0032811D009688A
:10208000890700292DDA216821F00301014321602D
:10209000FFF72AF8814641F2883A0EE00968890381
:1020A000EFE709688901ECE7FFF71EF8A0EB0901EB
:1020B000514502D90320BDE8F0872068696800F027
:1020C0000C00B0EB810FEFD1D8F80010404601F0C2
:1020D0000701B14207D90770006800F00700B0425D
:1020E00001D00120E7E72878400705D52068E96896
:1020F00020F4E050084320602878000706D52068C7
:10210000296920F4604040EAC100206000F05EF8D8
:102110002168084AC1F30311515CC84006490860B0
:1021200006480068FFF708F80020C4E7003C0240BA
:1021300008380240D4850208280000202000002032
:102140000F2202600C4A136803F003034360136814
:1021500003F0F0038360136803F4E053C360126874
:102160004FF4E05303EAD20202610448006800F031
:10217000070008607047000008380240003C024039
:102180000148006870470000280000200448054905
:1021900000680968044AC1F38221515CC840704755
:1021A0002800002008380240E48502080448054958
:1021B00000680968044AC1F34231515CC840704765
:1021C0002800002008380240E4850208154810B5B0
:1021D000006810F00C02144813D04110042A0FD0EC
:1021E000082A0ED10F4C241F2268236802F03F02F8
:1021F0005B0207D52068C0F38810A0FB010106E050
:10220000084610BD2168C1F38811A1FB000100231D
:10221000FEF754F82168C1F30141491C4900B0FBA5
:10222000F1F010BD083802400024F4002DE9F84F09
:1022300004006ED02078DFF86093C007A9F1040590
:102240004AD009F104000168C1F38101012908D0D5
:102250000068C0F3810002280AD1D9F800004002CA
:1022600006D52868800337D560680028E1D033E0C0
:102270006068B0F5803F10D0B0F5A02F286810D06E
:1022800020F480302860286820F48020286060686E
:10229000A8B1FEF729FF06460DE0286840F480301B
:1022A000F4E740F480202860F7E700BFFEF71CFF4A
:1022B000801B642873D828688003F7D50CE0FEF7EC
:1022C00013FF064605E000BFFEF70EFF801B6428E3
:1022D000F0D828688003F7D42078DFF8C082800720
:1022E0004FF0000A3ED5AC48001D016811F00C0FFC
:1022F00008D00068C0F3810002280BD1D9F8000093
:10230000400207D42868800716D5E068012800D16C
:1023100012E03CE1E068B8B10120C8F80000FEF727
:10232000E3FE064605E000BFFEF7DEFE801B022846
:10233000C0D828688007F7D52868216920F0F80000
:1023400040EAC10028600DE0C8F800A0FEF7CCFE0E
:10235000064604E0FEF7C8FE801B02281FD8286846
:102360008007F7D42078000722D58B4E8C4861690E
:10237000703671B101210160FEF7B6FE074604E038
:10238000FEF7B2FEC01B022809D830688007F7D5D7
:102390000EE0C0F800A0FEF7A7FE074605E082E0C9
:1023A000FEF7A2FEC01B02287DD830688007F7D454
:1023B0002078400768D5DFF8E0B100270BF13C0B2F
:1023C000DBF80000C0000BD4DBF8001041F08051B6
:1023D000CBF80010DBF80000012700F080500090DF
:1023E000704E3068C00510D4306840F480703060A2
:1023F000FEF77AFE009005E0FEF776FE0099401A9F
:10240000022850D83068C005F6D5634EA0686C36F7
:1024100001280FD00528306810D020F0010030606E
:10242000306820F004003060A068B8B1FEF75CFEB0
:1024300000900FE0306840F00100F4E740F0040045
:102440003060F7E7FEF750FE0099411A41F28830FC
:10245000814268D830688007F4D50EE0FEF744FE6C
:10246000009007E0FEF740FE0099411A41F28830E3
:10247000814258D830688007F4D42FB1DBF80010BF
:1024800021F08051CBF80010A069D8B34249091D52
:102490000968C1F3810102294CD00228504607D0B7
:1024A000C8F8600000E03EE0FEF71EFE04463DE096
:1024B0004746C8F86000FEF717FE064605E000BF75
:1024C000FEF712FE801B02282DD828688001F7D461
:1024D000F4E907010843E168334A490802EB014186
:1024E000A26841EA82110843217C40EA0160217D13
:1024F00040EA0171C9F8001001203866FEF7F4FDCA
:10250000044606E045E000BFFEF7EEFD001B022892
:1025100009D828688001F7D53BE000BFFEF7E4FD4D
:10252000001B022802D90320BDE8F88F286880012B
:10253000F4D42EE00128F7D0D9F80000E26900F4C5
:102540008001914223D1226A00F03F0191421ED1C5
:1025500047F6C071626A0140B1EB821F17D1A26ACF
:102560004FF0FF3300F4403103EB5202B1EB024F66
:102570000DD194F82C2000F07061B1EB026F06D100
:1025800094F8301000F0E040B0EB017F01D0012062
:10259000CAE70020C8E700000438024000004742B4
:1025A000800E4742007000400000FFFF70470000AF
:1025B00038B5016804464A688868C043430606D5B2
:1025C000C30704D1D3435B0601D4216C05E0830724
:1025D00008D4D3431B0605D4616C01B02046BDE886
:1025E00030400847830603D5430601D5C30551D4BF
:1025F000D3439B064ED443060AD494F85130032BA0
:1026000049D0636D43F004036365CB688B68009326
:10261000830609D4636D43F0010363658B680093FF
:102620000B6823F040030B60C00506D4606D40F0DA
:1026300008006065206880680090606D002829D0DF
:102640002068416821F0E0014160012084F85100D8
:10265000900701D4D00722D02068416821F00301FF
:102660004160114DE06C40B10565E06CFEF706FA83
:1026700018B1606D40F040006065A06C002809D082
:102680000565A06CFEF7FAF9002803D0606D40F0F4
:102690004000606538BDC8688868009038BD204635
:1026A000FFF784FF38BD0000B935020870B504009B
:1026B00009D0606A002540B125616561A56294F882
:1026C000510040B10CE0012070BD6068B0F5827F20
:1026D000F4D0E561F2E784F85050204600F080F82D
:1026E000022084F851002068016821F04001016057
:1026F000A088218900F4827001F404410843A18973
:1027000001F400610843217C01F002010843217DAE
:1027100001F001010843218B01F400710843217F7E
:1027200001F03801084394F8201001F080010843BB
:10273000218D01F40051084321680860A06904213B
:1027400001EA104094F8241001F0100108432168B8
:1027500048602068C16921F40061C161656501209C
:1027600084F85100002070BD10B504460068164979
:10277000884210D11548016821F480510160E021A0
:102780001348FEF743FBE06CFEF78AF9A06CFEF7F6
:1027900087F9232012E00F49884213D10B48001F0C
:1027A000016821F4804101600C210B48FEF72EFBEB
:1027B0004FF480610948FEF729FB2420BDE8104052
:1027C000FEF71CBD10BD000000300140443802403F
:1027D00000000240003800400008024000040240AF
:1027E0002DE9F04387B0064614216846FDF7B5FD94
:1027F0004B4A31684B480225032700244FF0050857
:102800004FF48069914250D1464914310A6842F42C
:1028100080520A60096801F480510591016841F015
:1028200001010160006802AA00F001000590E020AB
:10283000CDE9000582E8900169463B48FEF774FB4C
:102840003B4D3A484FF0C0682860C5E90184C5E9AE
:1028500003496C61AC61EC612C624F4628466C62A6
:10286000FEF720FA08B1FEF7BEF8F564AE63304D0E
:102870002E4860354830E5E80208402091C52C48D4
:1028800045F814496030AC61EC612C626C62FEF773
:1028900009FA08B1FEF7A7F8B56400220521232044
:1028A000AE63FEF7C9FC232035E0224A914234D1C1
:1028B0001C4910310A6842F480420A60096801F438
:1028C00080410591016841F004010160016801F057
:1028D00004010591016841F002010160006802AA4B
:1028E00000F0020005900C20CDE9000582E890017F
:1028F00069461148FEF718FB02AA694682E8900172
:10290000CDE900950D48FEF70FFB0022052124209C
:10291000FEF792FC2420FEF782FC07B0BDE8F083AE
:102920000030014030380240000002401064024094
:102930001805002000380040000802400004024052
:102940002DE9F84F044690F85100984616460F4678
:102950000025012801D0022598E060684FF0040BA3
:10296000B0F5827F01D1A068F8B194F85000012839
:1029700026D04FF0010984F85090FEF7B5FB82464F
:10298000002F7FD0002E7DD084F851B000206065EC
:10299000A763A687E6872063A086E086206460643C
:1029A000A068B0F5004F0DD016E084F851B0134682
:1029B0000A462046CDF8008000F024F9BDE8F88FE3
:1029C0000220FBE72068016821F0400101602068D7
:1029D000016821F48041016020680168490603D440
:1029E000016841F040010160E068D8B13BE0206837
:1029F0008168C90709D0007BA16B0870A06B401CDF
:102A0000A063E08F401EE0870CE0FEF76DFBA0EBBB
:102A10000A01414503D3B8F1FF3F03D006E0B8F106
:102A2000000F03D0E08F0028E1D11FE003252BE049
:102A300020688168C90709D0C068A16B0880A06BB5
:102A4000801CA063E08F401EE0870CE0FEF74CFB8B
:102A5000A0EB0A01414503D3B8F1FF3F03D0E5E7FE
:102A6000B8F1000FE2D0E08F0028E1D15246414694
:102A7000204600F0A9FD08B120206065606D00E0EF
:102A800000E008B1012501E084F85190002084F8AD
:102A90005000284692E72DE9F84F044690F8500080
:102AA0000026984615468A4601280CD0012784F84E
:102AB0005070FEF719FB814694F85100B346012887
:102AC00004D002269AE00220BDE8F88FBAF1000F88
:102AD0006FD0002D6DD0032084F85100C4F854B09D
:102AE000C4F830A0A586E586C4F838B0A4F83CB098
:102AF000A4F83EB0C4F844B0C4F840B0A068B0F543
:102B0000004F09D12068016821F040010160206870
:102B1000016841F48041016020680168490603D4DE
:102B2000016841F040010160E068B0F5006F606845
:102B300003D058B3012D29D049E008B1012D1FD190
:102B4000206B21680088C86006E0206881688907DA
:102B500009D5216B0988C160206B801C2063E08E41
:102B6000401EE0860CE0FEF7BFFAA0EB09014145EC
:102B700003D3B8F1FF3F03D006E0B8F1000F03D054
:102B8000E08E0028E1D125E0032635E0206B2168A6
:102B90000078087306E02068816889070AD5216BF0
:102BA00009780173206B401C2063E08E401EE08694
:102BB0000DE01FE0FEF798FAA0EB0901414503D3B1
:102BC000B8F1FF3F03D0DFE7B8F1000FDCD0E08EB3
:102BD0000028E0D14A464146204600F023FD08B1D6
:102BE00020206065A06818B92068C16880680090DE
:102BF000606D08B1012601E084F8517084F850B08E
:102C0000304661E72DE9FF4F81B0044690F850004F
:102C100000260E9F1D4693464FF0010901280FD054
:102C20004FF0010A84F850A0FEF75EFA804694F84F
:102C30005100616801280DD0B1F5827F08D103E011
:102C4000022005B0BDE8F08FA16809B9042801D0C1
:102C50000226C9E00298002865D0BBF1000FFBD026
:102C6000002DF9D094F85100042802D0052084F8F2
:102C7000510000206065C4F838B0E587A587029947
:102C80002163E586A58620646064206801684906A2
:102C900003D4016841F040010160E068B0F5006FC5
:102CA000606803D0F0B3012D47D081E008B1012D59
:102CB0003CD1206B21680088C860206B801C206399
:102CC000E08E401EE08631E02068816889070FD5DC
:102CD000E18E69B1B9F1010F0AD1216B0988C16098
:102CE000206B801C2063E08E401EE0864FF00009C0
:102CF00020688168C9070CD0E18F51B1C068A16B11
:102D00000880A06B801CA063E08F401EE0874FF01E
:102D10000109FEF7E9F9A0EB0800B84206D3781CD8
:102D200004D001E009E05BE003265BE0E08E0028D0
:102D3000CAD1E08F0028C7D140E0206B216800781D
:102D40000873206B401C2063E08E401EE0862FE05D
:102D50002068816889070FD5E18E69B1B9F1010F4B
:102D60000AD1216B09780173206B401C2063E08E2F
:102D7000401EE0864FF0000920688168C9070CD02A
:102D8000E18F51B1C068A16B0870A06B401CA063BB
:102D9000E08F401EE0874FF00109FEF7A5F9A0EB98
:102DA0000800B84202D3781C02D0BAE7002FB8D08E
:102DB000E08E0028CCD1E08F0028C9D142463946A8
:102DC000204600F02FFC18B10126202060650BE0A2
:102DD000A06818B92068C16880680090606D08B16B
:102DE000012601E084F851A0002084F8500030460C
:102DF00027E77047704710B5040003D094F83D00F2
:102E000010B107E0012010BD002084F83C002046EE
:102E100000F01EF8022084F83D00211D206801F01A
:102E200027F9012084F8460084F83E0084F83F002A
:102E300084F8400084F8410084F8420084F843009C
:102E400084F8440084F8450084F83D00002010BD5B
:102E50007047000090F83D10012901D00120704713
:102E6000022180F83D100168CA6842F00102CA6080
:102E700000681149884214D0B0F1804F11D00F4939
:102E800088420ED00E4988420BD00E49884208D0A5
:102E90000D49884205D00D49884202D00C4988422C
:102EA00004D1816801F00701062903D0016841F0CF
:102EB0000101016000207047000001400004004053
:102EC00000080040000C00400004014000400140A8
:102ED0000018004070472DE9F04104460068C668BC
:102EE00005694FF00007A90713D5B10711D5F91EE1
:102EF000016101202077206880698007204602D088
:102F0000FFF7E8FF04E000F07EF8204600F07CF8D0
:102F10002777680716D5700714D521686FF004006D
:102F20000861022020772068806910F4407F2046E5
:102F300002D0FFF7CFFF04E000F065F8204600F074
:102F400063F82777280715D5300713D521686FF068
:102F500008000861042020772068C06980072046A7
:102F600002D0FFF7B7FF04E000F04DF8204600F074
:102F70004BF82777E80616D5F00614D521686FF0D0
:102F800010000861082020772068C06910F4407F95
:102F9000204602D0FFF79EFF04E000F034F8204600
:102FA00000F032F82777E80708D0F00706D021684C
:102FB0006FF001000861204600F028F8280608D5C7
:102FC000300606D521686FF0800008612046FFF7C3
:102FD00010FF680608D5700606D521686FF040001E
:102FE0000861204600F01CF8A8060AD5B00608D5EE
:102FF00021686FF0200008612046BDE8F041FFF72E
:10300000F9BEBDE8F08170477047000000680349D1
:10301000884201D1FEF76EB8704700000000014001
:10302000704770B5040004D094F84100002510B139
:1030300006E0012070BD84F84050204600F024F8DE
:10304000242084F841002068C16821F40051C16047
:10305000204601F079F82068016921F4904101616E
:103060002068416921F02A0141612068C16841F46A
:103070000051C1606564202084F8410084F842005A
:103080006563002070BD00002DE9F04186B0064662
:1030900014216846FDF761F930493068884259D1FA
:1030A0002F480024016841F010010160006800F021
:1030B000100005902A481438016841F001010160B0
:1030C0000068694600F0010005904FF4C060009070
:1030D0000220CDE901040320039007200490214839
:1030E000FDF722FF214D20484FF000672860C5E919
:1030F00001744FF48068C5E903486C61AC61EC6110
:103100002C6228466C62FDF7CDFD08B1FDF76BFC23
:10311000F563AE63154D144860357830E5E8020775
:103120004020A5E81101114845F814496030AC6110
:10313000EC612C626C62FDF7B5FD08B1FDF753FC44
:10314000B563002205212520AE63FEF775F8252022
:10315000FEF765F806B0BDE8F08100000010014000
:10316000443802400000024040640240280A002027
:10317000FEE70000F0B500230A24302537261F465D
:1031800011E000BFB4EB107F02D905EB107C01E029
:1031900006EB107C01F813C001EB430C00015B1C33
:1031A0008CF80170DBB29342ECD3F0BD154808B542
:1031B000016841F4800101600068002200F4800091
:1031C000009005213820FEF737F83820FEF727F861
:1031D000002205213A20FEF72FF83A20FEF71FF8CB
:1031E000002205213B20FEF727F83B20FEF717F8C9
:1031F000002205214620FEF71FF8BDE808404620C2
:10320000FEF70DB83038024010B596B01C221149B7
:103210006846FDF789F80021684603F093FD0E4CDF
:103220000C491C2220601C3107A8FDF77DF8002105
:1032300007A803F087FD074920601C2238310EA83B
:10324000FDF772F800210EA803F07CFD206016B097
:1032500010BD0000788502080800002030B587B056
:1032600014216846FDF779F819480024016841F0F7
:1032700080010160016801F080010591016841F061
:1032800004010160016801F004010591016841F049
:1032900001010160016801F001010591016841F03F
:1032A0000201016000680B4D00F002000590002251
:1032B0001F212846FDF712FF1F2000900120CDE9B5
:1032C0000104694628460394FDF72EFE07B030BD81
:1032D000303802400000024010B5114C0F484FF446
:1032E000007120604FF4827060600020A060E06098
:1032F0002061C4E90501E06120626062A0620A20E9
:10330000E0622046FFF7D2F908B1FDF76CFB2068B8
:10331000016841F04001016010BD00000030014033
:103320006804002010B5114C0F484FF40071206064
:103330004FF4827060600020A060E0602061C4E90A
:103340000501E06120626062A0620A20E06220461E
:10335000FFF7ACF908B1FDF746FB2068016841F0C2
:103360004001016010BD000000380040C004002092
:1033700010B5144C12480C2120604FF4E13060600D
:103380000020A060E060C4E90401A061E061204683
:10339000FFF747FE08B1FDF726FB2068C16841F43E
:1033A0000051C1602068C16841F01001C160BDE8F2
:1033B00010404FF400720449024803F02BBB000098
:1033C00000100140E0090020D805002010B50022BF
:1033D0000F49104801F0B1FB08B1FDF704FB0E499D
:1033E0000C4801F0C2FD08B1FDF7FDFA0B49094890
:1033F00001F042F908B1FDF7F6FA064801F038FE8F
:10340000002803D0BDE81040FDF7EDBA10BD000064
:103410009400002020FC002064010020F400002023
:10342000FEE7FEE70148FEF7C5B80000200B0120CB
:103430002DE9F04103680D4604461E6C03EB45116F
:10344000D1F8080B94F806E04FF400474FF0200C39
:1034500004F29C42BEF1010F09D0DFF898E07645F6
:1034600039D1020432D500BFC1F8087B3FE0224BBE
:103470005FEA007E04D59E4239D90004F4D436E0D8
:103480005FEA806E02D5C1F808CB30E010F0280F5B
:103490002DD19E4201D90004E6D405EBC50004EB12
:1034A0008000D1F8101BD0F87432C1F31201591A00
:1034B000C0F8681200F51570ADB903691BB1C26898
:1034C0001144C1600FE0012120680AE080060AD59E
:1034D000C1F808CB07E035B9D4F8640218B9002167
:1034E000184602F03BF9E9B22046FDF74EFF0020F6
:1034F000BDE8F0810A31544F0A30544F2DE9F84F9E
:103500000E4601EBC60100EB810481460568D4E953
:1035100009101434884202D90120BDE8F88F081A36
:10352000A168814200D20846C01C870805EB4618F6
:103530001BE000BFA0EB010AA068504500D2824604
:103540000AF10300870899F8060000901FFA8AF331
:10355000F2B22846E16802F03BFCE16801EB0A00A8
:10356000E060616901EB0A006061D8F8180980B277
:10357000B84205D3D4E90401814201D20028D9D14F
:10358000D4E90401884208D806F00F0101208840E0
:10359000D5F834188143C5F834180020BDE7000081
:1035A0000148FFF705B80000680400200148FEF755
:1035B000FFBF0000C004002010B5806B0021C18750
:1035C000C186FEF7F3FF10BDF8B5044640684FF41E
:1035D0008273984221D1A0684FF48065B0F5004F06
:1035E00001D0A8420AD12068066826F0400606608D
:1035F0006068984211D1A068A8420ED000920B4694
:1036000000228021204600F057FC002804D0606D85
:1036100040F0200060650320F8BD00920B460022B8
:103620000121EFE7F8B515460E460B460092044619
:103630000122022100F040FCA0B9134813490068A0
:10364000B0FBF1F04FF47A71484300906068B0F538
:10365000827F0DD13346002280212046009500F064
:103660002BFC70B1606D40F0200060650320F8BD58
:10367000009830B1401E009020688068C04300066A
:10368000F6D50020F8BD00002800002000366E01AD
:1036900003B583B04FF47A710091012301AA04A904
:1036A000FFF7B0FA9DF8040005B000BD2DE9F04F1A
:1036B00020292DED088BADF5597D08DAFEA002F02A
:1036C00045FD0DF5597DBDEC088BBDE8F08FDFF8A9
:1036D000F88300214EAF6C4600EB81021368D57869
:1036E0001BBA23F0FF032B4308EB810547F8213079
:1036F0006B611369D27C1BBA23F0FF03134344F8B8
:103700002130491C6B620429E6DB4FF000090422DA
:10371000CDF84C93D3A9D001CDF8509302F058FCCA
:103720000422D4A94FF4017002F052FC4FF0805BE8
:103730004FF4805A9FEDE59B9FEDE6AB9FEDE78B45
:10374000CDE9D5BAD3982890FCF7C1FF53EC1A2BDA
:10375000FCF7C5FE53EC182BFCF739FF9FEDE18B0E
:1037600053EC182BFCF7C1FE05460E469FEDDFBB60
:10377000D4982590FCF7ABFF53EC192BFCF7AFFE68
:1037800053EC1B2BFCF723FF53EC182BFCF7ADFE7F
:10379000C8F80050C8E90160C8F80C1025989430AA
:1037A000584503D828981430504503D9082188F883
:1037B0001010B1E104A800214FF402754FF0FF3A58
:1037C0000DF19C0B4B9014E0102227A9284602F023
:1037D000FFFB002108465A4657F8206052F8203077
:1037E000B34200D1491C401C0428F5DB04297DD0DC
:1037F0001435D3988542E7D3042977D0D4985290D2
:1038000014224EA9D39802F031FC102168464B9A3D
:1038100000F08AF994226946CDF89090D49802F08D
:1038200025FCD49804229430D490D4A94FF401708C
:1038300002F01CFCD39804221430D390D3A9D001F9
:1038400002F014FCD698FCF731FF53EC1A2BFCF76E
:1038500046FE41EC1B0BD398FCF739FF53EC1A2BB7
:10386000FCF73DFE53EC1B2BFCF7B1FE53EC182B81
:10387000FCF73BFE05460E46D598FCF717FF53ECC8
:10388000192BFCF72CFE41EC1A0BD498FCF71FFF08
:1038900053EC192BFCF723FE53EC1A2BFCF797FE85
:1038A00053EC182BFCF721FE47466423C7E90201BD
:1038B000C7E90056802253A90020CDF814A104F0D6
:1038C00055F8002053A925AD04EB800251F82030B3
:1038D00012695A4045F82020401C2028F4DB93ABA5
:1038E00045AA2021284602F0ABFE00E017E025ABF8
:1038F00045AA202193A802F011FF00200DF5E672E1
:1039000004EB800155F820300969594042F8201035
:1039100007EB8003401C59632028F1DBFCE01422F4
:103920004EA9284602F054FB529D9422284625A910
:1039300002F04EFB25AE04E00546942225A902F0D4
:1039400047FB499808B1A642F6D101215FF000007B
:1039500056F8202054F820309A4200D00021401C14
:103960000428F5DB99B36423802273A90020CDF8E5
:1039700028A103F0FBFF002073A953AC06EB8002E3
:1039800051F8203012695A4044F82020401C202869
:10399000F4DBB3AB4AAA2021204602F051FE53AB20
:1039A0004AAA2021B3A802F0B9FE002093AB4246F8
:1039B00006EB800154F820500969694043F8201053
:1039C00002EB8005401C69632028F1DBA4E0FFE7DF
:1039D000102168464B9A00F0A7F894226946CDF86A
:1039E0009090D49802F042FBD4984990942225A953
:1039F000284602F03BFBD49804229430D490D4A9FA
:103A00004FF4017002F032FBD698FCF74FFE53ECF6
:103A10001A2BFCF764FD41EC1B0BD398FCF757FE07
:103A200053EC1A2BFCF75BFD53EC1B2BFCF7CFFD83
:103A300053EC182BFCF759FD05460E46D598FCF7BC
:103A400035FE53EC192BFCF74AFD41EC1A0BD498C8
:103A5000FCF73DFE53EC192BFCF741FD53EC1A2B00
:103A6000FCF7B5FD53EC182BFCF73FFD47466423EC
:103A7000C7E90201C7E90056802273A90020CDF8EA
:103A80005CA303F073FF002073A953AD04EB800225
:103A900051F8203012695A4045F82020401C202857
:103AA000F4DBB3ABD7AA2021284602F0C9FD53AB03
:103AB000D7AA2021B3A81DE0496E76616C69642005
:103AC000696E707574732100102E012000000000D3
:103AD0000000B040000000000040804000000000F6
:103AE00000F0AB4000000000000059400000000062
:103AF000E0FFAF4102F012FE002093AA04EB800128
:103B000055F820300969594042F8201007EB80032E
:103B1000401C59632028F1DBB821024803F0AAFFBA
:103B2000CFE50000102E012070B5D6B01546064630
:103B30006423802215A9002003F018FF6423542277
:103B40006946184603F012FF152100234FEA0D04C1
:103B500056F8232054F82300504044F823005B1CFF
:103B6000042BF5DB35AB55AA204602F0D7FD00202B
:103B700015AA35A952F8204051F82030634045F885
:103B80002030401C2028F5DB56B070BD2DE9F041F7
:103B9000ADF5787D802175A8FCF7DFFB4AA002F027
:103BA000D5FA64238022D5A9002003F0DFFE642328
:103BB00054226946184603F0D9FE1521B5ABF5AA83
:103BC000684602F0ABFD95ABF5AAB5A8F59902F0F1
:103BD00037FD9599009888426CD142A002F0B6FA60
:103BE00048A002F0B3FA0024D5AE15ADB5AF0DF57F
:103BF000EA7800BF57F8240056F82410484045F8EA
:103C0000240075A8FCF7B4FB404455F8242041A1DA
:103C100002F0ACFA641C202CECDB75A8FCF7A8FBC6
:103C200081B275A803F026FF0021084602F016F9BC
:103C3000802215A9002002F019FA80226946104658
:103C400002F014FA80226946500002F00FFA802236
:103C500069464FF4C07002F009FA4FF40270042272
:103C6000F690F6A9D00102F001FA4FF48050F690D8
:103C70000422F6A94FF4017002F0F8F9802135A86A
:103C8000FCF76BFB802155A8FCF767FB802235A968
:103C9000002002F09DF9802255A9104602F098F903
:103CA00015993598884207D100995598884203D1D3
:103CB0001AA002E020A000E027A002F047FA0DF5CC
:103CC000787DBDE8F08100005374617274696E679D
:103CD00020496E697469616C697A652073746570D6
:103CE00073000000496E697469616C697A652070BF
:103CF000726F6772616D2073756363657373210AF8
:103D0000000000004765742068656C702064617471
:103D1000613A0A002530387800000000537563636B
:103D200065737366756C2073746F72652068656C5B
:103D300070446174612100004661696C20746F20D9
:103D4000696E697469616C697A6520747279206141
:103D50006761696E210A00004661696C75726520B1
:103D60006F636375727265643A2073746F72652055
:103D700070726F6772616D206661696C65642100A5
:103D800070B5F6B005460C46684603F071FB224656
:103D90002946684603F07EFD56A9684603F0C0FA3E
:103DA00036A800F035F815A002F0D0F9002056A989
:103DB0000DF5CC7551F8202001EB800312BADB78A9
:103DC00022F0FF021A4345F82020401C1028F1DBA6
:103DD000002436AEE01704EB107020F00F00201A1C
:103DE00055F8201056F82400414007A002F0AEF923
:103DF000641C202CEEDB76B070BD00005265737041
:103E00006F6E73653A0A00002530387800000000B4
:103E10002DE9F041ADF5047D07464FF0FF30002657
:103E20000DF5807820AC6D4680906423802240A9F7
:103E3000002003F09BFD802220A9002002F0C8F89A
:103E40000020414654F8202051F820305A4045F8CF
:103E50002020401C2028F5DB60AB80AA202168468A
:103E600002F0EEFB6B4680AA202160A802F056FC0F
:103E70005FF0000054F8201055F82020514047F81A
:103E80002010401C2028F5DB8098401C05D1761CB2
:103E9000042ECADB03A002F059F90DF5047DBDE83C
:103EA000F08100006572726F723A204465636F643E
:103EB00065206661696C21002DE9F8431E46914634
:103EC00088460446089DFDF70FF9401B351AFDF79B
:103ED0000BF9074625480068C0F3CB30684338E04B
:103EE000701C37D0FDF700F9C01BA84203D215B1F2
:103EF000009860B32CE02068416821F0E001416047
:103F00006068B0F5827F0BD1A068B0F5004F02D099
:103F1000B0F5806F04D12068016821F04001016094
:103F2000A06AB0F5005F09D12068016821F4005152
:103F300001602068016841F400510160012084F8AB
:103F40005100002084F850000320BDE8F8830025CC
:103F5000401E00902068816838EA010004D00021EA
:103F60004945BDD10020F0E70121F9E728000020F4
:103F70000178407841EA00207047FFF727FA0120D6
:103F800002F0D4FEFBE7000010B5502080F311884A
:103F9000BFF34F8FBFF36F8F04F0A0F918B104493E
:103FA0004FF080500860002080F3118810BD0000A1
:103FB00004ED00E030B593B034216846FCF7CDF94C
:103FC00014210DA8FCF7C9F91D480025016841F02E
:103FD00080510160006800F080501290194801681B
:103FE00041F4404101600068022400F44040129016
:103FF00001200090000401908001CDE906400420DA
:1040000008904820CDE909040320CDE90B04684657
:10401000FEF70CF908B172B6FEE70DA90F2081E892
:1040200031004FF48050CDE9100502210DA8FDF7B5
:10403000EDFF002801D072B6FEE713B030BD0000DE
:1040400040380240007000400448016841F47001AB
:1040500001600249024880390860704788ED00E03D
:10406000000002080148FEF736BF0000E80A002001
:10407000F0B50268294C2A4D2A4E2B4F2B4B4FF09E
:10408000804CA04209D0604507D0A84205D0B0427C
:1040900003D0B84201D0984204D122F0700E4A6891
:1040A00042EA0E02A0421BD0604519D0A84217D0A8
:1040B000B04215D0B84213D0984211D01C4DA8423E
:1040C0000ED01C4DA8420BD01B4DA84208D01B4D52
:1040D000A84205D01A4DA84202D01A4DA84203D1D9
:1040E00022F44075CA682A434D6922F080022A43AF
:1040F00002608A68C2620A688262A04201D0984265
:1041000001D109690163012141610169C90703D036
:10411000016921F001010161F0BD000000000140D2
:104120000004004000080040000C00400004014072
:104130000040014000440140004801400018004098
:10414000001C00400020004070B504460068016972
:10415000E26821F44051114301612169A068E269DC
:1041600008436169114308432168CA6849F20C6336
:104170009A430243CA6020684169A26921F44071F0
:104180001143416131492068884202D03049884258
:1041900002D1FEF70BF801E0FDF7F8FFE26900231A
:1041A000192164253226B2F5004F626828D0A0FBA1
:1041B0000101930F9200FCF781F80146B0FBF5F086
:1041C0006FF01802504301EB800006EB0010B0FBCB
:1041D000F5F000F0F002B1FBF5F002EB0012B1FBDC
:1041E000F5F06FF01803584301EB800006EB001068
:1041F000B0FBF5F000F00F0021681044886070BD3E
:10420000A0FB010192185B41FCF758F80146B0FB96
:10421000F5F00201B1FBF5F06FF01803584301EB24
:10422000800006EBC000B0FBF5F000F0F80002EBF8
:104230004002B1FBF5F0584301EB800006EBC000F3
:10424000B0FBF5F000F00700D6E7000000100140D9
:1042500000140140AFF30080F8B51F4908680268F8
:10426000D243920602D40268426800920268D243A6
:10427000D2062FD4026840680090C86B002829D06D
:1042800001684968154CC1F50071A160FCF7ADFBF0
:104290000125E168124E25EA0100E06000EBC01044
:1042A00006EB80016A020C4802F0B4FBA06800280B
:1042B00010D0E16800238D4305EBC51106EB8101A9
:1042C000221DC1F800020748006801B0BDE8F040B7
:1042D00003F068BEF8BD0000E00900200C000020DB
:1042E000D8050020000000202DE9F0410C46D0F850
:1042F000D412D0F8C82200EB8101D1F8C01229B342
:1043000004F00F0606EB860300EB83050027AB697C
:104310004BB106EBC60602EB8602D269B3FBF2F69E
:1043200002FB1632A2B1C1F81472D0F8D42200EB0D
:104330008200D0F8C40203692BB1D1F808022246EA
:1043400001F5047198470020BDE8F0810320FBE7E8
:1043500000231A462146AF6100F0E8FDF3E770B58F
:104360000546D0F8D40205EB8000D0F8C04294B1E5
:10437000284600F0BAFCC4F80C02D5F8D412D4F8E0
:10438000040205EB8101D1F8C412CA6804F5037177
:104390009047002070BD032070BD000070B5224D15
:1043A0000446297800F0E5FB2878002600F00F008D
:1043B00000EB800004EB800086846978204600F0E2
:1043C000D8FB687800F00F0000EB800004EB800061
:1043D000A0F86461A978204600F0CBFBA87800F033
:1043E0000F0000EB800004EB80008684C684D4F8C4
:1043F000D40204EB8000D0F8C01299B1D0F8C40206
:1044000040688047D4F8D40204EB8000D0F8C002A2
:1044100000F0AFFFD4F8D40204EB8000C0F8C06213
:10442000C4F8BC62002070BD1001002010B5D0F8A7
:10443000D41200EB8100D0F8C04284B1D0F8C4128D
:1044400059B194F80002FF2807D08B6894F8012234
:1044500021469847FF2084F80002002010BD032069
:1044600010BD00000A21018000487047140100209F
:1044700070B5064682210C4800F00BFB0546012171
:10448000094800F006FB04468121074800F001FBC3
:104490000DB11021A971402104B1A18000B181802A
:1044A00043203080004870BD2001002070B50646D2
:1044B00082210D4800F0EDFA054601210A4800F07E
:1044C000E8FA04468121084800F0E3FA0DB1102112
:1044D000A9714FF4007104B1A18000B18180432023
:1044E0003080014870BD00002001002070B50646F4
:1044F00082210C4800F0CDFA05460121094800F060
:10450000C8FA04468121074800F0C3FA0DB1102112
:10451000A971402104B1A18000B181804320308085
:10452000004870BD200100202DE9F04704464FF4FB
:104530000775284600F01EFF06004FF0000863D004
:104540002946FBF70AFFD4F8D4023C4D04EB800067
:104550004FF01009C0F8C062C4F8BC62207C4FF470
:10456000007A0127F0B3402302222978204600F088
:1045700028FC2878402300F00F0000EB800004EBBB
:104580008000878402226978204600F01AFC68784F
:10459000082300F00F0000EB800004EB80000322F2
:1045A000A0F86471A978204601F00F0101EB8101A8
:1045B00004EB8101A1F82690A97800F002FCA8780C
:1045C00000F00F0000EB800004EB80008784C6F849
:1045D0000482D4F8D402474604EB8000D0F8C40229
:1045E000006800E018E006F50176804737617761E2
:1045F00032687AB1207CF8B140236978204600F017
:10460000ECFB0020BDE8F087D4F8D41204EB810164
:10461000C1F8C0820220F5E75346022229782046DD
:1046200000F0CFFB2878534600F00F0000EB80002D
:1046300004EB80008784A5E75346DEE710010020E5
:1046400010B5D0F8D41200EB8101D1F8C01259B1E5
:10465000027C084C002AD1F8042207D0402361785C
:1046600000F0BBFB002010BD032010BD4FF4007311
:10467000F5E700001001002039B1D0F8D42200EB9A
:104680008200C0F8C4120020704703207047D0F8A1
:10469000D42200EB8200D0F8C00218B1C0F8041296
:1046A0000020704703207047D0F8D43200EB83001D
:1046B000D0F8C00228B1C0F81022C0F808120020BB
:1046C0007047032070472DE9FC410646D0F8D4021C
:1046D0000C4606EB80000021D0F8C0728DF8001067
:1046E000ADF804100D4637B1217811F060022FD0DB
:1046F000202A4BD102E00320BDE8FC81E288F2B120
:1047000009060DD5D0F8C40263783946D0F808C040
:104710001846E047E288072A00D9072239462DE0EB
:10472000607887F80002E088402800D34020C2B2B9
:1047300087F801223946304600F081F82BE0D0F8A6
:10474000C40263780022866821461846B04722E0FA
:10475000607830B101281ED00A2809D00B2815D165
:1047600010E096F89C02032810D1022201A905E06E
:1047700096F89C02032809D101226946304600F0D0
:1047800078F808E096F89C02032804D021463046C9
:1047900000F04AF803252846AEE7000010B5D0F82F
:1047A000D41200EB8101D1F8C02201211AB1D2F854
:1047B000143213B116E0032010BD0121C2F8141207
:1047C0000949D2F81032097801F00F0404EB84048F
:1047D00000EB8404A361D2F81032D2F8082200F072
:1047E000A5FB0021084610BD1001002010B5D0F82F
:1047F000B82200245268904700B10324204610BD1F
:104800000020704700207047134610B50A4600216B
:1048100000F0E3FA002010BD134610B50A4600214F
:1048200000F084FB002010BD10B50446802100F08C
:104830005EFB2046BDE81040002100F058BB10B5DB
:104840000323C0F89432C0F858211346C0F85C2105
:104850000A46002100F0C1FA002010BD10B5052164
:10486000C0F8941200231A46194600F0B6FA002048
:1048700010BD10B50223C0F8943282611346C261A4
:104880000A46002100F052FB002010BD10B50421A3
:10489000C0F8941200231A46194600F047FB002086
:1048A00010BD000010B50A46024903A000F015F93A
:1048B000004810BDFCFE002043444320436F6E6659
:1048C000696700001220088000487047B800002087
:1048D00010B50A46024903A000F0FFF8004810BDD9
:1048E000FCFE002043444320496E74657266616398
:1048F000650000000420088000487047B4000020D4
:1049000010B50A46024903A000F0E7F8004810BDC0
:10491000FCFE002053544D6963726F656C656374CF
:10492000726F6E696373000010B50A46024903A0F6
:1049300000F0D3F8004810BDFCFE002053544D3366
:1049400032205669727475616C20436F6D506F72BE
:104950007400000010B51A2008800A480168001D84
:104960000468001D0068081809D008220649FEF7EF
:1049700001FC0549042210312046FEF7FBFB0248EA
:10498000801E10BD107AFF1FDA0000200C20088066
:1049900000487047CC000020F8B504460020ADF870
:1049A000000048880D46010A062947D006DC012987
:1049B0000FD0022912D0032962D11DE0072946D069
:1049C0000F295DD1D4F8B402C26920E0694690474E
:1049D0003BE0D4F8B412207C0A68F7E7207C02267A
:1049E0000028D4F8B80205D0C16A68468847014655
:1049F000467036E0816AF8E7C0B2062840D2DFE8A8
:104A000000F003090D111519D4F8B4024268B2B3CD
:104A1000207CDBE7D4F8B4028268F8E7D4F8B4026B
:104A2000C268F4E7D4F8B4020269F0E7D4F8B4023B
:104A30004269ECE7D4F8B4028269E8E7207CF0B977
:104A4000D4F8B802416B68468847014609E0207CEB
:104A5000A8B9D4F8B802016B684688470146072018
:104A60004870EA888AB1BDF8000040B1824200D99E
:104A70000246ADF800202046FFF7FBFEF8BDFFE739
:104A800029462046FFF7D0FEF8E72046FFF7FEFE56
:104A9000F4E778B50E4642880178002504468A423C
:104AA00012D9ADF800100AE0694600F00FF841781D
:104AB000052904D181780546B14205D000256188D9
:104AC000BDF800209142EFD8284678BD0A880378C7
:104AD0001A440A8001780844704770B50023002802
:104AE0001ED00025044602E06D1CEDB2641C267841
:104AF000002EF9D1022404EB450414801278CA5424
:104B00005B1C0322CA5400245B1C06E0CA545B1CD5
:104B1000DAB28C54521CD3B2401C0278002AF5D170
:104B200070BD01004FF0000004D0012901D002291E
:104B300001D0032070470120704778B10023C0F8EE
:104B4000B832C0F8C432C0F8D03209B1C0F8B412DB
:104B5000012180F89C12027000F0CCB8032070474D
:104B600010B5D0F8C802FCF752FCBDE81040FFF7C2
:104B7000D8BF10B5D0F8C802FCF724FCBDE810403F
:104B8000FFF7CFBF2DE9F04117460446002521B1BC
:104B900094F89C02032842D04CE0D4F8941204F11B
:104BA0001400022935D1D0E902639E4206D9F21AD7
:104BB000826039462046FFF72FFE0FE0B34214D142
:104BC0004068984211D3D4F8981288420DD200223E
:104BD00011462046FFF720FEC4F8985200231A46DB
:104BE0001946204600F0F9F813E094F89C020328D7
:104BF00008D1D4F8B802C16821B1C4F8D452C16850
:104C0000204688478021204600F071F92046FFF7B2
:104C100025FE94F8A00268B184F8A0520AE0D4F806
:104C2000B802426932B1C4F8D45242692046904772
:104C3000002800D10020BDE8F08170B5134604467D
:104C4000002221B194F89C02032830D03AE0D4F835
:104C5000941204F5AA70032934D1D0E902518D428F
:104C60000AD96A1A82600846824200D3024619466F
:104C70002046FFF7C9FD25E094F8AA0210F01F00B6
:104C800003D0012802D0022800D0002294F89C0210
:104C9000032808D1D4F8B802016921B1C4F8D4229C
:104CA0000169204688472046FFF7F0FD0AE0D4F866
:104CB000B802836933B1C4F8D42282692046904790
:104CC000002800D1002070BD0020704710B50024DE
:104CD000012180F89C12D0F8B82222B152680179E3
:104CE000904700B10324204610BDD0F8C802FCF75D
:104CF000BBBB000010B5017841BB15490222C1F8C9
:104D0000E004C0F8C8124FF0A04008600620087107
:104D1000CA71002088714A728872C8720873487319
:104D20008873C8730846FCF719FF08B1FBF75BFEF0
:104D300080210748FCF7F6FA402200210448FCF7DE
:104D4000F5FA802201210248FCF7F0FA002010BD9C
:104D5000200B01200A0601F07F01D0F8C80201EB08
:104D6000C10100EB810001D5807D704790F85602AB
:104D7000704710B5D0F8D42200EB8202D2F8B822E6
:104D800022B190F89C32032B02D004E0032010BD26
:104D9000126A02B19047002010BD10B5D0F8D4229D
:104DA00000EB8202D2F8B82222B190F89C32032B99
:104DB00002D004E0032010BD526A02B190470020E7
:104DC00010BD10B51C461346D0F8C8022246FCF7A9
:104DD00054FBBDE81040FFF7A4BE10B5D0F8C802E0
:104DE000FCF77AFBBDE81040FFF79BBE2DE9F041D0
:104DF00000260125044680F89C52C4F8946266603F
:104E0000C4F8A46280F8A062D0F8B80230B1426859
:104E100022B100212046904700B103260022402302
:104E200011462046FFF7CDFF4027A4F864513B46CA
:104E3000002280212046C4F86071FFF7C2FFA584DC
:104E400030462762BDE8F08190F89C12042903D116
:104E500090F89D1280F89C120020704710B590F8D1
:104E60009C12032905D1D0F8B81211B1C96901B15A
:104E70008847002010BD01740020704710B5D0F89D
:104E8000C802FCF740FFBDE81040FFF74ABE70B50E
:104E9000044600F2AA20054600F051F80120C4F8AB
:104EA0009402B4F8B002C4F8980294F8AA0210F080
:104EB0001F010AD001290ED0022912D000F0800172
:104EC0002046BDE8704000F012B829462046BDE8F3
:104ED000704000F0CFB829462046BDE8704000F091
:104EE0000FBA29462046BDE8704000F059B910B508
:104EF000D0F8C802FCF70CFBBDE81040FFF711BE6C
:104F000010B5D0F8C802FCF718FFBDE81040FFF755
:104F100008BE90F89C12042903D090F89C1280F8E7
:104F20009D12042180F89C120020704710B5D0F823
:104F3000C802FCF726FBBDE81040FFF7F2BD70B5D4
:104F4000054611F8010B2870087868704C1C204643
:104F5000FFF70EF86880A41C2046FFF709F8A88028
:104F6000A01CFFF705F8E88070BD38B504460020A6
:104F7000ADF80000A1B1C4F8B812D4F8D40204EB23
:104F80008000D0F8B802C16A19B168468847C4F8F1
:104F9000D002D4F8D802401CC4F8D802002038BD92
:104FA000032038BD02460020D2F8B832002B02D0D0
:104FB0001B681046184770472DE9F04188462B4E74
:104FC0008978002504463170012906D941462046DA
:104FD000FFF72AFC0320BDE8F08194F89C02022729
:104FE00002280CD003281DD041462046FFF71CFCA8
:104FF00031782046FFF7FAFB03252846EBE789B313
:1050000020466160FFF7CEFF050004D041462046F0
:10501000FFF70AFC1DE02046FFF738FC032084F868
:105020009C02EAE7C1B1606888421BD0C1B2204649
:10503000FFF7DCFB317820466160FFF7B3FF050026
:1050400010D041462046FFF7EFFB21792046FFF7BD
:10505000CDFB84F89C72D0E784F89C722046616096
:10506000FFF7C4FB2046FFF711FCC6E70C01002048
:10507000FFF746BF2DE9F0410A78002512F06002E3
:105080000CD0202A01D0402A7DD1D0F8D42200EBC8
:105090008202D2F8B8229268904731E04B78002221
:1050A00001260A2B6FD2DFE803F041666E586E08C6
:1050B000056E2D29FFF770FC67E004468888D8B993
:1050C000C888C8B94888802816D200F07F0794F8AD
:1050D0009C02032810D084F89E7239462046FFF7C0
:1050E000CDFE2046FFF7D2FB1FB1022084F89C02C0
:1050F0004BE084F89C6248E0204644E0FFF75CFF08
:10510000054642E0CB88012B3DD190F89C32012B23
:1051100004D0022B02D0032B35D104E0826001229F
:1051200000F1080116E00122011D13E090F89C2215
:10513000012A03D0022A01D0032A24D1CA88022AD4
:1051400021D1C660D0F8A41209B10321C1600222A6
:1051500000F10C01FFF78DFB17E04A88012A02D00D
:10516000022A03D00FE0C0F8A46216E08988090A79
:1051700080F8A01211E090F89C32012B08D0022B8D
:1051800006D0032B04D0FFF74FFB2846BDE8F08183
:1051900049880129F9D1C0F8A422FFF777FBF4E789
:1051A0002DE9F041054608780C790E464FF00008CD
:1051B00010F060000BD0202801D040286AD1214691
:1051C0002846FFF71DFBFF2800D0D8B395E0707884
:1051D000C8B3012824D003285CD195F89C0202288A
:1051E00002D0032856D10CE0002C53D0802C51D093
:1051F00021462846FFF77BFE80212846FFF777FEF1
:105200007BE0708840B93CB1802C05D0C88818B9C3
:1052100021462846FFF76BFE2846FFF737FB6CE078
:1052200095F89C020228DFD0032863D1708880BBE8
:10523000600603D021462846FFF792FC2846FFF778
:1052400025FBBCE700E00AE0C5F8D402D5F8B802B7
:105250008268F2B131462846904780464DE095F885
:105260009C020027022802D0032843D113E00CB18E
:10527000802C3FD1200604F07F0000EB800005EB7E
:10528000800101D5143101E001F5AA7102220F60FD
:105290002CE032E02EE0200604F00F0000EB80004E
:1052A00005EB800009D5808C20B304F07F0000EB73
:1052B000800005EB800614360AE0B0F86401C8B13E
:1052C00004F07F0000EB800005EB800606F5AA766F
:1052D0004CB1802C07D021462846FFF73BFD10B18A
:1052E0000120306000E03760022231462846FFF797
:1052F000C0FA02E02846FFF797FA4046BDE8F08181
:1053000070B50546087800240E4610F0600003D002
:10531000202801D0402827D195F89C02012803D0ED
:10532000022801D003281FD1B088C1B201291AD8A0
:10533000C1B22846FFF766FAFF280CD058B9D5F855
:10534000B8128A683AB1C5F8D4028A68314628464C
:105350009047044600E00324F088204307D1284604
:10536000FFF794FA03E031462846FFF75DFA20463E
:1053700070BD7047004870470009012070B50A7879
:10538000012302F00F054E78AB401B4CD0F81C589F
:10539000012E17D045EA0343C0F81C3800EB421039
:1053A000D0F8002B12040BD4D0F8002B0B8909790C
:1053B000C3F30A031A4344EA81410A43C0F8002BAD
:1053C000002070BD9BB21D43C0F81C5800EB42107A
:1053D000D0F800391B04F3D4D0F800390D890979CD
:1053E000C5F30A0589042B4341EA82510B43234349
:1053F000C0F80039E4E7000000800010D0F8001980
:105400006FF30A01C0F80019D0F8041841F4807154
:10541000C0F804180020704770B50D460446C2F36A
:10542000072104981E4601291BD0E06840F0400087
:10543000E060204600F032F8C6F307210029A16B96
:1054400026D021F48031A163C5F30741012907D19A
:10545000A16841F00601A160A16841F02001A160AE
:1054600070BDA16B21F48031A163E1680A4A11404B
:10547000E160E16821F44011E160C0B2012803D18C
:10548000E06840F48010E060204600F007F8DBE7B9
:1054900041F48031D7E70000BFFFBDFF08B5002110
:1054A0004FF070620091009B5B1C009393420CD8FC
:1054B0000369002BF7DA0091016941F001010161F4
:1054C0000099491C0091914201D9032008BD01694E
:1054D000C907F5D1002008BD30B54C780A78012302
:1054E00000EB4212012C2CD0D2F8004B002C0BDA2E
:1054F000D2F8004B44F00064C2F8004BD2F8004BE5
:1055000044F08044C2F8004BD0F83C580C7804F0CA
:105510000F0403FA04F425EA0444C0F83C48D0F828
:105520001C48097801F00F018B4024EA0341C0F8C0
:105530001C18D2F8000B19490840C2F8000B0020D3
:1055400030BDD2F80049002C0BDAD2F8004944F003
:105550000064C2F80049D2F8004944F08044C2F81F
:105560000049D0F83C480D7805F00F0503FA05F521
:10557000ADB2AC43C0F83C48D0F81C48097801F003
:105580000F018B4099B28C43C0F81C48D2F8000937
:1055900003490840C2F80009D1E700000078F3EFA2
:1055A000007833ECD0F8001E21F00301C0F8001E93
:1055B000D0F8041821F00201C0F804180020704748
:1055C000D0F8001E21F00301C0F8001ED0F8041826
:1055D00041F00201C0F80418002070472DE9F04F97
:1055E00000250E46044617462846294604EB80024D
:1055F000C2F80411401C0F28F8D3C3F307405FEA38
:105600000009204612D0806B40F40012A2630846C5
:1056100088462146C4F8000EC7F30720012818D099
:105620000846D1F8001841F0030119E0D0F8040849
:1056300040F00202C4F80428A06B20F40012A26318
:10564000206840F040022260206840F08002226022
:10565000DDE7300E0846D1F8001801D041F0010115
:10566000C0F80018102100F086FA00B1012520468C
:1056700000F065FA00B101254046C4F81088C4F86E
:105680001488C4F81C8800214FF0006B4FF0904E36
:105690004FF67F3AF2B214E004EB4113D3F800C99D
:1056A000BCF1000F06DA11B1C3F800E904E0C4F858
:1056B00000B901E0C3F80009C3F81009C3F808A94C
:1056C000491C8A42E8D8002115E000BF04EB4113D1
:1056D000D3F800CBBCF1000F06DA11B1C3F800EB30
:1056E00004E0C4F800BB01E0C3F8000BC3F8100BE2
:1056F000C3F808AB491C8A42E8D8D4F8101821F442
:105700008072C4F81028A0616FF080406061C6F319
:10571000074018B9A06940F01000A061A0690A49CB
:105720000843A061C7F3074018B1A06940F0080022
:10573000A061B9F1010F03D1A06904490843A06138
:105740002846BDE8F08F000000383C80040000408F
:10575000816821F0010181600020704710B5036C61
:10576000134CA34203D9D0F8003B002B1EDB0023CF
:10577000C0F8103BD0F8103B43F40023C0F8103BB6
:10578000D0F8103B43F01803C0F8103BD0F8103BA2
:1057900043F0C043C0F8103B012907D1C0F8142BD7
:1057A000D0F8001B41F08021C0F8001B002010BD84
:1057B0000A30544F4A780B78012A00EB43100BD083
:1057C000D0F8002B22F40012C0F8002B097903292D
:1057D00014D0022912D017E0D0F8002922F40012C8
:1057E000C0F800290979032901D002290CD1D0F889
:1057F000001941F08051C0F8001905E0D0F8001BF5
:1058000041F08051C0F8001B002070470A784B78A7
:10581000D1B200EB4110012B12D0D0F8001B0029AF
:1058200006DB2AB1D0F8001B21F08041C0F8001B34
:10583000D0F8001B41F40011C0F8001B0020704795
:10584000D0F80019002906DB2AB1D0F8001921F0A0
:105850008041C0F80019D0F8001941F40011C0F8D7
:105860000019EBE7F8B50C784F78894DE3B26FF08B
:10587000604600EB4313012F29D0D3F8107B6FF360
:105880001207C3F8107BD3F8107B2F40C3F8107BAE
:10589000002C0C697DD0002C7CD08D682C44641EBB
:1058A000B4FBF5F4A4B265430D62D3F8105B06EACD
:1058B000C4442543C3F8105BD3F8104B0D6AC5F3FD
:1058C00012052C43C3F8104B012A7DD0C7E00F69A5
:1058D00027B3D3F810796FF31207C3F81079D3F810
:1058E00010792F40C3F8107944B30F698D682F44A5
:1058F0007F1EB7FBF5F506EAC545D3F810693543B9
:10590000C3F81059D3F810590E69C6F3120635437F
:10591000C3F810590D79012D1CD027E0D3F8106978
:105920002E40C3F81069D3F8105945F40025C3F888
:105930001059D3F810596FF3120515E00E698D68F0
:10594000AE4200D90D61D0F8105945F40026C0F8D8
:105950001069D7E7D3F8105925F0C045C3F810599E
:10596000D3F8105945F00055C3F81059012A1AD040
:1059700000EB4413D3F8004944F00444C3F8004951
:105980000C79012C32D00A697AB3D0F8342809781E
:1059900001E040E052E001F00F03012199400A4389
:1059A000C0F8342871E0CA691AB100EB4413C3F897
:1059B00014290979012910D1D0F80818C90500EB7C
:1059C0004411D1F8002900E045E002D442F0005231
:1059D00001E042F08052C1F8002900EB4410D0F8F9
:1059E000001941F00441C0F800194EE0D0F8084811
:1059F000E405D3F8004902D444F0005401E044F037
:105A00008054C3F8004900920A8A93B20A78C968A0
:105A100000F0DEF939E00CB18C680C618C680C6226
:105A2000D0F8105BC4F312042543C0F8105BD0F823
:105A3000104B44F40024C0F8104B45E7D3F8104B4A
:105A40008D68C5F312052C43C3F8104BD3F8104BE7
:105A500044F4002436E7CA680AB1C3F8142B097964
:105A600001290CD1D0F80808C005D3F8000B02D4E6
:105A700040F0005001E040F08050C3F8000BD3F834
:105A8000000B40F00440C3F8000B0020F8BD0000FC
:105A9000FFFF07E038B50022009213464D780A78E0
:105AA00042F2107400EB4212012D19D0D2F8005BC3
:105AB000002D3CDAD2F8005B45F00065C2F8005BCF
:105AC0000A7800EB4212D2F8005B45F08045C2F83C
:105AD000005B009A521C0092A24221D9012326E0C9
